:020000020000FC
:1000000000C0209A539A529A549A559A569A579ADF
:1000100039983A983B983C9A3D980AD0402F57D04F
:1000200067D0FBCF449823D0449A24D044980895B5
:10003000F9DFACE9B0E4359903C01197E1F7089511
:10004000AA27BB271196359B02C0B034D8F38D0187
:100050002AE301D00895332740E1000F111F331F19
:10006000321710F0321B03954A95B9F70895000036
:100070000000089534E03A95F1F70895403091F08A
:10008000413091F0423091F0433091F0443091F0A2
:10009000453091F0463091F0473091F0483091F082
:1000A000493091F040E012C040E810C040E40EC07A
:1000B00040EC0CC040E20AC040EA08C040E606C07E
:1000C00040EE04C040E102C040E900C00895662748
:1000D0007727882794E6491718F0491B6395FBCFCB
:1000E0009AE0491718F0491B7395FBCF842F0895A8
:1000F00000E00395462FC2DF4BB9289A5B985A98C7
:1001000014D02898472FBADF4BB95B9A28985A9891
:100110000CD05B98482FB2DF4BB95A9A28985B985D
:1001200004D05A98033228F3089554E640E04A95E3
:08013000F1F75A95E1F708957B
:00000001FF
