:020000020000FC
:0200000008C036
:1000100031C0209A539A529A549A559A569A579A9E
:100020003C9A3D98A2E0A0936800AEE0A0936C00DB
:100030007894A4E63A2EAAE04A2EAA27EE27F0E00A
:10004000E0FF03C02ED0F12F0BC0E1FF03C0E0E0C2
:10005000C12FA6D0E2FF08C0E0E0A9D0FC2F00C06D
:10006000EE274F2F04D0ECCF4F2F01D0E9CF65D032
:1000700073D00895AF93AFB7AF93319BE160329BDC
:10008000E260339BE460AF91AFBFAF911895AF9141
:10009000AFBFAF911895449820D0449A21D044988E
:1000A0000895F9DFAFEFBFEF359903C01197E1F77E
:1000B0000895AA27BB271196359B02C0BF3FD8F3EE
:1000C000112701D00895B03009F002D0A43820F0F3
:1000D000DD97DD971395F7DF089500000000089580
:1000E00034E03A95F1F70895403091F0413091F0C5
:1000F000423091F0433091F0443091F0453091F02E
:10010000463091F0473091F0483091F0493091F00D
:1001100040E012C040E810C040E40EC040EC0CC00B
:1001200040E20AC040EA08C040E606C040EE04C013
:1001300040E102C040E900C00895002411242224B7
:10014000431518F043190394FBCF441518F04419D4
:100150001394FBCF242E089500E00395402DC4DFB7
:100160004BB9289A5B985A9814D02898412DBCDF37
:100170004BB95B9A28985A980CD05B98422DB4DF03
:100180004BB95A9A28985B9804D05A98033228F3AE
:10019000089554E640E04A95F1F75A95E1F708953D
:1001A000F999FECFE1BDC0BDFA9AF99A0895F9997F
:0A01B000FECFE1BDF89AC0B5089536
:00000001FF
