S016000061747630355F333731375F3235312E7372656336
S11300000C9434000C943E000C943E000C943E007E
S11300100C943E000C943E000C943E000C943E0064
S11300200C943E000C943E000C943E000C943E0054
S11300300C943E000C943E000C943E000C943E0044
S11300400C943E000C943E000C943E000C943E0034
S11300500C943E000C943E000C943E000C943E0024
S11300600C943E000C943E0011241FBECFEFD8E048
S1130070DEBFCDBF0E9483000C94AD000C94000041
S113008084B18C6284B98CB581658CBD85B1846082
S113009085B908958EBD0DB407FEFDCF0895CF93A5
S11300A0C62F95B19B7F95B90E944A008C2F0E9460
S11300B04A0085B1846085B9CF91089560E08FE0EE
S11300C00E944F0060E089E00E944F0063E08AE0F4
S11300D00E944F0067E08BE00E944F0061E08CE0DB
S11300E00E944F000895CF93DF93C1E0D0E005C094
S11300F060E08C2F0E944F002196C930D105C4F3D3
S1130100DF91CF9108950E9440000E945E000E94FA
S1130110730000E010E01DC061E070E0002E02C03A
S1130120660F771F0A94E2F78C2F0E944F002196E6
S113013002C0C1E0D0E0C930D10574F32FEF83ECE5
S113014099E0215080409040E1F700C000000F5F2B
S11101501F4F083011056CF3FFCFF894FFCF5A
S9030000FC
