:020000020000FC
:0200000008C036
:1000100080C0209A539A529A549A559A569A579A4F
:10002000219A229A239A3898A0E6A0937C00A0E017
:10003000A0937B00A7E8A0937A00A2E0A0936800B9
:10004000AEE0A0936C007894A7EC3A2EA4E65A2E6A
:10005000AAE06A2EAA27EE27F0E010E030E04AE09E
:1000600023E090E070E080E0E0FD21D0E1FD17C0EA
:10007000E2FD1FD002D0F82F1EC0903019F0913051
:1000800039F059F0820F84170CF40895842F05C0BD
:10009000821B83170CF00895832F00000CC01130D1
:1000A000E1F0123011F1133041F1143081F090E0A1
:1000B000089591E00895EE275F2F06D0103079F76C
:1000C000D3CF5F2F01D0D0CF62D070D0089510E091
:1000D00029982A982B98832FEECF2A9829982B9A23
:1000E0000E94FC00F42D342DE6CF2B9829982A9AF3
:1000F0000E94FC00F42D442DDECF2A982B98299ADB
:100100000E94FC004694469446944694F42D242D77
:10011000D2CFAF93AFB7AF93319BE160329B0E94D8
:100120009B00339BE460AF91AFBFAF911895AF9147
:10013000AFBFAF911895E26013950895503091F0DC
:10014000513091F0523091F0533091F0543091F0A1
:10015000553091F0563091F0573091F0583091F081
:10016000593091F050E012C050E810C050E40EC079
:1001700050EC0CC050E20AC050EA08C050E606C07D
:1001800050EE04C050E102C050E900C008950024C0
:1001900011242224551518F055190394FBCF561538
:1001A00018F056191394FBCF252E089500E00395FF
:1001B000502DC4DF5BB9289A5B985A9814D02898C0
:1001C000512DBCDF5BB95B9A28985A980CD05B988C
:1001D000522DB4DF5BB95A9A28985B9804D05A988C
:1001E000033228F30895A4E6B0E0BA95B030E9F7F9
:1001F000AA95A030D1F7089530927A0040907A0005
:0A02000044FEFCCF40907900089501
:00000001FF
