:100000000C9434000C9451000C9451000C94510049
:100010000C9451000C9451000C9451000C9451001C
:100020000C9451000C9451000C9451000C9451000C
:100030000C9451000C9451000C9451000C945100FC
:100040000C9451000C9451000C9451000C945100EC
:100050000C9451000C9451000C9451000C945100DC
:100060000C9451000C94510011241FBECFEFD8E026
:10007000DEBFCDBF11E0A0E0B1E0EAECFAE002C0E3
:1000800005900D92A834B107D9F721E0A8E4B1E0BA
:1000900001C01D92AA34B207E1F70E94CC030C9470
:1000A00063050C94000080E480937C0087E88093D3
:1000B0007A0080E380937E00089590917C008F7099
:1000C000907F892B80937C0080917A00806480935C
:1000D0007A0080917A0086FDFCCF80917800909123
:1000E000790008950E945D0023E0880F991F2A95EA
:1000F000E1F7892F86958695811102C081E00895E8
:10010000883008F087E008959BB19F709BB99BB140
:100110008295807F892B8BB95B9A85E08A95F1F770
:1001200000005B988FE891E00197F1F700C00000B4
:100130000895CF93C82F611591F05A9A8C2F82950C
:100140008F700E9484008C2F8F700E94840087EC37
:1001500090E00197F1F700C00000CF9108955A9800
:10016000EDCF8AB18C6F8AB92FEF83EF91E02150E8
:1001700080409040E1F700C000008BB183708BB9E4
:1001800083E00E9484008FE19EE40197F1F700C0B4
:10019000000083E00E94840087E592E00197F1F778
:1001A00000C0000083E00E94840082E00E9484007E
:1001B00060E088E20E94990060E08CE00E94990073
:1001C00060E086E00E94990060E081E00E94990072
:1001D0008FE39FE10197F1F700C00000089560E010
:1001E00081E00E9499008FE39FE10197F1F700C041
:1001F0000000089591E0811101C090E0892F82955F
:10020000880F880F807C860F60E080680C949900CE
:10021000CF93DF93EC018991811103C0DF91CF91DE
:10022000089561E00E949900F6CFEF92FF920F933C
:100230001F93CF93DF9300D000D0CDB7DEB7282F28
:1002400081110EC061E080E30F900F900F900F902E
:10025000DF91CF911F910F91FF90EF900C94990037
:10026000CE0101967C01FC0140E050E03AE08A01B9
:100270004F5F5F4F822F632F0E949804905D919390
:10028000922F282F9A3028F04330510581F702E051
:1002900010E00F5F1F4F0E0D1F1D06C061E0F8013B
:1002A00082918F010E9499000E151F05B9F70F90DA
:1002B0000F900F900F90DF91CF911F910F91FF90B2
:1002C000EF9008959C012115310509F408952A3015
:1002D000310548F08FE39CE90197F1F700C0000079
:1002E0002A503109F0CF8FE99FE00197F1F700C064
:1002F000000021503109E7CFCF93C62F2A980E94E2
:10030000C7038C2F0E94C7032A9ACF91089560E0FB
:100310008FE00E947C0160E089E00E947C0163E044
:100320008AE00E947C0167E08BE00E947C0161E032
:100330008CE00C947C01CF93C1E060E08C2F0E9494
:100340007C01CF5FC930C9F7CF910895FC01DC0172
:10035000A058BF4F83E08D9323E030E02D933D9371
:100360008083818392E09283838391E09483858369
:100370001D921D921D921D921D9288EC90E08D930E
:100380009C93E657FF4F1182108208950F931F939D
:10039000CF93DF9384E00E945D008C0185E00E9492
:1003A0005D00EC010C3281E0180738F482E090E047
:1003B00090930301809302010EC0053D124018F096
:1003C00083E090E0F5CFCC3281E0D807F8F41092CA
:1003D00003011092020180910201909103010097A4
:1003E000D9F420910001309101012130310529F427
:1003F0003093030120930201C9019093010180937E
:100400000001DF91CF911F910F910895C53DD2401A
:1004100010F381E090E0CCCF8130910539F4209148
:1004200000013091010121153105E1CF82309105A4
:1004300039F4209100013091010123303105D7CFEB
:1004400083309105D1F620910001309101012230D5
:100450003105CDCFFC0120819181892F822B8830FD
:1004600090F4DF01A058BF4F3C9181E0831710F05A
:1004700080E008954281421303C04381491719F077
:100480008F5F3296F3CF81E00895BF92CF92DF92D3
:10049000EF92FF920F931F93CF93DF93EC018C01A8
:1004A0000B571F4FF801B0809C0128573F4F69013F
:1004B000B114A9F0C657DF4F88819981F9012081D5
:1004C0003181820F931F99838883DF91CF911F9190
:1004D0000F91FF90EF90DF90CF90BF9008950E9412
:1004E000C6017C01FE01EF57FF4F91838083F60127
:1004F00020813181FE01EA57FF4F80819181820F77
:10050000931F883E43E0940718F49183808324C0AE
:1005100011821082FE01E058FF4F80818034E0F4A8
:100520008F5F8083339640815181465F5F4F518357
:1005300040832D33310580F08930C8F08031D0F010
:100540008A31D8F48FE090E0281B390B2C33310529
:10055000B8F0F6013183208398818981F2E0EF16AB
:10056000F10481F188F4EF2859F5815011C08AE037
:1005700090E0EACF8DE090E0E7CF82E190E0E4CF39
:100580008CE390E0F601C1CF33E0E316F104E1F033
:10059000292F282B2830D0F4FE01E058FF4FE081AE
:1005A000DE01EB111BC0E1509E012E0F311D2E0FFD
:1005B000311DF901CE17DF07E1F49883898385CFD8
:1005C0008F5FE6CF9150E4CF9F5FE2CF81E0F801EB
:1005D0008083C657DF4F1982188277CF2C91291359
:1005E00005C011962C911197281781F3B394129698
:1005F000D8CF3291229133832283DCCFCF92DF9206
:10060000EF92FF920F931F93CF93DF93CDB7DEB797
:1006100028970FB6F894DEBF0FBECDBF8C010E94A5
:100620009B01F801EB57FF4FF080F11409F451C022
:10063000809149018F5F80934901869586958370EB
:10064000811117C011E06FEF812F0E947C011F5FA5
:100650001930C9F728960FB6F894DEBF0FBECDBF8C
:10066000DF91CF911F910F91FF90EF90DF90CF908E
:100670000895813081F46FEF0E947C016FEF88E074
:100680000E947C0112E061E8812F0E947C011F5FC3
:100690001830C9F7DFCF11E0823099F481E011E022
:1006A000180F9CEF980F923028F46FEF0E947C0196
:1006B000812FF5CF68E10E947C01812F193079F7F5
:1006C000C9CF60E0812F0E947C011F5F1930C9F7FC
:1006D000C1CFFE01319688E0DF011D928A95E9F7CE
:1006E000D801A058BF4F5C91C80140E061E070E0C4
:1006F00054132DC0809148018F5F809348019BEA7D
:10070000899F812D112481FF16C05115A1F0D801B8
:100710008C9111962C91982F922B983060F4DF01D8
:10072000A20FB11D21E030E001C0220F8A95EAF747
:100730008C9182278C938F01F80161918F01F39442
:100740008F2D0E947C01F8E0FF12F6CF83CFDC01F1
:100750002C911196EC90322F3E29383068F4DF014D
:10076000AE0DB11D6B0102C0CC0CDD1C2A95E2F769
:1007700096013C91232B2C934F5F0296B9CF84B105
:100780008C6284B98CB581658CBD2A9A08958EBD22
:100790000DB407FEFDCF0895CDB7DEB7CC58D10913
:1007A0000FB6F894DEBF0FBECDBF0E94BF030E94FC
:1007B00087010E949B010E9453000E94B10080E0CB
:1007C0000E945D000E94F504CE0101966C010E941A
:1007D000A6010E94EF0060E080E00E94FA0088E03D
:1007E00091E00E94080160E081E00E94FA0084E14B
:1007F00091E00E94080108EC10E093E0F92EEC2C47
:100800008E2D9D2D0E9445028E2D9D2D0E94FE0253
:10081000CF57DF4F8881C158D0408F1111C0C757C3
:10082000DF4F88819981C958D0408017910741F4E2
:10083000CA57DF4F8881C658D040811509F457C088
:100840000E94EF00CA57DF4F8881C658D04060E051
:10085000811509F45AC080E00E94FA008EE191E00F
:100860000E94080160E081E00E94FA0089E291E0C4
:100870000E940801CF57DF4F8881C158D0400E94A5
:100880001501CF57DF4FF880C158D040C757DF4F11
:1008900008811981C958D040CA57DF4F8881C6588E
:1008A000D040811521F1C557DF4F88819981CB5800
:1008B000D040803D9740D8F08E2D9D2D0E94A601FE
:1008C0000E94EF0060E080E00E94FA008AE391E07D
:1008D0000E9408018FEF99E628E181509040204066
:1008E000E1F700C0000008EC10E083E0F82EC757E5
:1008F000DF4F88819981C958D0408B3F910598F08E
:100900008AEF90E00E9462017BCF80E00E94FA00B3
:1009100088E091E00E94080160E081E00E94FA0016
:1009200081E391E0A5CF8E31910560F78EE1E9CFAB
:10093000992778E0880F991F961708F0961B881F53
:100940007A95C9F7809508958F929F92AF92BF9242
:10095000CF92DF92EF92FF92CF93DF93EC01688109
:1009600079818A819B81611571058105910521F449
:1009700064E279ED8BE597E02DE133EF41E050E063
:100980000E94000549015A019B01AC01A7EAB1E4AC
:100990000E941F056B017C01ACEEB4EFA501940130
:1009A0000E942D05DC01CB018C0D9D1DAE1DBF1DD0
:1009B000B7FF03C00197A109B04888839983AA8330
:1009C000BB839F77DF91CF91FF90EF90DF90CF9027
:1009D000BF90AF909F908F9008950E94A4040895B7
:1009E00084E091E00E94A4040895A0E0B0E0809328
:1009F000040190930501A0930601B09307010895A7
:100A0000052E97FB1EF400940E94170557FD07D092
:100A10000E94320507FC03D04EF40C941705509544
:100A20004095309521953F4F4F4F5F4F08959095DA
:100A30008095709561957F4F8F4F9F4F08950E94CD
:100A40005405A59F900DB49F900DA49F800D911DFE
:100A500011240895B7FF0C941F050E941F05821BE7
:100A6000930B0895A1E21A2EAA1BBB1BFD010DC01A
:100A7000AA1FBB1FEE1FFF1FA217B307E407F5074E
:100A800020F0A21BB30BE40BF50B661F771F881F2A
:100A9000991F1A9469F760957095809590959B01C0
:100AA000AC01BD01CF010895A29FB001B39FC00169
:100AB000A39F700D811D1124911DB29F700D811D8A
:0A0AC0001124911D0895F894FFCF52
:100ACA000300030001000000536E616B652047615B
:100ADA006D6521004C656E6774683A2033004741A2
:100AEA004D45204F564552210046696E616C3A20A9
:100AFA00004C656E6774683A2000526573746172BF
:080B0A0074696E672E2E2E00A7
:00000001FF
