S016000061747630345F333731375F3235312E7372656337
S11300000C945A000C9477000C9477000C947700AD
S11300100C9450010C9477000C9477000C947700A6
S11300200C9477000C9477000C9477000C94770070
S11300300C9477000C9477000C942E010C947700A8
S11300400C9477000C9477000C9477000C94770050
S11300500C9477000C9477000C9477000C94770040
S11300600C9477000C9477000C9477000C94770030
S11300700C9477000C9477000C9477000C94770020
S11300800C9477000C9477000C9477000C94770010
S11300900C9477000C9477000C9477000C94770000
S11300A00C9477000C9477000C9477000C947700F0
S11300B00C94770011241FBECFEFD8E0DEBFCDBF74
S11300C011E0A0E0B1E0EAE3F6E002C005900D9291
S11300D0AA31B107D9F721E0AAE1B1E001C01D922C
S11300E0A132B207E1F70E94E8020C941B030C94BE
S11300F000009BB19F709BB92BB130E1839FC0017D
S11301001124822B8BB98BB188608BB985E08A95D9
S1130110F1F700008BB1877F8BB98FE891E00197ED
S1130120F1F700C000000895CF93DF93C82FD62FB6
S1130130662321F08BB184608BB903C08BB18B7FB4
S11301408BB98C2F82958F700E9479008C2F8F70C1
S11301500E947900D11109C0C43038F48FE39FE1C3
S11301600197F1F700C0000004C095ED9A95F1F7EE
S11301700000DF91CF9108958AB18C6F8AB92FEF77
S113018083EF91E0215080409040E1F700C00000EF
S11301908BB18B7F8BB983E00E9479008FE19EE461
S11301A00197F1F700C0000083E00E94790087E521
S11301B092E00197F1F700C0000083E00E9479000B
S11301C087E592E00197F1F700C0000082E00E9409
S11301D0790087E592E00197F1F700C0000060E044
S11301E088E20E94940060E088E00E94940060E04D
S11301F081E00E9494008FE39FE10197F1F700C032
S1130200000060E086E00E94940060E08CE00E94C0
S11302109400089560E081E00E9494008FE39FE1E0
S11302200197F1F700C000000895882311F080E4DD
S113023001C080E0860F60E080680E949400089509
S1130240CF93DF93EC0104C0219661E00E949400F7
S113025088818111F9CFDF91CF9108951F920F9278
S11302600FB60F9211248F939F9380911A0190914E
S11302701B018436910554F480911A0190911B015D
S1130280019690931B0180931A0103C084E6809326
S113029004019F918F910F900FBE0F901F9018959E
S11302A01F920F920FB60F9211248F9331990CC0A5
S11302B0809105018F5F8093050180910501833052
S11302C019F48FEF80930501329906C081E0809381
S11302D01D0180936E000BC010921D0110926E00E0
S11302E081E08093040110921B0110921A0133994A
S11302F006C081E080931C0180936E000BC01092B5
S11303001C0110926E0081E08093040110921B0185
S113031010921A018F910F900FBE0F901F90189595
S113032087B1817F87B988B18E6088B9089584B117
S11303308E6084B982EA809380008AE18093810090
S11303408FEF90E0909387008093860083E88093FA
S1130350B00081E08093B10082E084BD85E085BD7A
S113036010926E008EEF87BD0895809120018093D6
S1130370B30080911F0190E090938B0080938A00DA
S113038080911E0190E090938900809388000895E5
S1130390FF920F931F93CF93DF9300D01F92CDB79B
S11303A0DEB7833008F04BC0F42E162FE82FF0E0B0
S11303B0E95EFE4F608181E00E94150189E2189F89
S11303C0812D112482958F70805D89838DEC189F17
S11303D0912D1124969596959695989F812D11248B
S11303E0869586958695880F282F220F220F820FD7
S11303F0292F281B822F805D8A83990F892F880FCC
S1130400880F980F191B105D1B8300E010E00CC0CF
S1130410E1E0F0E0EC0FFD1FE00FF11F61E08081EF
S11304200E9494000F5F1F4F033011058CF3FF20CF
S113043011F08AE201C080E261E00E9494000F9012
S11304400F900F90DF91CF911F910F91FF9008951E
S11304509091030180912001981306C090910001AE
S113046080910501981771F0809105016091200138
S113047041E0811140E080E00E94C80180912001A8
S1130480809303019091020180911F01981306C08B
S11304909091000180910501981779F080910501F0
S11304A060911F0141E0813009F040E081E00E9449
S11304B0C80180911F0180930201909101018091F4
S11304C01E01981306C090910001809105019817B0
S11304D079F08091050160911E0141E0823009F0BC
S11304E040E082E00E94C80180911E0180930101D6
S11304F08091050180930001089580911D01813050
S113050089F580910501813091F08230F1F08111FB
S113051029C0809120018F3F29F19091040180919D
S11305202001890F809320010E94B5011BC0809196
S11305301F018F3FB9F09091040180911F01890F31
S113054080931F010E94B5010DC080911E018F3F51
S113055049F09091040180911E01890F80931E013E
S11305600E94B50180911C01813089F580910501BB
S1130570813091F08230F1F0811129C08091200105
S1130580882329F19091040180912001891B809393
S113059020010E94B501089580911F018823B9F0BC
S11305A09091040180911F01891B80931F010E9477
S11305B0B501089580911E01882349F090910401AA
S11305C080911E01891B80931E010E94B50108952C
S11305D00E9490010E94BC000E940A0160E080E039
S11305E00E94150186E091E00E9420018FEF809324
S11305F0030180930201809301018EEF8093000137
S11306000E94280282E080936800ECE6F0E080819A
S11306108E6080830E94970178940E9428022FEFB5
S113062081EE94E0215080409040E1F700C000004A
S10D06300E947D02F2CFF894FFCF80
S113063AFEFFFFFF01FF5245442020475245454E25
S10D064A2020424C55450000070C27
S9030000FC
