:100000000C9434000C9451000C9451000C94510049
:100010000C9451000C9451000C9451000C9451001C
:100020000C9451000C9451000C9451000C9451000C
:100030000C9451000C9451000C9451000C945100FC
:100040000C9451000C9451000C9451000C945100EC
:100050000C9451000C9451000C9451000C945100DC
:100060000C9451000C94510011241FBECFEFD8E026
:10007000DEBFCDBF11E0A0E0B1E0EEE6F4E002C0EB
:1000800005900D92A231B107D9F721E0A2E1B1E0CC
:1000900001C01D92A631B207E1F70E94B4010C9491
:1000A00035020C9400009BB19F709BB92BB130E1DD
:1000B000839FC0011124822B8BB98BB188608BB9CF
:1000C00085E08A95F1F700008BB1877F8BB935ED1C
:1000D0003A95F1F700000895CF93DF93C82FD62FFC
:1000E000662321F08BB184608BB903C08BB18B7F09
:1000F0008BB98C2F82958F700E9453008C2F8F703C
:100100000E945300D1110AC0C150C23038F48FE3AD
:100110009FE10197F1F700C0000004C095ED9A95AA
:10012000F1F70000DF91CF9108958AB18C6F8AB901
:100130002FEF83EF91E0215080409040E1F700C025
:1001400000008BB18B7F8BB983E00E9453008FE15D
:100150009EE40197F1F700C0000083E00E94530085
:1001600087E592E00197F1F700C0000083E00E946C
:10017000530087E592E00197F1F700C0000082E0AC
:100180000E94530087E592E00197F1F700C000005C
:1001900060E088E20E946C0060E088E00E946C00F1
:1001A00060E081E00E946C008FE39FE10197F1F72E
:1001B00000C0000060E086E00E946C0060E08CE01F
:1001C0000E946C00089560E081E00E946C008FE363
:1001D0009FE10197F1F700C000000895882311F016
:1001E00080E401C080E0860F60E080680E946C00BF
:1001F0000895CF93DF93EC0104C0219661E00E9443
:100200006C0088818111F9CFDF91CF910895CF9350
:10021000DF9300D000D0CDB7DEB799E2899F912D52
:10022000112492959F70905D99839DEC899F212D5B
:100230001124269526952695299F912D1124969572
:1002400096959695990F392F330F330F930F322FC1
:10025000391B932F905D9A83220F922F990F990F3C
:10026000290F821B805D8B831C82CE0101960E9428
:10027000F9000F900F900F900F90DF91CF9108959C
:1002800087B1817F87B988B18E6088B9089526B11A
:1002900030E0082E02C0359527950A94E2F720FD3C
:1002A00015C02FEF39EF40E0215030404040E1F7DA
:1002B00000C0000026B130E0A90102C05595479565
:1002C0008A95E2F740FD04C081E0089580E008953A
:1002D00080E008950E94E30060E080E00E94EE006C
:1002E00080E091E00E94F90060E081E00E94EE0071
:1002F00080911201811105C061E08FE50E946C00C0
:1003000004C061E080E20E946C00809115010E94AF
:10031000070180E191E00E94F90080911201813093
:1003200029F461E08FE50E946C0004C061E080E286
:100330000E946C00809114010E94070180E191E00D
:100340000E94F90080911201823029F461E08FE56A
:100350000E946C0004C061E080E20E946C00809109
:1003600013010E94070108950E9440010E94950018
:100370000E946A0181E00E944701882391F08091E8
:1003800012018F5F8093120180911201833010F06F
:10039000109212010E946A0181E00E9447018111BE
:1003A000FBCF82E00E944701882361F18091120116
:1003B000813071F018F08230A9F01DC080911501D4
:1003C0008F3FC9F0809115018F5F8093150113C095
:1003D000809114018F3F79F0809114018F5F809399
:1003E000140109C0809113018F3F29F080911301FE
:1003F0008F5F809313010E946A0182E00E9447018F
:100400008111FBCF83E00E944701882309F4B2CF1A
:1004100080911201813071F018F08230A9F01DC076
:10042000809115018823C9F0809115018150809336
:10043000150113C080911401882379F08091140173
:1004400081508093140109C080911301882329F001
:10045000809113018150809313010E946A0183E00F
:0E0460000E9447018111FBCF85CFF894FFCF9A
:10046E005245442020475245454E20424C554500AA
:02047E0020005C
:00000001FF
