:100000000C9434000C9451000C9451000C94510049
:100010000C9451000C9451000C9451000C9451001C
:100020000C9451000C9451000C9451000C9451000C
:100030000C9451000C9451000C9451000C945100FC
:100040000C9451000C9451000C9451000C945100EC
:100050000C9451000C9451000C9451000C945100DC
:100060000C9451000C94510011241FBECFEFD8E026
:10007000DEBFCDBF11E0A0E0B1E0EEE0F8E002C0ED
:1000800005900D92AC30B107D9F721E0ACE0B1E0BA
:1000900001C01D92AD30B207E1F70E9428030C9415
:1000A00005040C94000080E480937C0087E8809332
:1000B0007A0080E380937E00089590917C008F7099
:1000C000907F892B80937C0080917A00806480935C
:1000D0007A0080917A0086FDFCCF80917800909123
:1000E000790008950E945D0023E0880F991F2A95EA
:1000F000E1F7892F86958695811102C081E00895E8
:10010000883008F087E008959BB19F709BB99BB140
:100110008295807F892B8BB95B9A85E08A95F1F770
:1001200000005B988FE891E00197F1F700C00000B4
:100130000895CF93C82F611591F05A9A8C2F82950C
:100140008F700E9484008C2F8F700E94840087EC37
:1001500090E00197F1F700C00000CF9108955A9800
:10016000EDCF8AB18C6F8AB92FEF83EF91E02150E8
:1001700080409040E1F700C000008BB183708BB9E4
:1001800083E00E9484008FE19EE40197F1F700C0B4
:10019000000083E00E94840087E592E00197F1F778
:1001A00000C0000083E00E94840082E00E9484007E
:1001B00060E088E20E94990060E08CE00E94990073
:1001C00060E086E00E94990060E081E00E94990072
:1001D0008FE39FE10197F1F700C00000089560E010
:1001E00081E00E9499008FE39FE10197F1F700C041
:1001F0000000089591E0811101C090E0892F82955F
:10020000880F880F807C860F60E080680C949900CE
:10021000CF93DF93EC018991811103C0DF91CF91DE
:10022000089561E00E949900F6CFEF92FF920F933C
:100230001F93CF93DF9300D000D0CDB7DEB7282F28
:1002400081110EC061E080E30F900F900F900F902E
:10025000DF91CF911F910F91FF90EF900C94990037
:10026000CE0101967C01FC0140E050E03AE08A01B9
:100270004F5F5F4F822F632F0E94F903905D919330
:10028000922F282F9A3028F04330510581F702E051
:1002900010E00F5F1F4F0E0D1F1D06C061E0F8013B
:1002A00082918F010E9499000E151F05B9F70F90DA
:1002B0000F900F900F90DF91CF911F910F91FF90B2
:1002C000EF9008959C012436310538F42A30310529
:1002D00080F421153105B1F408954FEF81EE94E0DB
:1002E000415080409040E1F700C0000024563109A1
:1002F000EACF8FE39CE90197F1F700C000002A5094
:100300003109E4CF8FE99FE00197F1F700C00000C9
:1003100021503109DECFCF93C62F2A980E942303A4
:100320008C2F0E9423032A9ACF91089560E08FE0DA
:100330000E948B0160E089E00E948B0163E08AE00B
:100340000E948B0167E08BE00E948B0161E08CE0F2
:100350000C948B01CF93C1E060E08C2F0E948B0145
:10036000CF5FC930C9F7CF910895FC0183E0808B3E
:1003700023E030E0328B218B348B238B808381838D
:1003800092E09283838391E094838583168A158A11
:10039000178A80E293E0918F808F0895CF93DF9347
:1003A00084E00E945D00EC0185E00E945D009250B7
:1003B000D250BC0197FF04C066277727681B790BD2
:1003C000AE01D7FF04C0442755274C1B5D0B643199
:1003D000710534F44431510534F48FEF90E00DC0D1
:1003E000641775076CF480E090E0C531D1052CF4FA
:1003F00081E090E0CC3EDF4F84F7DF91CF9108950C
:100400008C3E2FEF92072CF045973CF382E090E072
:10041000F4CF83E090E0F1CFFC0120819181892F1E
:10042000822B883078F4308981E0831710F080E0E7
:1004300008954281421303C04381491719F08F5F29
:100440003296F3CF81E00895FF920F931F93CF93DD
:10045000DF93EC01FF88F1103EC00E94CE018C01B9
:100460008F3F910559F089899A8901151105B1F4D9
:10047000019721F0109301010093000120910001E8
:10048000309101013A8B298B888199812230310585
:1004900051F158F4232B29F591500AC00130110570
:1004A00059F50097E6CF0397E4CF23303105E9F003
:1004B000883008F080E0983008F4F92EE889E1509F
:1004C0009E012E0F311D2E0F311DF901CE17DF07B2
:1004D00071F48883F982DF91CF911F910F91FF9082
:1004E00008959F5FE5CF8150E3CF8F5FE1CF3291D9
:1004F000229133832283EACF02301105A1F20297C1
:10050000B8CFDF92EF92FF920F931F93CF93DF93B9
:10051000CDB7DEB728970FB6F894DEBF0FBECDBFBC
:100520007C010E94AA01F701D788D11409F450C0B8
:1005300080910C018F5F80930C0186958695837066
:10054000811116C011E06FEF812F0E948B011F5F98
:100550001930C9F728960FB6F894DEBF0FBECDBF8D
:10056000DF91CF911F910F91FF90EF90DF90089551
:10057000813081F46FEF0E948B016FEF88E00E9461
:100580008B0112E061E8812F0E948B011F5F183000
:10059000C9F7E0CF11E0823099F481E011E0180F43
:1005A0009CEF980F923028F46FEF0E948B01812FFF
:1005B000F5CF68E10E948B01812F193079F7CACFFE
:1005C00060E0812F0E948B011F5F1930C9F7C2CFF5
:1005D0008E010F5F1F4F88E0F80111928A95E9F7AD
:1005E000F7013089D70120E041E050E032130BC021
:1005F000F80161918F01D3948D2D0E948B01F8E059
:10060000DF12F6CFA7CF8C911196EC911197982F0E
:100610009E2B983068F4E00FF12FF11DBA0102C053
:10062000660F771F8A95E2F7CB019081892B808333
:100630002F5F1296DBCF84B18C6284B98CB5816553
:100640008CBD2A9A08958EBD0DB407FEFDCF089586
:10065000CDB7DEB76A970FB6F894DEBF0FBECDBF39
:100660000E941B030E9496010E94AA010E9453004F
:100670000E94B100CE0101962C010E94B501E12C2F
:10068000F12CA12CB12CC12CD12C00E010E0342C89
:10069000252C88EC482E512C0C5E1F4F94E1C90E7E
:1006A000D11CE4E1EE0EF11C888D81110CC0898D06
:1006B0009A8D0817190750F0832D922D0E9424025D
:1006C00000E010E003C0F4E1AF0EB11C888D811191
:1006D00066C02CEDC21625E0D20630F0898988303C
:1006E00008F446C0C12CD12C98E7E916F10408F4AF
:1006F00068C00E94EF0060E080E00E94FA0082E0A3
:1007000091E00E940801832C922C632C722CF12C16
:1007100085E091E00E9408018989F81608F05FC021
:10072000F30180810E941501F394F2E06F0E711CB9
:1007300028E0F212EDCF60E081E00E94FA0089E04B
:1007400091E00E940801F12C85E091E00E940801EF
:100750008989F81608F048C0F40181810E941501CA
:10076000F394F2E08F0E911C28E0F212EDCF27C037
:100770008F5F898B8E899F890A969F8B8E8B898D3F
:100780009A8D893C910508F4ADCF0697883C910578
:1007900018F09A8F898FA6CF5A8E498EA3CF80EBFF
:1007A000A81684E0B80608F49FCF832D922D0E94EE
:1007B000B501A12CB12CC12CD12C00E010E0E12C12
:1007C000F12C832D922D0E9481028FEF99EFE0E0B2
:1007D00081509040E040E1F700C000005DCF87E02D
:1007E00091E00E940801A0CF87E091E00E940801FB
:1007F000B7CF992778E0880F991F961708F0961BB6
:0E080000881F7A95C9F780950895F894FFCF68
:0C080E000300583A0020003000593A0066
:00000001FF
