:100000000C9434000C9451000C9451000C94510049
:100010000C9451000C9451000C9451000C9451001C
:100020000C9451000C9451000C9451000C9451000C
:100030000C9451000C9451000C9451000C945100FC
:100040000C9451000C9451000C9451000C945100EC
:100050000C9451000C9451000C9451000C945100DC
:100060000C9451000C94510011241FBECFEFD8E026
:10007000DEBFCDBF11E0A0E0B1E0EAE6F9E002C0EA
:1000800005900D92AC32B107D9F721E0ACE2B1E0B6
:1000900001C01D92AE32B207E1F70E9470030C94CA
:1000A000B3040C94000080E480937C0087E8809384
:1000B0007A0080E380937E00089590917C008F7099
:1000C000907F892B80937C0080917A00806480935C
:1000D0007A0080917A0086FDFCCF80917800909123
:1000E000790008950E945D0023E0880F991F2A95EA
:1000F000E1F7892F86958695811102C081E00895E8
:10010000883008F087E008959BB19F709BB99BB140
:100110008295807F892B8BB95B9A85E08A95F1F770
:1001200000005B988FE891E00197F1F700C00000B4
:100130000895CF93C82F611591F05A9A8C2F82950C
:100140008F700E9484008C2F8F700E94840087EC37
:1001500090E00197F1F700C00000CF9108955A9800
:10016000EDCF8AB18C6F8AB92FEF83EF91E02150E8
:1001700080409040E1F700C000008BB183708BB9E4
:1001800083E00E9484008FE19EE40197F1F700C0B4
:10019000000083E00E94840087E592E00197F1F778
:1001A00000C0000083E00E94840082E00E9484007E
:1001B00060E088E20E94990060E08CE00E94990073
:1001C00060E086E00E94990060E081E00E94990072
:1001D0008FE39FE10197F1F700C00000089560E010
:1001E00081E00E9499008FE39FE10197F1F700C041
:1001F0000000089591E0811101C090E0892F82955F
:10020000880F880F807C860F60E080680C949900CE
:10021000CF93DF93EC018991811103C0DF91CF91DE
:10022000089561E00E949900F6CFEF92FF920F933C
:100230001F93CF93DF9300D000D0CDB7DEB7282F28
:1002400081110EC061E080E30F900F900F900F902E
:10025000DF91CF911F910F91FF90EF900C94990037
:10026000CE0101967C01FC0140E050E03AE08A01B9
:100270004F5F5F4F822F632F0E94E803905D919341
:10028000922F282F9A3028F04330510581F702E051
:1002900010E00F5F1F4F0E0D1F1D06C061E0F8013B
:1002A00082918F010E9499000E151F05B9F70F90DA
:1002B0000F900F900F90DF91CF911F910F91FF90B2
:1002C000EF9008959C012436310538F42A30310529
:1002D00080F421153105B1F408954FEF81EE94E0DB
:1002E000415080409040E1F700C0000024563109A1
:1002F000EACF8FE39CE90197F1F700C000002A5094
:100300003109E4CF8FE99FE00197F1F700C00000C9
:1003100021503109DECFCF93C62F2A980E946B035C
:100320008C2F0E946B032A9ACF91089560E08FE092
:100330000E948B0160E089E00E948B0163E08AE00B
:100340000E948B0167E08BE00E948B0161E08CE0F2
:100350000C948B01CF93C1E060E08C2F0E948B0145
:10036000CF5FC930C9F7CF910895FC0183E0808B3E
:1003700023E030E0328B218B348B238B808381838D
:1003800092E09283838391E094838583168A158A11
:10039000178A118E108E8CED90E0938F828F158EC0
:1003A000148E0895CF93DF9384E00E945D00EC01EA
:1003B00085E00E945D00D2509250AE01D7FF04C08C
:1003C000442755274C1B5D0BBC0197FF04C06627D3
:1003D0007727681B790B483751052CF4683771056E
:1003E0006CF48FEF07C06417750744F4D038880B9E
:1003F00081958E5F90E0DF91CF91089580959095E3
:1004000097FB882780F9F6CFFC0120819181892F05
:10041000822B883078F4308981E0831710F080E0F7
:1004200008954281421303C04381491719F08F5F39
:100430003296F3CF81E008950F931F93CF93DF930C
:10044000EC018F89811551F08C8D9D8D88969D8F43
:100450008C8FDF91CF911F910F9108950E94D2014F
:100460008C018F3F910549F089899A890115110501
:10047000F1F4892B11F01C8B0B8B2B893C893A8B67
:10048000298B8A8D9B8D488D598D480F591F483572
:1004900062E05607A0F4598F488F988189812230F5
:1004A0003105A9F130F5232B81F5815025C00130AC
:1004B000110509F043C00197DDCF0397DBCF198EFB
:1004C000188E4889483048F74F5F488B4D895E89C0
:1004D000465F5F4F5E8B4D8B87349105F0F24297FC
:1004E0008634910518F09B8F8A8FD7CF86E490E0F1
:1004F000FACF2330310569F0292F282B283058F006
:1005000081E08F8B1D8E1C8EA4CF8F5FF5CF915015
:10051000F3CF9F5FF1CFE889E1509E012E0F311D8F
:100520002E0F311DF901CE17DF0719F49883898347
:1005300090CF3291229133832283F5CF023011057F
:1005400009F4BBCF029796CFCF92DF92EF92FF9242
:100550000F931F93CF93DF93CDB7DEB728970FB6D6
:10056000F894DEBF0FBECDBF8C010E94AA01D80156
:100570005796FC90F11409F451C080912D018F5FC2
:1005800080932D01869586958370811117C011E0A7
:100590006FEF812F0E948B011F5F1930C9F72896DA
:1005A0000FB6F894DEBF0FBECDBFDF91CF911F9184
:1005B0000F91FF90EF90DF90CF900895813081F4FC
:1005C0006FEF0E948B016FEF88E00E948B0112E0B9
:1005D00061E8812F0E948B011F5F1830C9F7DFCFC0
:1005E00011E0823099F481E011E0180F9CEF980F30
:1005F000923028F46FEF0E948B01812FF5CF68E1D4
:100600000E948B01812F193079F7C9CF60E0812FCB
:100610000E948B011F5F1930C9F7C1CFFE013196CF
:1006200088E0DF011D928A95E9F7D80150965C9128
:10063000C80140E061E070E054132DC080912C01AE
:100640008F5F80932C019BEA899F812D112481FF6C
:1006500016C05115A1F0D8018C9111962C91982FAC
:10066000922B983060F4DF01A20FB11D21E030E041
:1006700001C0220F8A95EAF78C9182278C938F0113
:10068000F80161918F01F3948F2D0E948B01F8E0A6
:10069000FF12F6CF84CFDC012C911196EC90322F13
:1006A0003E29383068F4DF01AE0DB11D6B0102C088
:1006B000CC0CDD1C2A95E2F796013C91232B2C9360
:1006C0004F5F0296B9CF84B18C6284B98CB58165D5
:1006D0008CBD2A9A08958EBD0DB407FEFDCF0895F6
:1006E000CDB7DEB76E970FB6F894DEBF0FBECDBFA5
:1006F0000E9463030E9496010E94AA010E94530077
:100700000E94B10080E00E945D000E944504CE017D
:1007100001966C010E94B50193E0F92EEC2C8E2D10
:100720009D2D0E941C028E2D9D2D0E94A402898960
:100730008F1103C0888D811539F10E94EF00888DDB
:1007400060E0811589F180E00E94FA0084E091E088
:100750000E94080160E081E00E94FA008FE091E0D1
:100760000E94080189890E941501F988888D8115E8
:1007700059F08D8D9E8D8830974030F08E2D9D2DB7
:100780000E94B50183E0F82E888D0EE181111EC014
:100790000B8D1C8D093181E01807A0F008E111E0F4
:1007A000C8010E946201BBCF80E00E94FA0087E18D
:1007B00091E00E94080160E081E00E94FA0083E27B
:1007C00091E0CECF0832110558F708E210E0E8CFEB
:1007D000992778E0880F991F961708F0961B881FB5
:1007E0007A95C9F7809508958F929F92AF92BF92A4
:1007F000CF92DF92EF92FF92CF93DF93EC0168816B
:1008000079818A819B81611571058105910521F4AA
:1008100064E279ED8BE597E02DE133EF41E050E0C4
:100820000E94500449015A019B01AC01A7EAB1E4BE
:100830000E946F046B017C01ACEEB4EFA501940142
:100840000E947D04DC01CB018C0D9D1DAE1DBF1DE2
:10085000B7FF03C00197A109B04888839983AA8391
:10086000BB839F77DF91CF91FF90EF90DF90CF9088
:10087000BF90AF909F908F9008950E94F4030895C9
:1008800080E091E00E94F4030895A0E0B0E080933E
:10089000000190930101A0930201B0930301089518
:1008A000052E97FB1EF400940E94670457FD07D0A5
:1008B0000E94820407FC03D04EF40C946704509508
:1008C0004095309521953F4F4F4F5F4F089590953C
:1008D0008095709561957F4F8F4F9F4F08950E942F
:1008E000A404A59F900DB49F900DA49F800D911D11
:1008F00011240895B7FF0C946F040E946F04821BAB
:10090000930B0895A1E21A2EAA1BBB1BFD010DC07B
:10091000AA1FBB1FEE1FFF1FA217B307E407F507AF
:1009200020F0A21BB30BE40BF50B661F771F881F8B
:10093000991F1A9469F760957095809590959B0121
:10094000AC01BD01CF010895A29FB001B39FC001CA
:10095000A39F700D811D1124911DB29F700D811DEB
:0A0960001124911D0895F894FFCFB3
:10096A000100000047414D45204F5645522100469F
:10097A00696E616C3A2000536E616B652047616D48
:0C098A006521004C656E6774683A20001F
:00000001FF
