:100000000C9434000C9451000C9451000C94510049
:100010000C9451000C9451000C9451000C9451001C
:100020000C9451000C9451000C9451000C9451000C
:100030000C9451000C9451000C9451000C945100FC
:100040000C9451000C9451000C9451000C945100EC
:100050000C9451000C9451000C9451000C945100DC
:100060000C9451000C94510011241FBECFEFD8E026
:10007000DEBFCDBF11E0A0E0B1E0EAE0F8E002C0F1
:1000800005900D92AA30B107D9F721E0AAE0B1E0BE
:1000900001C01D92AC30B207E1F70E946C030C94D2
:1000A00003040C94000080E480937C0087E8809334
:1000B0007A0080E380937E00089590917C008F7099
:1000C000907F892B80937C0080917A00806480935C
:1000D0007A0080917A0086FDFCCF80917800909123
:1000E000790008950E945D0023E0880F991F2A95EA
:1000F000E1F7892F86958695811102C081E00895E8
:10010000883008F087E008959BB19F709BB99BB140
:100110008295807F892B8BB95B9A85E08A95F1F770
:1001200000005B988FE891E00197F1F700C00000B4
:100130000895CF93C82F611591F05A9A8C2F82950C
:100140008F700E9484008C2F8F700E94840087EC37
:1001500090E00197F1F700C00000CF9108955A9800
:10016000EDCF8AB18C6F8AB92FEF83EF91E02150E8
:1001700080409040E1F700C000008BB183708BB9E4
:1001800083E00E9484008FE19EE40197F1F700C0B4
:10019000000083E00E94840087E592E00197F1F778
:1001A00000C0000083E00E94840082E00E9484007E
:1001B00060E088E20E94990060E08CE00E94990073
:1001C00060E086E00E94990060E081E00E94990072
:1001D0008FE39FE10197F1F700C00000089560E010
:1001E00081E00E9499008FE39FE10197F1F700C041
:1001F0000000089591E0811101C090E0892F82955F
:10020000880F880F807C860F60E080680C949900CE
:10021000CF93DF93EC018991811103C0DF91CF91DE
:10022000089561E00E949900F6CFEF92FF920F933C
:100230001F93CF93DF9300D000D0CDB7DEB7282F28
:1002400081110EC061E080E30F900F900F900F902E
:10025000DF91CF911F910F91FF90EF900C94990037
:10026000CE0101967C01FC0140E050E03AE08A01B9
:100270004F5F5F4F822F632F0E94F703905D919332
:10028000922F282F9A3028F04330510581F702E051
:1002900010E00F5F1F4F0E0D1F1D06C061E0F8013B
:1002A00082918F010E9499000E151F05B9F70F90DA
:1002B0000F900F900F90DF91CF911F910F91FF90B2
:1002C000EF9008959C012436310538F42A30310529
:1002D00080F421153105B1F408954FEF81EE94E0DB
:1002E000415080409040E1F700C0000024563109A1
:1002F000EACF8FE39CE90197F1F700C000002A5094
:100300003109E4CF8FE99FE00197F1F700C00000C9
:1003100021503109DECFCF93C62F2A980E94670360
:100320008C2F0E9467032A9ACF91089560E08FE096
:100330000E948B0160E089E00E948B0163E08AE00B
:100340000E948B0167E08BE00E948B0161E08CE0F2
:100350000C948B01CF93C1E060E08C2F0E948B0145
:10036000CF5FC930C9F7CF910895FC0183E0808B3E
:1003700023E030E0328B218B348B238B808381838D
:1003800092E09283838391E094838583168A158A11
:10039000178A118E108E84EF91E0938F828F158EC5
:1003A000148E08950F931F93CF93DF9384E00E94E0
:1003B0005D00EC0185E00E945D008C01C03981E0A8
:1003C000D80778F083E0C137D24028F481E00037C5
:1003D000124008F480E090E0DF91CF911F910F91DF
:1003E000089582E0F8CFFC0120819181892F822B32
:1003F000883078F4308981E0831710F080E0089528
:100400004281421303C04381491719F08F5F32962E
:10041000F3CF81E00895FF920F931F93CF93DF9363
:10042000EC01FF88F11459F08C8D9D8D88969D8F7D
:100430008C8FDF91CF911F910F91FF9008950E94B3
:10044000D2018C0189899A8901151105F1F401976E
:1004500011F01C8B0B8B2B893C893A8B298B8A8D55
:100460009B8D488D598D480F591F483E63E05607B4
:10047000A0F4598F488F9881898122303105A9F1E4
:1004800030F5232B81F5815025C00130110509F08D
:1004900051C00097DDCF0397DBCF198E188E4889A6
:1004A000483048F74F5F488B4D895E89465F5F4F04
:1004B0005E8B4D8B81359105F0F206978035910565
:1004C00018F09B8F8A8FD7CF80E590E0FACF23304A
:1004D000310569F0292F282B283058F081E08F8BC7
:1004E0001D8E1C8EA6CF8F5FF5CF9150F3CF9F5FEF
:1004F000F1CFE889DE01EF110DC0E1509E012E0F12
:10050000311D2E0F311DF901CE17DF0771F49883CD
:1005100089838FCF2C91291305C011962C911197A7
:100520002817E1F2F3941296E6CF329122913383A9
:100530002283EACF0230110509F4ADCF029788CFAC
:10054000CF92DF92EF92FF920F931F93CF93DF939F
:10055000CDB7DEB728970FB6F894DEBF0FBECDBF7C
:100560008C010E94AA01D8015796FC90F11409F45D
:1005700051C080910B018F5F80930B01869586950A
:100580008370811117C011E06FEF812F0E948B01E2
:100590001F5F1930C9F728960FB6F894DEBF0FBE5B
:1005A000CDBFDF91CF911F910F91FF90EF90DF9022
:1005B000CF900895813081F46FEF0E948B016FEF2F
:1005C00088E00E948B0112E061E8812F0E948B017C
:1005D0001F5F1830C9F7DFCF11E0823099F481E056
:1005E00011E0180F9CEF980F923028F46FEF0E94E3
:1005F0008B01812FF5CF68E10E948B01812F19308B
:1006000079F7C9CF60E0812F0E948B011F5F1930FD
:10061000C9F7C1CFFE01319688E0DF011D928A95AE
:10062000E9F7D80150965C91C80140E061E070E0C4
:1006300054132DC080910A018F5F80930A019BEAB9
:10064000899F812D112481FF16C05115A1F0D80179
:100650008C9111962C91982F922B983060F4DF0199
:10066000A20FB11D21E030E001C0220F8A95EAF708
:100670008C9182278C938F01F80161918F01F39403
:100680008F2D0E948B01F8E0FF12F6CF84CFDC01A2
:100690002C911196EC90322F3E29383068F4DF010E
:1006A000AE0DB11D6B0102C0CC0CDD1C2A95E2F72A
:1006B00096013C91232B2C934F5F0296B9CF84B1C6
:1006C0008C6284B98CB581658CBD2A9A08958EBDE3
:1006D0000DB407FEFDCF0895CDB7DEB76E970FB608
:1006E000F894DEBF0FBECDBF0E945F030E9496014B
:1006F0000E94AA010E9453000E94B100CE010196FF
:100700004C010E94B501F82CE92C8F2D9E2D0E94E2
:100710000B028F2D9E2D0E94A0020E94EF0060E030
:1007200080E00E94FA0080E091E00E940801CF2C56
:10073000DE2CAF2CBE2C912C83E091E00E940801AE
:1007400089899816A8F5F50180810E941501939476
:10075000F2E0AF0EB11C28E09212EECF60E081E033
:100760000E94FA0087E091E00E940801912C83E04A
:1007700091E00E94080189899816F8F4F6018181B8
:100780000E9415019394F2E0CF0ED11C28E0921242
:10079000EECF888D81111CC00B8D1C8D013981E03D
:1007A000180780F000E911E0C8010E946201ADCF96
:1007B00085E091E00E940801CACF85E091E00E94A7
:1007C0000801E0CF0837110578F708E710E0ECCF13
:1007D0008D8D9E8D803B944010F40CE3F7CF8F2DD0
:1007E0009E2D0E94B501888D8115B1F2F6CF992713
:1007F00078E0880F991F961708F0961B881F7A9546
:0A080000C9F780950895F894FFCF22
:0A080A00583A0020003000593A006F
:00000001FF
