:100000000C9434000C9451000C9451000C94510049
:100010000C9444020C9451000C9451000C94510027
:100020000C9451000C9451000C9451000C947302E8
:100030000C9451000C9451000C9451000C945100FC
:100040000C9451000C9451000C9451000C945100EC
:100050000C9451000C9451000C9451000C945100DC
:100060000C9451000C94510011241FBECFEFD8E026
:10007000DEBFCDBF11E0A0E0B1E0E6E8F8E002C0ED
:1000800005900D92AE35B107D9F721E0AEE5B1E0AC
:1000900001C01D92AC37B207E1F70E94BC030C947B
:1000A00041040C940000ECE7F0E010828081806451
:1000B0008083EAE7F0E01082808187688083109275
:1000C0007B000895FC0180917A00806480937A001F
:1000D00080917A0084FFFCCF80917A0080618093C8
:1000E0007A0080917800909179009183808385E3F4
:1000F0008A95F1F700000895611133C05A989BB1B9
:100100009F70282F207F922B9BB995E09A95F1F74D
:1001100000005B9A95E09A95F1F700005B9890EFEC
:100120009A95F1F72BB12F70982F9295907F922B83
:100130009BB995E09A95F1F700005B9A95E09A9546
:10014000F1F700005B9890EF9A95F1F7611108C004
:10015000843030F48FE39FE10197F1F700C0000095
:1001600008955A9ACCCF5A985B982FEF89EF90E078
:10017000215080409040E1F700C000008BB18F70AB
:1001800080638BB925E02A95F1F700005B9A85E042
:100190008A95F1F700005B9890EF9A95F1F78FE15F
:1001A0009EE40197F1F700C0000095E09A95F1F701
:1001B00000005B9A25E02A95F1F700005B9880EF3C
:1001C0008A95F1F78FE193E00197F1F700C0000005
:1001D00095E09A95F1F700005B9A25E02A95F1F7F2
:1001E00000005B9880EF8A95F1F78BB18F70806289
:1001F0008BB995E09A95F1F700005B9A25E02A9576
:10020000F1F700005B9880EF8A95F1F760E088E2F3
:100210000E947C0060E088E00E947C0060E081E059
:100220000E947C0060E08CE00E947C0060E080E83E
:100230000C947C00CF93DF93EC018991811103C072
:10024000DF91CF91089561E00E947C00F6CF0F937B
:100250001F93CF93DF93EC01FB019A01CA01019632
:1002600040E050E2642F70E04817190698F02E0F16
:100270003F1FD9011C922EEF280F0AE010E02097B3
:1002800079F4E20FF11D80E38083DF91CF911F911C
:100290000F9108956E0F7F1FDB015C934F5FE2CFDC
:1002A000CE01B8010E940B04DF01A20FB11D215045
:1002B000805D8C93CE01EB010A9790F7E6CF87B172
:1002C000817F87B988B18E6088B9089526B130E002
:1002D000A90102C0559547958A95E2F7CA01809514
:1002E00090958170089517B8389887B1817F87B944
:1002F00087B1806387B988B18E6088B91AB88AB12E
:100300008C6F8AB98FE384B982E0809368009EE0A5
:1003100090936C00109280009AE09093810010926C
:1003200085001092840080936F0080E197E29093A3
:10033000890080938800789408950F931F93CF933A
:10034000DF93EC018B01909164018091000198177B
:1003500041F060E081E00E947C0080916401809324
:10036000000180916401823009F458C008F040C057
:10037000811147C060E080E80E947C0081E291E04A
:100380000E941A012091650188819981820F911D37
:1003900027FD9A95883E23E09207D0F187EE93E0FF
:1003A0009983888343E050E06AE671E00E94270168
:1003B0008AE691E00E941A0160E08EE80E947C00CB
:1003C0008DE291E00E941A0160E080EC0E947C00C6
:1003D00080E391E00E941A0143E050E066E671E09C
:1003E000C8010E94270186E691E00E941A0102C01E
:1003F0008330E9F110926501DF91CF911F910F9148
:10040000089560E080E80E947C0086E391E0B8CF28
:100410008233910528F682E390E0C2CF60E080E865
:100420000E947C0083E491E00E941A012091650102
:1004300088819981820F911D27FD9A95883E23E03E
:100440009207E0F087EE93E09983888343E050E0E1
:100450006AE671E00E9427018AE691E00E941A0193
:1004600060E08EE80E947C008FE491E0ABCF60E01A
:1004700080E80E947C0082E591E0D6CF823391052E
:1004800018F782E390E0E0CF1F921FB61F9211246D
:100490002F938F939F932FEF80E792E0215080401E
:1004A0009040E1F700C0000086B181FD0AC08FEFE7
:1004B000809365019F918F912F911F901FBE1F9078
:1004C000189582FD02C081E0F3CF83FDF3CF8091C8
:1004D00064018F5F8093640180916401843050F3E4
:1004E00010926401E7CF1F921FB61F9211248F93C1
:1004F00081E08093610110928500109284008F91B9
:100500001F901FBE1F9018950F931F93CF93DF93DB
:10051000C0917A01D0917B01FE01EF2FFF27E69574
:10052000E695E695EF5FFE4F008166956058069F61
:1005300080011124A0E0B0E07727662720E23EE4A6
:1005400040E050E00E941F04C20FD31FD0937B01F4
:10055000C0937A01812FDF91CF911F910F91089560
:100560000F931F93CF93DF93C0917801D0917901BE
:100570008E01012F11270695069506950F5F1E4FD8
:100580006058770B7595679575956795660F771F1A
:10059000680F791F80E090E0CB017727662720E283
:1005A0003EE440E050E00E941F04C20FD31FD093EE
:1005B0007901C0937801F8018081DF91CF911F917B
:1005C0000F910895CF93DF93AC01262FC1E0D0E0C7
:1005D00041328EE4580730F480E29EE4BA010E9472
:1005E0000B04EB01E0917601F091770130E0CF014F
:1005F000BE010E940B046770C90102C095958795E2
:100600006A95E2F7BC018170209174013091750107
:1006100060FF09C0D901AB2FBB27A695A695A6956B
:10062000AF5FBE4F8C91305E319693E0CC0FDD1FF3
:100630009A95E1F7EC17FD0710F0E0E0F0E0309359
:10064000750120937401F0937701E0937601DF91B7
:10065000CF910895DF92EF92FF920F931F93CF9364
:10066000DF93AC01262F01E010E041328EE4580701
:1006700030F480E29EE4BA010E940B048B01C09129
:100680007201D091730130E0CE01B8010E940B04D9
:10069000677002C0359527956A95E2F768E978E0BA
:1006A00020FD02C060EB74E0E0907001F0907101F9
:1006B000F701EF2FFF27E695E695E695EF5FFE4FF2
:1006C000D08080E090E0CB017727662720E23EE4EF
:1006D00040E050E00E941F04E20EF31E219633E03A
:1006E000000F111F3A95E1F7C017D10710F0C0E0D5
:1006F000D0E0F0927101E0927001D0937301C09349
:1007000072018D2DDF91CF911F910F91FF90EF908E
:10071000DF900895982F9695969595B998B1829502
:1007200080739F7C892B88B908950F931F93CF9373
:10073000DF93C0916E01D0916F018E01012F1127BF
:100740000695069506950F5F1E4FA0E0B0E077274F
:10075000662720E23EE440E050E00E941F04C20F02
:10076000D31FD0936F01C0936E01F8018081DF9198
:10077000CF911F910F91089500D000D0CDB7DEB773
:100780000E9473010E9453000E94B3001C821B82CE
:1007900084E690E09A838983CE0103960E946200EA
:1007A00090916401923049F160F46B817C812981E0
:1007B0003A8191111EC0C9010E94840280935E019A
:1007C00002C0933009F180915E010E948A038091FA
:1007D0006101811551F06B817C814EE551E0CE01C4
:1007E00001960E949D011092610180EF8A95F1F7B8
:1007F000D3CFC9010E94B002E1CF6B817C81898196
:100800009A810E94E202DACF6B817C8189819A8190
:100810000E942A03D3CFAA1BBB1B51E107C0AA1F0A
:10082000BB1FA617B70710F0A61BB70B881F991F91
:100830005A95A9F780959095BC01CD010895A1E244
:100840001A2EAA1BBB1BFD010DC0AA1FBB1FEE1F4A
:10085000FF1FA217B307E407F50720F0A21BB30B95
:10086000E40BF50B661F771F881F991F1A9469F711
:1008700060957095809590959B01AC01BD01CF016D
:060880000895F894FFCF7B
:10088600FFFFFDF6EADAC7B19980674F3926160AE7
:100896000300030A1626394F678099B1C7DAEAF6CC
:1008A600FD4D6F643A20414D2020463A00487A00BB
:1008B6004D73673A20004D6F643A20464D2020461E
:1008C6003A20004D6F643A2041534B20543A00625F
:0E08D60073004D6F643A2046534B20543A0095
:00000001FF
