:020000020000FC
:0200000008C036
:1000100065C0209A539A529A549A559A569A579A6A
:10002000219A229A239A3898A0E6A0937C00A0E017
:10003000A0937B00A7E8A0937A00A2E0A0936800B9
:10004000AEE0A0936C007894A7EC3A2EAA27EE2796
:10005000F0E010E0E0FD0ED0E1FD04C0E2FD0DD0C7
:10006000F4E60EC01130F1F0123021F1133051F1ED
:10007000143091F0C0E0F3E00895C1E0F6E0089597
:10008000EE274F2F06D0103069F7E4CF4F2F01D065
:10009000E1CF62D072D0089510E029982A982B9869
:1000A000F0E0EECF2A9829982B9A0E94E300F42DD5
:1000B000342DE6CF2B9829982A9A0E94E300F42D3C
:1000C000542DDECF2A982B98299A0E94E30046945B
:1000D000469446944694F42DB42DD2CFAF93AFB747
:1000E000AF93319BE160329B0E948000339BE460C0
:1000F000AF91AFBFAF911895AF91AFBFAF911895CA
:10010000E26013950895403091F0413091F0423013
:1001100091F0433091F0443091F0453091F0463009
:1001200091F0473091F0483091F0493091F040E043
:1001300012C040E810C040E40EC040EC0CC040E2E9
:100140000AC040EA08C040E606C040EE04C040E1F4
:1001500002C040E900C0089500241124222494E63E
:10016000491718F0491B0394FBCF9AE0491718F080
:10017000491B1394FBCF242E089500E00395402DD6
:10018000C2DF4BB9289A5B985A9814D02898412D11
:10019000BADF4BB95B9A28985A980CD05B98422DDD
:1001A000B2DF4BB95A9A28985B9804D05A98033218
:1001B00028F30895A4E6B0E0BA95B030E9F7AA951F
:1001C000A030D1F7089530927A0040907A0044FE32
:0801D000FCCF40907900089576
:00000001FF
