:020000020000FC
:0200000008C036
:100010006AC0209A539A529A549A559A569A579A65
:10002000219A229A239A3898A0E6A0937C00A0E017
:10003000A0937B00A7E8A0937A00A2E0A0936800B9
:10004000AEE0A0936C007894EE27DD27F0E010E09E
:10005000C0E0E0FD0DD0E1FD03C0E2FD10D015C011
:10006000113029F1123059F1133089F11430C9F0EF
:10007000D395DF3F09F4DFEFFD2FEE270895D03051
:1000800009F0DA95FD2FEE270895EE274F2F06D0C1
:10009000103031F7DECF4F2F01D0DBCF62D072D0DE
:1000A000089510E029982A982B98F0E0EECF2A982E
:1000B00029982B9A0E94E800F22F322FE6CF2B9836
:1000C00029982A9A0E94E800F22F522FDECF2A9810
:1000D0002B98299A0E94E800269526952695269524
:1000E000F22FB22FD2CFAF93AFB7AF93319BE16076
:1000F000329B0E948500339BE460AF91AFBFAF910C
:100100001895AF91AFBFAF911895E2601395089520
:10011000403091F0413091F0423091F0433091F015
:10012000443091F0453091F0463091F0473091F0F5
:10013000483091F0493091F040E012C040E810C0E2
:1001400040E40EC040EC0CC040E20AC040EA08C0E7
:1001500040E606C040EE04C040E102C040E900C0F5
:10016000089566277727882794E6491718F0491BD2
:100170006395FBCF9AE0491718F0491B7395FBCFA5
:10018000842F089500E00395462FC2DF4BB9289ACB
:100190005B985A9814D02898472FBADF4BB95B9ACE
:1001A00028985A980CD05B98482FB2DF4BB95A9ACE
:1001B00028985B9804D05A98033228F30895A4E64F
:1001C000B0E0BA95B030E9F7AA95A030D1F708951C
:1001D00027EC20937A0020917A0024FFFCCF209115
:0401E0007900089505
:00000001FF
