:100000000C9434000C9451000C9451000C94510049
:100010000C9496020C9451000C94BC140C94510056
:100020000C9451000C9451000C9451000C947101EB
:100030000C9451000C9451000C9451000C945100FC
:100040000C9451000C9451000C9451000C945100EC
:100050000C9451000C9451000C9451000C945100DC
:100060000C9451000C94510011241FBECFEFD8E026
:10007000DEBFCDBF11E0A0E0B1E0ECEAFEE302C0DC
:1000800005900D92A634B107D9F721E0A6E4B1E0BE
:1000900001C01D92AA3DB207E1F70E94DE030C9455
:1000A0004B1F0C9400004F925F926F927F928F9241
:1000B0009F92AF92BF92CF92DF92EF92FF92682F02
:1000C00070E080E090E00E941B1D20E030E048ECF2
:1000D00052E42B013C01C301B2010E94781C20E0D4
:1000E00030E048EF51E44B015C01C501B4010E94CE
:1000F000A71D6B017C01C701B6010E94EA1C862F77
:10010000FF90EF90DF90CF90BF90AF909F908F9037
:100110007F906F905F904F9008959C0140E050E079
:1001200064E274EF80E090E00E94C41BC90108956E
:1001300080E387B908959BB19F709BB99BB182956D
:10014000807F892B8BB95B9A85E08A95F1F7000057
:100150005B988FE891E00197F1F700C000000895E7
:10016000CF93DF93C82FD62F6115B9F05A9A8C2FF1
:1001700082958F700E949B008C2F8F700E949B0035
:10018000D1110DC0C43058F48FE39FE10197F1F70E
:1001900000C00000DF91CF9108955A98E8CF95ED07
:1001A0009A95F1F7F6CF8AB18C6F8AB92FEF83EF6A
:1001B00091E0215080409040E1F700C000005A9843
:1001C00083E00E949B008FE19EE40197F1F700C05D
:1001D000000083E00E949B0087E592E00197F1F721
:1001E00000C0000083E00E949B0087E592E0019739
:1001F000F1F700C0000082E00E949B0087E592E0DA
:100200000197F1F700C0000060E088E20E94B000B2
:1002100060E088E00E94B00060E081E00E94B000F1
:100220008FE39FE10197F1F700C0000060E086E0F6
:100230000E94B00060E08CE00C94B00060E081E0CF
:100240000E94B0008FE39FE10197F1F700C000002A
:10025000089591E0811101C090E0892F8295880F67
:10026000880F807C860F60E080680C94B000CF938C
:10027000DF93EC018991811103C0DF91CF91089543
:1002800061E00E94B000F6CF0E94D3000E941E01E0
:1002900060E080E80E94B0008FE291E00E943701A8
:1002A00086E391E00E94550AF1CFCF93C82F64E610
:1002B0000E94B81B61E0805D0E94B0002AE08C2F94
:1002C000622F0E94B81BC92F0E94B81B61E080E317
:1002D000890F0E94B00061E080E38C0FCF910C94F5
:1002E000B0001F920F920FB60F9211244F925F929F
:1002F0006F927F928F929F92AF92BF92CF92DF9236
:10030000EF92FF922F933F934F935F936F937F935F
:100310008F939F93AF93BF93EF93FF93CF93DF930D
:10032000CDB7DEB76497DEBFCDBF80914B0181159D
:1003300009F4F8C080914C0190914D0182309105F3
:1003400009F4CFC070F4892B09F043C090914E019D
:1003500080914A019817D0F18FE385B980E388B97D
:1003600003C0039709F4CCC080914A018F5F80934A
:100370004A0180914A01803220F010924A01109285
:10038000460164960FB6F894DEBF0FBECDBFDF9175
:10039000CF91FF91EF91BF91AF919F918F917F91FD
:1003A0006F915F914F913F912F91FF90EF90DF9070
:1003B000CF90BF90AF909F908F907F906F905F9005
:1003C0004F900F900FBE0F901F90189515B818B84A
:1003D000CBCF80914A0190914E01981708F449C003
:1003E000F090460160914E0170E06F5F7F4F072EE5
:1003F000000C880B990B0E941B1D69837A838B83E9
:100400009C8329813A814B815C8160E070E08FE7B9
:1004100093E40E94781C6983C72ED82EE92E6F2D95
:1004200070E080E090E00E941B1D4B015C01A50183
:10043000940189818D83CE82DF82E8866D817E8101
:100440008F8198850E940C1C69877A878B879C878F
:1004500069857A858B859C850E94EA1C609346019C
:10046000809146018695869585B980914601807375
:1004700076CF6091460180914E01898370E080E0E3
:1004800090E00E941B1D4B015C0161E270E08981DC
:10049000681B7109072E000C880B990B0E941B1D0D
:1004A0002B013C01A301920160E070E08FE793E42F
:1004B0000E94781C6B017C01A70196018D869E86A7
:1004C000AF86B88A6D857E858F8598890E940B1CC2
:1004D000698B7A8B8B8B9C8B69897A898B899C89B8
:1004E000BBCF8091470190910101890F8093470113
:1004F000809147018695869585B980914701B7CF50
:10050000E0914A01F0E0E35FFE4F80818695869599
:1005100085B9E0914A01F0E0E35FFE4F808182956A
:10052000807FA5CF80E285B918B82BCF1F920F929C
:100530000FB60F9211242F933F934F935F936F93B6
:100540007F938F939F93AF93BF93EF93FF933399D1
:1005500006C080914B0191E0892780934B0131992E
:100560001BC0809100018F5F80930001809100018A
:10057000823061F144F4811559F0813001F18FEF3F
:100580008093000109C08330D1F783E090E019C067
:1005900010924D0110924C010E947E13FF91EF9139
:1005A000BF91AF919F918F917F916F915F914F918B
:1005B0003F912F910F900FBE0F901F90189581E0E3
:1005C00090E090934D0180934C01E6CF82E090E063
:1005D000F8CF0E94DB04809192018230D0F30E9418
:1005E0007E13F7CFA89588E190EC0FB6F894A89504
:1005F000809360000FBE909360000895CF93DF93C7
:1006000000D000D00F92CDB7DEB785E0782ECE01B6
:1006100001964C01682E592CE091C201F091C30162
:100620001081A12CB12C111529F00580F681E02D47
:10063000A080B1800E9449080E944F086C018091FF
:10064000BA019091BB01C816D90608F047C00E94B4
:100650006415D092BB01C092BA010E945F09D40117
:10066000E72D1D92EA95E9F740E050E0662D752DE3
:100670008091BE019091BF010E942319811561F202
:10068000898187FDF1CF0C811D81D8011A968D914A
:100690009C91892B21F0C80102960E9441130E946F
:1006A0004F087C018091BA019091BB01E816F906D0
:1006B00010F40E946415F092BB01E092BA01E98146
:1006C000E150E93088F60E2E000CFF0BE35BF04E94
:1006D000D80152968C9152970C94E31BD092BB0197
:1006E000C092BA01111551F0CA14DB0470F00E94D7
:1006F0005F09B601C5010E943A15B1CFE091C00172
:10070000F091C10141E08081811140E0B5016C1997
:100710007D098091BE019091BF010E949C1B0E94A7
:100720005F0981119CCF0E947E1399CF8160F801EF
:10073000828B2A813B8164857585620F731FA701B7
:10074000C8010E94E314811509F48ECFD801529696
:100750008C91529782FF12C06A817B811C968D9189
:100760009C91680F791FA701C8010E941615D80136
:100770005096ED91FC91C801099576CF8E7FF801D6
:10078000828BF5CF816052968C9352976A817B81E0
:100790001D967C936E931C976E0D7F1D9701A7018C
:1007A000C8010E94E31460CF81FD04C0C8010E940B
:1007B000D2145ACF8E7FF801828B56CF90E397B92F
:1007C00082E0809368002FE020936C002FE324B92F
:1007D00097B9109280009AE0909381001092820065
:1007E000109285001092840080936F002091040184
:1007F0003091050140E050E064E274EF80E090E069
:100800000E94C41B309389002093880078948091C3
:1008100006010E94530080934E010E94D300E12CF8
:10082000F12C01E020E030E040E850E065E371E0C9
:1008300084E491E00E9405050E94F207FFCFAF9289
:10084000BF92DF92EF92FF920F931F93CF93DF93AC
:10085000EC01D62EA0905D01B0905E0100917E016A
:1008600010917F01E0907C01F0907D0180914F011B
:100870009091500102960E944113CF3FDC0709F08E
:1008800042C0D11409F43FC0E0916101F0916201CE
:10089000A0914F01B09150011596FC93EE931497DF
:1008A000A0914F01B09150018481958117969C933E
:1008B0008E93169780914F0190915001A481B5813C
:1008C000029613969C938E93129780914F0190916C
:1008D0005001029695838483E0914F01F09150017D
:1008E00080E691E093878287809160018F5F80939B
:1008F0006001DF91CF911F910F91FF90EF90DF90FA
:10090000BF90AF900895CA0DDB1DE0914F01F091AB
:100910005001D383C28360914F01709150016E5F8B
:100920007F4FCA15DB0560F4C701DF91CF911F919E
:100930000F91FF90EF90DF90BF90AF900C94121347
:10094000C8010E9412138091540190915501C8175B
:10095000D90778F6D0935501C0935401CACFFC0152
:10096000828593858056914061F48489958921E040
:100970008337920731F0892B21F497A581E09130DC
:1009800009F480E00895E0917E01F0917F0180817B
:10099000811107C08FEF9FEF909355018093540111
:1009A0000895E0917E01F0917F010580F681E02DB0
:1009B00080819181F1CFCF93DF9380916901811183
:1009C00003C0DF91CF9108950FB6F8940F92E09194
:1009D0006F01F0917001C681D781CE0102960E940D
:1009E000411380915F01815080935F018091690183
:1009F0008150809369010F900FBE8F89988D0E945E
:100A0000D214CE010E94D214D8CF3F924F925F925F
:100A10006F927F928F929F92AF92BF92CF92DF920E
:100A2000EF92FF920F931F93CF93DF93482E392EAF
:100A30006B015A01522E132F3701CA010E94BF14B5
:100A40004C01892B99F48FEFDF91CF911F910F917A
:100A5000FF90EF90DF90CF90BF90AF909F908F90DE
:100A60007F906F905F904F903F90089580E390E06B
:100A70000E94BF14EC01892B09F4C6C080E3FE017B
:100A800011928A95E9F7988E8F8AA50165EA70E040
:100A9000C4010E94441FC5010197AF88B88CA80EFD
:100AA000B91EC114D10409F0B3C0043008F003E04A
:100AB0000E8B09A76E01F2E0CF0ED11CC6010E9479
:100AC000EE12CE010C960E94EE12D987C88784E000
:100AD00090E0801B91099D878C87DB8BCA8B452D0D
:100AE000512F642D732DC5010E946413998388834F
:100AF0006114710419F0F301D183C0830FB6F89427
:100B00000F9280915F018F5F80935F0180914F0111
:100B100090915001892B09F08AC0D0935001C09365
:100B20004F0180915F01813081F582E991E00E945F
:100B3000E0128BE991E00E94E01284EA91E00E94C9
:100B4000E0128DEA91E00E94E01289E891E00E94B3
:100B5000E01280E891E00E94E01283E791E00E94B9
:100B6000E0128AE691E00E94E01280E691E00E94A5
:100B7000E01289E891E090937F0180937E0180E804
:100B800091E090937D0180937C01809156018F5F6D
:100B900080935601EE8980915C018E1710F4E093EA
:100BA0005C0189E0E89FF00111249F012E563E4F21
:100BB000F901A181B281BD83AC8314968D919C9182
:100BC00015979F838E8314968D919C911597FC01A8
:100BD000D382C2821596DC92CE9214973B872A87E5
:100BE000F90180818F5F80830F900FBE80915B0140
:100BF000811541F0E0914F01F091500196898E8965
:100C0000981738F181E020CFC4010E94D2141BCF85
:100C1000F601DE0159969601205F3F4F81918D9339
:100C2000811519F02E173F07C9F718A63ECF8091FE
:100C30005B018111AACFE0914F01F09150018689AB
:100C40009E89981708F4A1CFD0935001C0934F010B
:100C50009CCF0E947E13D6CF0F931F93CF93DF9329
:100C6000EC010FB6F8940F92892B21F4C0914F013B
:100C7000D09150018E010E5F1F4FC8010E94411399
:100C80008C899D89892B21F0CE010C960E944113FD
:100C9000809156018F5F8093560180914F01909112
:100CA000500120915B01211559F18C179D0741F5E9
:100CB000B8018AE691E00E94F212809169018F5F8B
:100CC0008093690181E00F900FBE813039F08F89E8
:100CD000988D0E94D214CE010E94D21480915B01A3
:100CE000811549F080914F01909150018C179D071B
:100CF00011F40E947E13DF91CF911F910F910895FF
:100D000080915F01815080935F010E94C30480E065
:100D1000DACFFC010FB6F8940F92892B21F4E09101
:100D20004F01F091500186890F900FBE0895FC018C
:100D3000892B21F4E0914F01F091500186890895AB
:100D4000FC010FB6F8940F92892B21F4E0914F012A
:100D5000F091500181A50F900FBE0895FC01892BE1
:100D600021F4E0914F01F091500181A50895EF9297
:100D7000FF921F93CF93DF93EC01643008F063E0A0
:100D80000FB6F8940F92209721F4C0914F01D091A3
:100D9000500199A5691709F467C020914F0130915E
:100DA0005001961768F42C173D0741F0E0914F0170
:100DB000F091500111E08689861730F010E004C0F0
:100DC00011E02C173D07D1F78E89981711F086177F
:100DD00008F46E8B69A72C853D8537FD06C024E09D
:100DE00030E0261B31093D872C8729E0829FC00116
:100DF00011248E569E4F2A853B852817390789F581
:100E00007E0182E0E80EF11CC7010E944113EE89C9
:100E100080915C018E1710F4E0935C0129E0E29F61
:100E2000F00111249F012E563E4FF901A181B2819C
:100E3000BD83AC8314968D919C9115979F838E836F
:100E400014968D919C911597FC01F382E282159680
:100E5000FC92EE9214973B872A87F90180818F5F7D
:100E6000808311110E947E130F900FBEDF91CF91EE
:100E70001F91FF90EF9008950F931F93CF93DF93EF
:100E8000EC0180914F01909150018C179D0709F45E
:100E900046C0209709F443C00FB6F8940F92CE01D4
:100EA0000E94AF048115C9F18E010E5F1F4FC8016A
:100EB0000E9441138E8990915C01981710F48093E1
:100EC0005C0199E0899FF0011124AF014E565E4FFD
:100ED000FA01A181B281BD83AC8314962D913C911E
:100EE00015973F832E8314962D913C911597F90108
:100EF0001383028315961C930E9314975B874A877E
:100F0000FA0190819F5F9083E0914F01F091500131
:100F10009689981710F40E947E130F900FBEDF91F0
:100F2000CF911F910F910895EF92FF921F93CF934E
:100F3000DF93EC010E94AF04182F811509F450C013
:100F400080915101811145C0E0914F01F091500114
:100F50008E8996899817D8F581E0809358017E0193
:100F600082E0E80EF11CC7010E944113EE898091D6
:100F70005C018E1710F4E0935C0189E0E89FF001BA
:100F800011249F012E563E4FF901A181B281BD83EC
:100F9000AC8314968D919C9115979F838E831496A4
:100FA0008D919C911597FC01F382E2821596FC923B
:100FB000EE9214973B872A87F90180818F5F8083A7
:100FC000812FDF91CF911F91FF90EF90089510E056
:100FD000C6CFBE01645F7F4F83E791E00E94F212AB
:100FE00010E0EECFEF92FF920F93CF93DF93CDB748
:100FF000DEB760970FB6F894DEBF0FBECDBFA9E392
:10100000B1E0FE013196BF018D9181938111FCCF3A
:1010100082E5E82E81E0F82E00E020E030E04CE5AB
:1010200050E089EE92E00E940505813099F40E941B
:10103000AB15813079F4F8942FEF3FEF30935501E1
:101040002093540180935B0110925E0110925D0128
:101050000E948D1480912E0160960FB6F894DEBF29
:101060000FBECDBFDF91CF910F91FF90EF9008950C
:101070000E9463160E942C068091520190915301A8
:101080000E942C060E94DB04F89410925B010C94E1
:101090007213809151018F5F8093510108950FB6B3
:1010A000F8940F9280915D0190915E010F900FBEB8
:1010B000089580915D0190915E01089580915F0196
:1010C00008959C01892B21F420914F01309150010A
:1010D000C90149960895CF92DF92EF92FF921F9334
:1010E000CF93DF93809151018111DEC0C0915D01EA
:1010F000D0915E0121966E01D0935E01C0935D0197
:10110000CD2BB9F480917E0190917F0120917C01DB
:1011100030917D0130937F0120937E0190937D017A
:1011200080937C01809157018F5F809357010E94CB
:10113000C3048091540190915501C816D90608F452
:10114000B1C090E019E0E0917E01F0917F018081D3
:10115000811126C02FEF3FEF3093550120935401AA
:10116000E0914F01F091500130915801E689D9E0AA
:10117000ED9FF0011124EE56FE4F81E020812230D8
:1011800008F480E021E0311101C020E0822B892B9E
:10119000DF91CF911F91FF90EF90DF90CF90089556
:1011A000E0917E01F0917F010580F681E02D0680BF
:1011B000F781E02D22813381C216D30668F2C28501
:1011C000D3854481558126813781DA0115963C9378
:1011D0002E93149726813781D90113965C934E93F1
:1011E0001297AF014E5F5F4F69817A81641775076F
:1011F00011F43A832983138612868881815088836B
:10120000A489B5891097F9F0268537856089718999
:10121000E9017D836C8360897189EB013B832A83BB
:101220001196ED90FC9012979F01245F3F4FE216BC
:10123000F30621F412967C936E931197158A148A03
:101240008C9181508C93868920915C01281710F431
:1012500080935C01189FD0011124AE56BE4F1196A9
:101260002D913C91129735832483E9016C817D8116
:10127000778366836C817D81EB015B834A83E9011F
:101280005D834C83B387A2872C912F5F2C93E091D1
:101290004F01F091500121E03689381708F020E025
:1012A000922B51CF90E05CCF8091590190915A01DF
:1012B000019690935A018093590180E069CFEF9293
:1012C000FF920F931F93CF93DF930FB6F8940F9273
:1012D000809151018150809351018091510181157C
:1012E00051F080E00F900FBEDF91CF911F910F91D1
:1012F000FF90EF90089580915F01811591F34091E7
:10130000780150917901E0E0F0E069E071E08091CE
:101310007301811122C0EF2B11F00E94C304C09110
:101320005901D0915A01209761F011E00E946B0899
:101330008111109358012197C9F710925A01109208
:10134000590180915801811561F280914F0190916E
:1013500050010E947E1381E0C5CFDA011696ED910F
:10136000FC91A489B5898685978520893189EC010E
:101370003D832C83C089D1899B838A83CF010C96BE
:1013800011962D913C9112972817390721F4129646
:10139000DC93CE931197158A148A8C9181508C938B
:1013A000A285B3858481958126813781EC013D83B7
:1013B0002C83C681D7819B838A839F012E5F3F4FF9
:1013C00011968D919C9112978217930721F4129692
:1013D000DC93CE9311978C9181508C938689909158
:1013E0005C01981710F480935C01689FD001112470
:1013F000ED01CE56DE4F7E010980DA81C02DD58306
:10140000C4830C811D81178306830C811D81D80143
:1014100013963C932E9312973D832C83F386E2869A
:10142000E70198819F5F9883A0914F01B09150018F
:1014300056969C91981708F06ACF7093580167CF21
:101440000F931F93CF93DF93EC018B010E94490808
:1014500020915D0130915E0148815981CA01800F60
:10146000911F2417350790F48417950790F09983FE
:101470008883C0E00E945F09811102C00E947E1330
:101480008C2FDF91CF911F910F91089584179507AD
:1014900018F02817390758F79983888360E0821B72
:1014A000930B0E941F04C1E0E5CFCF93DF93EC01C3
:1014B000892B29F40E947E13DF91CF9108950E9419
:1014C000490860E0CE010E941F040E945F09811557
:1014D00089F3F2CFCF93DF93EC010E9449080FB656
:1014E000F8940F928091590190915A018C0F9D1F91
:1014F00090935A01809359010F900FBEDF91CF91C5
:101500000C945F0980915101811521F081E0809355
:10151000580108951092580180915C0149E0489F5C
:1015200090011124D901AE56BE4F9C91911529F11D
:101530001196ED91FC9112970280F381E02D1296A5
:10154000FC93EE9311972B563E4FE217F30741F4AD
:101550001596ED91FC9116971296FC93EE931197C8
:10156000268137813093500120934F0180935C0195
:1015700080914F019091500108958150D0CF0F93E9
:101580001F93CF93DF93EC010FB6F8940F92892B42
:1015900021F4C0914F01D09150018E010E5F1F4F79
:1015A000C8010E9441138C899D89892B21F0CE01AD
:1015B0000C960E944113B80180E691E00E94F2125D
:1015C0008FA5813009F41FA60F900FBE80915B019B
:1015D000811539F00FB6F8940F920E94C3040F9052
:1015E0000FBE80914F01909150018C179D0731F4EF
:1015F00080915B01811539F00E947E13DF91CF91BC
:101600001F910F91089590915F018091600198134F
:1016100005C01092500110924F01F0CFDF91CF9191
:101620001F910F910C94820ACF93DF93D62FC72F6F
:1016300060914F0170915001645F7F4F0E941213BF
:1016400061E08D2F9C2FDF91CF910C941F04CF93DD
:10165000DF93FC01A0914F01B091500170681D967D
:101660007C936E931C97A181B281C0914F01D09160
:101670005001BF87AE87C0914F01D09150011496A1
:101680008D919C911597998B888B20914F0130916A
:1016900050011496CD91DC911597245F3F4F3B8309
:1016A0002A8320914F0130915001245F3F4F1596BE
:1016B0003C932E931497A0914F01B09150015596F1
:1016C000FC93EE93549790819F5F908361E0CA01F1
:1016D000DF91CF910C941F04CF93DF93FC01CB01DA
:1016E000642FA181B281C0914F01D0915001BF8779
:1016F000AE87C0914F01D091500114962D913C912D
:101700001597398B288B20914F01309150011496F9
:10171000CD91DC911597245F3F4F3B832A83209125
:101720004F0130915001245F3F4F15963C932E930B
:101730001497A0914F01B09150015596FC93EE93F0
:10174000549720812F5F2083411511F08FEF9FEF79
:10175000DF91CF910C941F04CF93DF93DC0115969A
:10176000ED91FC910680F781E02DA489B5898685ED
:10177000978520893189EC013D832C83C089D189EB
:101780009B838A83CF010C9611962D913C911297E1
:101790002817390721F41296DC93CE931197158AF6
:1017A000148A2C9121502C9320915101211153C066
:1017B000A285B3858481958126813781EC013D83A3
:1017C0002C83C681D7819B838A83CF010296119691
:1017D0002D913C9112972817390721F41296DC932A
:1017E000CE9311972C9121502C93A68920915C01C6
:1017F0002A1710F4A0935C01D9E0AD9FD001112409
:10180000AD014E565E4FDA011196CD91DC91D58334
:10181000C4832C813D81378326832C813D81D9016E
:1018200013969C938E9312979D838C835387428744
:10183000EA0188818F5F8883A0914F01B0915001A8
:10184000868956969C91981730F581E080935801CF
:10185000DF91CF910895A0917401B0917501B78780
:10186000A68714962D913C911597318B208B149659
:10187000CD91DC9115979B838A8315969C938E93CB
:10188000149783E791E0958B848B809173018F5F30
:1018900080937301D1CF80E0DBCFCF93DF93DC0166
:1018A000706811967C936E931696ED91FC91179744
:1018B00018964D915C91199712962D913C91139722
:1018C00014968D919C911597E9019D838C831496B4
:1018D0008D919C911597EC013B832A83EA01298124
:1018E0003A812A173B0711F49A83898319961C922F
:1018F0001E921897DA018C9181508C93A285B38542
:101900008481958126813781EC013D832C83C681BA
:10191000D7819B838A839F012E5F3F4F11968D91C4
:101920009C9112978217930721F41296DC93CE9321
:1019300011978C9181508C93868990915C019817B6
:1019400010F480935C01D9E08D9FD0011124BD017A
:101950006E567E4FDB011196CD91DC91D583C48309
:101960004C815D81578346834C815D81DA011396FA
:101970003C932E9312973D832C8373876287EB01F0
:1019800098819F5F9883E0914F01F0915001968973
:10199000981718F481E080935801DF91CF91089552
:1019A000FC010FB6F8940F928091570180838091CB
:1019B0005D0190915E01928381830F900FBE089527
:1019C000FC0180915701808380915D0190915E01BF
:1019D000928381830895FC01DB010FB6F8940F9286
:1019E00040915D0150915E018D919C9111978F3FC7
:1019F0009807F9F021813281609157017081761743
:101A000049F04217530730F01D921C9281E00F906D
:101A10000FBE0895BA01621B730B68177907A0F710
:101A2000841B950B820F931F8D939C93CF010E9473
:101A3000E00C80E0ECCF81E0809358010895FC0138
:101A4000892B21F4E0914F01F09150010788F08D2E
:101A5000E02D80E090E02191253A09F0089501966B
:101A6000FACF80914F01909150010895811105C0E6
:101A700080914F0190915001089580E090E0089589
:101A800080915B01811539F09091510181E09111B4
:101A900080E0880F089581E008950F931F93CF93FE
:101AA000DF93EC01892B09F46EC08E89E0914F0120
:101AB000F09150019689891708F05CC02C853D850E
:101AC00037FD0BC0E0914F01F0915001968924E061
:101AD00030E0291B31093D872C8729E0829FC00116
:101AE00011248E569E4F2A853B8528173907D9F534
:101AF0008E010E5F1F4FC8010E944113E0914F01FC
:101B0000F0915001E689EE8B80915C018E1710F404
:101B1000E0935C0189E0E89FF00111249F012E56BB
:101B20003E4FF901A181B281BD83AC8314968D91A2
:101B30009C9115979F838E8314968D919C911597F8
:101B4000FC011383028315961C930E9314973B8715
:101B50002A87F90180818F5F808381E0DF91CF91B7
:101B60001F910F910895E0914F01F09150018689E6
:101B70008E8BF3CFE0914F01F091500181E029A5C8
:101B80009689291758F380E0E9CF0F931F93CF93DD
:101B9000DF93EC01892B31F480E0DF91CF911F912D
:101BA0000F9108958AA581508AA72E8999A5291792
:101BB00099F38111F1CF8E010E5F1F4FC8010E9472
:101BC0004113E9A5EE8B84E090E08E1B91099D877F
:101BD0008C8780915C018E1710F4E0935C0189E0A2
:101BE000E89FF00111249F012E563E4FF901A1817B
:101BF000B281BD83AC8314968D919C9115979F8380
:101C00008E8314968D919C911597FC01138302830A
:101C100015961C930E9314973B872A87F9018081B0
:101C20008F5F808381E0B9CF0F931F93CF93DF93B2
:101C3000EC01892B09F452C099A5961708F4962F48
:101C40008E89891709F44AC02AA5213009F046C0B7
:101C50009E8B2C853D8537FD06C024E030E0291B96
:101C600031093D872C8729E0829FC00111248E56BF
:101C70009E4F2A853B852817390781F58E010E5F17
:101C80001F4FC8010E944113EE8980915C018E179D
:101C900010F4E0935C0189E0E89FF00111249F01BA
:101CA0002E563E4FF901A181B281BD83AC831496BB
:101CB0008D919C9115979F838E8314968D919C9105
:101CC0001597FC011383028315961C930E931497AA
:101CD0003B872A87F90180818F5F8083DF91CF91D5
:101CE0001F910F910895E0914F01F091500184856B
:101CF0009585A0914F01B0915001E0914F01F09175
:101D0000500156964C9124E030E0241B3109358770
:101D10002487089580914F0190915001009721F000
:101D2000FC0122A52F5F22A70895CF92DF92EF92A8
:101D3000FF920F931F93CF93DF93C82F062F6A0153
:101D40000E9449080FB6F8940F92E0914F01F0916C
:101D50005001EC2EF12C84E0C89FE0011124EC0F1F
:101D6000FD1F83A594A5A5A5B6A5892B8A2B8B2B32
:101D700061F4E0914F01F0915001EE0DFF1D81E003
:101D800087A711E0C114D10409F410E00F900FBE31
:101D9000113021F461E0C6010E941F040E945F0916
:101DA000113021F4811102C00E947E130FB6F89405
:101DB0000F92E0914F01F0915001EC0FFD1F63A5D0
:101DC00074A585A596A5611571058105910561F03C
:101DD000E0914F01F0915001EC0FFD1F0115B1F0A2
:101DE00013A614A615A616A6E0914F01F091500176
:101DF000EE0DFF1D17A60F900FBEDF91CF911F9123
:101E00000F91FF90EF90DF90CF9008958B019C0190
:101E1000015011092109310903A714A725A736A7E5
:101E2000E3CF2F923F924F925F926F927F928F9269
:101E30009F92AF92BF92CF92DF92EF92FF920F9359
:101E40001F93CF93DF9300D00F92CDB7DEB7898376
:101E50002A013B01480159011701CA82DB820E9415
:101E600049080FB6F8940F92E0914F01F09150019C
:101E70008981082F10E0E80FF11D87A5823049F114
:101E8000E0914F01F0915001C801880F991F880F10
:101E9000991FE80FF91F83A594A5A5A5B6A54094A1
:101EA00050946094709484219521A621B72183A732
:101EB00094A7A5A7B6A7E0914F01F0915001E00FBC
:101EC000F11F81E087A777247394EA81FB81EF2BD0
:101ED00009F4712C0F900FBEF1E07F1205C061E094
:101EE0008A819B810E941F040E945F0991E0791200
:101EF00004C0811102C00E947E130FB6F8940F92A5
:101F000021143104A1F0E0914F01F0915001C8017A
:101F1000880F991F880F991FE80FF91F83A594A5B3
:101F2000A5A5B6A5F10180839183A283B383E09137
:101F30004F01F0915001E00FF11F87A5823009F0A9
:101F40003BC0E0914F01F0915001C801880F991FEB
:101F5000880F991FE80FF91F83A594A5A5A5B6A51D
:101F600080949094A094B09488219921AA21BB21B7
:101F700083A794A7A5A7B6A781E0E0914F01F091B0
:101F80005001E00FF11F17A60F900FBE0F900F909A
:101F90000F90DF91CF911F910F91FF90EF90DF9005
:101FA000CF90BF90AF909F908F907F906F905F90F9
:101FB0004F903F902F90089580E0DFCF8F929F92B7
:101FC000AF92BF92CF92DF92EF92FF920F931F9347
:101FD000CF93DF93DC0149015A01F8010FB6F89461
:101FE0000F9270E0E114F10489F0CB01880F991F82
:101FF000880F991F8A0F9B1FEC010BA51CA52DA50F
:102000003EA5E701088319832A833B83ED01C60FB0
:10201000D71F8FA592E09FA7E330F10509F478C0A0
:1020200008F071C0E130F10509F47EC0329709F47F
:102030008FC0813009F057C01A96ED91FC911B9723
:1020400014968D919C91159716962D913C9117970A
:10205000EC013D832C831696CD91DC9117979B83E1
:102060008A839D012E5F3F4F818192818217930762
:1020700011F4D283C18380818150808356968C91E4
:10208000569790915C01981710F480935C01D9E009
:102090008D9FF0011124BF016E567E4FFB01C1815F
:1020A000D2811596DC93CE9314974C815D8117965F
:1020B0005C934E9316974C815D81FA0133832283A2
:1020C0003D832C831B967C936E931A97EB0198812A
:1020D0009F5F9883E0914F01F09150019689981786
:1020E00010F40E947E1381E00F900FBEDF91CF911C
:1020F0001F910F91FF90EF90DF90CF90BF90AF9026
:102100009F908F900895349709F093CF823081F19A
:10211000660F771F660F771FFD01E60FF71F83A677
:1021200094A6A5A6B6A685CF660F771F660F771F64
:10213000FD01E60FF71F43A554A565A576A548291F
:1021400059296A297B2943A754A765A776A771CF88
:10215000660F771F660F771FFD01E60FF71F43A578
:1021600054A565A576A54F5F5F4F6F4F7F4FEBCFAF
:1021700080E0BACF4F925F926F927F928F929F9240
:10218000AF92BF92CF92DF92EF92FF920F931F9385
:10219000CF93DF93FC0129013A01D801460170E099
:1021A000E114F10489F0CB01880F991F880F991F62
:1021B0008E0F9F1FEC010BA51CA52DA53EA5E701C9
:1021C000088319832A833B839F01260F371FE90168
:1021D0008FA592E09FA7A330B10509F47EC008F057
:1021E00076C0A130B10509F486C0129709F49BC0EE
:1021F000813009F05AC0809151018111A6C0A28599
:10220000B3852481358186819781E9019D838C8303
:1022100086819781EC013B832A839F012E5F3F4F8C
:1022200011964D915C9112974217530721F4129623
:102230009C938E9311978C9181508C93A689809159
:102240005C018A1710F4A0935C01D9E0AD9FD00126
:102250001124AE56BE4F11968D919C911297958385
:102260008483EC014C815D81578346834C815D8181
:10227000EA013B832A83EC013D832C83B387A28749
:102280008C918F5F8C93A0914F01B0915001868902
:1022900056969C91981748F48114910419F081E0A6
:1022A000F401808381E08093580181E0DF91CF9138
:1022B0001F910F91FF90EF90DF90CF90BF90AF9064
:1022C0009F908F907F906F905F904F90089514979C
:1022D00009F08ECF823009F45BC0660F771F660F5E
:1022E000771FDF01A60FB71F9B964D925D926D92EF
:1022F0007C929E977DCF660F771F660F771FDF0159
:10230000A60FB71F9B964D915D916D917C919E9705
:1023100044295529662977299B964D935D936D93A2
:102320007C939E9765CF660F771F660F771FDF013F
:10233000A60FB71F9B964D915D916D917C919E97D5
:102340004F5F5F4F6F4F7F4FE7CFA0917401B09108
:102350007501B787A68714968D919C911597918BDF
:10236000808B14962D913C911597CF010C96E90125
:102370009B838A8315969C938E93149783E791E0B1
:10238000958B848B809173018F5F809373017BCFDA
:1023900080E08CCF0F931F93CF93DF93FC018A01D2
:1023A000DC01A60FB11D9F968C919F9792E09F969E
:1023B0009C9394E0699FD0011124AE0FBF1F9B96A0
:1023C0004D915D916D917C919E974F5F5F4F6F4FE7
:1023D0007F4F9B964D935D936D937C939E97813039
:1023E00009F05AC08091510181115BC0A285B3856B
:1023F0002481358186819781E9019D838C83868143
:102400009781EC013B832A839F012E5F3F4F1196FA
:102410004D915C9112974217530721F412969C93A9
:102420008E9311978C9181508C93A68980915C0139
:102430008A1710F4A0935C01D9E0AD9FD00111245C
:10244000AE56BE4F11968D919C91129795838483C1
:10245000EC014C815D81578346834C815D81EA01AB
:102460003B832A83EC013D832C83B387A2878C9125
:102470008F5F8C93A0914F01B09150018689569641
:102480009C91981748F40115110519F081E0F801A5
:10249000808381E080935801DF91CF911F910F914C
:1024A0000895A0917401B0917501B787A68714961D
:1024B0008D919C911597918B808B14962D913C91C9
:1024C0001597CF010C96E9019B838A8315969C93FF
:1024D0008E93149783E791E0958B848B80917301A1
:1024E0008F5F80937301C6CFFC01892B21F4E091AB
:1024F0004F01F09150010FB6F8940F92E60FF11DC5
:1025000087A5823029F417A681E00F900FBE0895A9
:1025100080E0FBCFCF92DF92EF92FF920F931F9359
:10252000FC0169017A01892B21F4E0914F01F091BE
:1025300050010FB6F8940F9284E0689FB001112407
:10254000E60FF71F63A574A585A596A503A514A599
:1025500025A536A5C094D094E094F094C022D12251
:10256000E222F322C3A6D4A6E5A6F6A60F900FBEDC
:102570001F910F91FF90EF90DF90CF9008951092F0
:10258000500110924F011092690110925F01109258
:102590005E0110925D0110925C0110925B0110923D
:1025A0005A0110925901109258011092570110923D
:1025B0005601109255011092540110925101089544
:1025C000FC010396928381832FEF3FEF34832383B3
:1025D000968385839087878310820895FC011186F6
:1025E00010860895CF93DF939C01FB01DC011196C7
:1025F000CD91DC91D383C2838C819D81958384832B
:102600008C819D81DC0113967C936E9312977D8360
:102610006C8331872087F90180818F5F8083DF9110
:10262000CF910895CF93DF93DC01FB0120813181AD
:102630002F3F3207C9F417966D917C911897EB01E3
:102640008A819B8193838283EC01FD83EC83758374
:102650006483EB01FB83EA83B187A0878C918F5F52
:102660008C93DF91CF910895CD010396BC01EC01CD
:102670008A819B81EC014881598124173507B0F785
:10268000DECFCF93DF93FC01A085B185828193815A
:1026900024813581EC013D832C83C481D5819B83CA
:1026A0008A8311968D919C9112978E179F0721F422
:1026B0001296DC93CE931197118610868C918150DF
:1026C0008C93DF91CF910895FC016083DC017E93B0
:1026D0001E9280E88E931E9257974C935E93CF0183
:1026E000839708950FB6F894A8958091600088614B
:1026F00080936000109260000FBE08950F920FB695
:10270000F8940F921F9211242F923F924F925F9252
:102710006F927F928F929F92AF92BF92CF92DF92F1
:10272000EF92FF920F931F932F933F934F935F93DB
:102730006F937F938F939F93AF93BF93CF93DF93C9
:10274000EF93FF93A0914F01B09150010DB60D9200
:102750000EB60D920E94820AA0914F01B0915001D5
:10276000CD91CDBFDD91DEBFFF91EF91DF91CF9194
:10277000BF91AF919F918F917F916F915F914F9199
:102780003F912F911F910F91FF90EF90DF90CF908D
:10279000BF90AF909F908F907F906F905F904F9081
:1027A0003F902F901F900F900FBE0F9008950F92A3
:1027B0000FB6F8940F921F9211242F923F924F92CE
:1027C0005F926F927F928F929F92AF92BF92CF92C1
:1027D000DF92EF92FF920F931F932F933F934F93AC
:1027E0005F936F937F938F939F93AF93BF93CF9399
:1027F000DF93EF93FF93A0914F01B09150010DB67D
:102800000D920EB60D920E94820AA0914F01B091D6
:102810005001CD91CDBFDD91DEBFFF91EF91DF91F2
:10282000CF91BF91AF919F918F917F916F915F9168
:102830004F913F912F911F910F91FF90EF90DF905B
:10284000CF90BF90AF909F908F907F906F905F9050
:102850004F903F902F901F900F900FBE0F901895A4
:102860000F920FB6F8940F921F9211242F923F925D
:102870004F925F926F927F928F929F92AF92BF9290
:10288000CF92DF92EF92FF920F931F932F933F937C
:102890004F935F936F937F938F939F93AF93BF9368
:1028A000CF93DF93EF93FF93A0914F01B09150012D
:1028B0000DB60D920EB60D9213BE0E946B088111DB
:1028C0000E94820AA0914F01B0915001CD91CDBFDD
:1028D000DD91DEBFFF91EF91DF91CF91BF91AF917D
:1028E0009F918F917F916F915F914F913F912F9128
:1028F0001F910F91FF90EF90DF90CF90BF90AF901E
:102900009F908F907F906F905F904F903F902F900F
:102910001F900F900FBE0F9008950E94F202A09199
:102920004F01B0915001CD91CDBFDD91DEBFFF9140
:10293000EF91DF91CF91BF91AF919F918F917F9157
:102940006F915F914F913F912F911F910F91FF9048
:10295000EF90DF90CF90BF90AF909F908F907F903F
:102960006F905F904F903F902F901F900F900FBEF1
:102970000F90089581E008950E9430141895CF9328
:10298000DF93D82FC92F0E9449088D2F9C2F0E94BA
:10299000141ED82FC92F0E945F098D2F9C2FDF9105
:1029A000CF910895CF93DF93EC01892B49F00E94DA
:1029B0004908CE010E94AA1EDF91CF910C945F09B5
:1029C000DF91CF9108950F931F93CF93DF93FC0175
:1029D000DA01738362839187808746175707B0F0C7
:1029E000A21BB30B84859585A817B907E8F4BF012E
:1029F0006E5F7F4F8091C0019091C1010E941213C0
:102A000080E0DF91CF911F910F91089542175307F6
:102A100018F46217730740F4BF016E5F7F4F809117
:102A2000C2019091C301EACF81E0EBCFEF92FF9218
:102A30000F931F93CF93DF93EC018B017A016C8589
:102A40007D85600F711F9801A701CE010E94E314DC
:102A5000811107C0DF91CF911F910F91FF90EF90EF
:102A600008958C859D85080F191FE889F989CE0185
:102A70000995E5CFEF92FF920F931F93CF93DF93CA
:102A80008C017B01E091C201F091C3010580F681C8
:102A9000E02DC681D781CE0102960E9441132A897A
:102AA00022FF0FC0A701B801CE010E941615E889C8
:102AB000F989CE01DF91CF911F910F91FF90EF9097
:102AC00009942E7F2A8BF3CFE091C201F091C301CC
:102AD000808181110DC08091C0019091C1019093BE
:102AE000C3018093C201F093C101E093C001089536
:102AF0000580F681E02D6FEF7FEF808191810E944C
:102B00003A15E2CF0FB6F8940F928091BE019091E2
:102B1000BF01892BE9F48DEC91E00E94E01284EC76
:102B200091E00E94E0128DEC91E09093C3018093BC
:102B3000C20184EC91E09093C1018093C00140E018
:102B400065E08AE00E94B2179093BF018093BE01B6
:102B50000F900FBE0895EF92FF920F930E9482157F
:102B60008091BE019091BF01892B99F08CEBE82EEA
:102B700081E0F82E03E020E030E04CE550E06EE329
:102B800071E08EEF92E00E9405050F91FF90EF90AB
:102B9000089580E0FACF9F92AF92BF92CF92DF92DA
:102BA000EF92FF920F931F93CF93DF93982EA92E4E
:102BB000B62EC72EF42ED22EE32E83E190E00E9493
:102BC000BF14EC01892BA1F01A8A0E948215988209
:102BD000A982BC86CD86DE86EF86088B198BCE0156
:102BE00002960E94EE12F11419F08A8984608A8B91
:102BF000CE01DF91CF911F910F91FF90EF90DF9069
:102C0000CF90BF90AF909F9008950F931F93CF9355
:102C1000DF9300D000D00F92CDB7DEB72091BE0178
:102C20003091BF01232B59F480E00F900F900F904B
:102C30000F900F90DF91CF911F910F9108956983AD
:102C40004A835B838C839D83663074F70E94400DBA
:102C5000282F8091BE019091BF01223041F420E0E5
:102C6000A801BE016F5F7F4F0E94EE17DECF20E00C
:102C700040E050E0F6CFCF93DF9300D000D00F922A
:102C8000CDB7DEB7F42FE52FA901A091BE01B09119
:102C9000BF01109749F480E00F900F900F900F90B4
:102CA0000F90DF91CF9108956983FA83EB838C8332
:102CB0009D83663084F320E0BE016F5F7F4FCD01BE
:102CC0000E94C118E9CF8091BC019091BD01089587
:102CD000FC01848595850895FC010FB6F8940F9248
:102CE0008289611529F08460828B0F900FBE089550
:102CF0008B7FFACFFC010FB6F8940F92828982FB8A
:102D0000882780F90F900FBE08950C947A16FC0165
:102D1000828193810895FC01808191810895FC0155
:102D20000FB6F8940F92828981700F900FBE0895AC
:102D3000FC010FB6F8940F92868597850F900FBE11
:102D40000895FC010FB6F8940F92668777870F906D
:102D50000FBE08951092BF011092BE011092BD01E6
:102D60001092BC010895FC010FB6F8940F92928D59
:102D70000F900FBE81E0911180E008950F931F9393
:102D8000CF93DF93EC01042F1A8D8C8D811111C02C
:102D900088819981892B09F58C819D810E94C50DBF
:102DA0001D821C821F5F1A8FDF91CF911F910F919F
:102DB0000895482F50E0011117C08A819B810E941D
:102DC0003B1F2C8D8A819B81820F911D9B838A835F
:102DD0002C813D818217930710F480E0E3CF888136
:102DE00099819B838A83F9CF8E819F810E943B1FAB
:102DF0002C8D30E044275527421B530B8E819F8139
:102E0000821B930B9F838E832881398182179307BE
:102E100030F48C819D81840F951F9F838E830230B7
:102E2000E1F61115D1F21150D8CFFC01CB01248D60
:102E3000211599F0422F50E066817781620F711D54
:102E400077836683248135816217730720F0608160
:102E50007181778366830C943B1F0895EF92FF92F4
:102E60001F93CF93DF93EC010FB6F8940F921E8D52
:102E70007C0181E1E80EF11C11161CF48989811195
:102E80001BC08FEF8E8F0F900FBE0FB6F8940F926E
:102E90001D8D7E0188E0E80EF11C11161CF488855A
:102EA000811112C08FEF8D8F0F900FBEDF91CF91E8
:102EB0001F91FF90EF900895C7010E94AC0B811104
:102EC0000E941B0D1150D8CFC7010E94AC0B81117D
:102ED0000E941B0D1150E1CFCF93DF93EC01892BA2
:102EE00009F43EC08B8D811509F43AC00FB6F894F1
:102EF0000F92888199812B8D4C8DFC01249FE00DD0
:102F0000F11D1124FD83EC831A8E9B838A8321504B
:102F1000330B429FF001439FF00D11248E0F9F1F32
:102F20009F838E838FEF8D8F8E8F611110C0888568
:102F3000811539F0CE0108960E94AC0B81110E94D8
:102F40007E130F900FBE81E0DF91CF910895CE01E7
:102F500008960E94E012CE0141960E94E012F1CF45
:102F600080E0F2CF0F931F93CF93DF93082F162F9C
:102F7000811108C0C0E0D0E0CE01DF91CF911F9158
:102F80000F910895869FC00111244F960E94BF148F
:102F9000EC01009779F311114F96998388830B8F79
:102FA0001C8F61E0CE010E946C17E6CF1F93CF9378
:102FB000DF93162F811579F0861768F042E060E004
:102FC0000E94B217EC01892B09F01A8FCE01DF9114
:102FD000CF911F910895C0E0D0E0F8CFAF92BF929B
:102FE000DF92EF92FF920F931F93CF93DF9300D066
:102FF00000D00F92CDB7DEB78C01E62ED72E5D83C1
:103000004C83F22E80E0580198E0A90EB11C0FB657
:10301000F8940F92F801228D938D291718F54F2DF2
:103020006E2D7D2DC8010E94BE16F8019189911563
:1030300021F0C80141960E94AC0B81110E947E13C1
:103040000F900FBE81E00F900F900F900F900F9098
:10305000DF91CF911F910F91FF90EF90DF90BF9084
:10306000AF900895F2E0FF16D1F22C813D81232B21
:1030700021F40F900FBE80E0E6CF811104C0CE0195
:1030800001960E94E00C0F900FBE0E9449080FB6F7
:10309000F8940F92F801858D8F3F09F4158EF80191
:1030A000868D8F3F09F4168E0F900FBEBE016C5FA8
:1030B0007F4FCE0101960E94EB0C811120C00FB60C
:1030C000F8940F92F801928D838D0F900FBE981394
:1030D00010C06C817D81C5010E94140BC8010E9443
:1030E0002E170E945F09811102C00E947E1381E0A9
:1030F0008ECFC8010E942E170E945F09F8CFC80129
:103100000E942E170E945F09B6CFCF93DF93482FFE
:1031100060E081E00E94B217EC01009761F01D822F
:103120001C82198218821E8220E040E050E060E09C
:1031300070E00E94EE17CE01DF91CF9108950F93BA
:103140001F93CF93DF93EC010C811D810E94310D01
:1031500008171907A1F48E8181508E83811531F0F3
:1031600081E0DF91CF911F910F91089520E040E021
:1031700050E060E070E0CE010E94EE17F1CF80E0F9
:10318000F0CFEF92FF921F93CF93DF93EC017A0180
:10319000422F9A8D8B8D981718F080E02230B9F469
:1031A0001E8D8A8DCE010E94BE161F3FB1F4898903
:1031B000811561F0CE0141960E94AC0B811531F072
:1031C000E114F10419F081E0F701808381E0DF91DF
:1031D000CF911F91FF90EF9008950E945E081817FD
:1031E000A8F71F5F1E8FF2CFEF92FF921F93CF932E
:1031F000DF93EC017B018A8D9B8D891710F51E8D65
:103200008F5F8A8F1F3FB1F48989811561F0CE01EC
:1032100041960E94AC0B811531F0E114F10419F0D4
:1032200081E0F701808381E0DF91CF911F91FF90D2
:10323000EF9008950E945E081817A8F71F5F1E8F71
:10324000F2CF80E0F1CFAF92BF92DF92EF92FF9288
:103250000F931F93CF93DF9300D000D00F92CDB781
:10326000DEB78C01E62ED72E5D834C8380E05801BB
:1032700091E1A90EB11C0FB6F8940F92F801F28CEF
:10328000F11421F16E2D7D2DC8010E941517FA94BD
:10329000F801F28E8085811539F0C80108960E94E8
:1032A000AC0B81110E947E130F900FBE81E00F9036
:1032B0000F900F900F900F90DF91CF911F910F9172
:1032C000FF90EF90DF90BF90AF9008952C813D81EB
:1032D000232B21F40F900FBE80E0E9CF811104C0B1
:1032E000CE0101960E94E00C0F900FBE0E9449088B
:1032F0000FB6F8940F92F801858D8F3F09F4158E63
:10330000F801868D8F3F09F4168E0F900FBEBE0117
:103310006C5F7F4FCE0101960E94EB0C81111BC0A8
:10332000C8010E94B316811581F06C817D81C501B1
:103330000E94140BC8010E942E170E945F09811180
:1033400002C00E947E1381E096CFC8010E942E1712
:103350000E945F09F8CFC8010E942E170E945F09E2
:10336000C8010E94B316811571F3B6CFCF92DF92D8
:10337000FF920F931F93CF93DF9300D000D00F9253
:10338000CDB7DEB78C017D836C83F12C90E06801B2
:1033900081E1C80ED11C0FB6F8940F92D8015A964D
:1033A0008C915A97811549F181505A968C935A976E
:1033B0008D919C91892B29F40E948A0EF8019583A6
:1033C0008483D80118968C91811539F0C80108962C
:1033D0000E94AC0B81110E947E130F900FBE81E002
:1033E0000F900F900F900F900F90DF91CF911F9142
:1033F0000F91FF90DF90CF9008952C813D81232B7A
:1034000021F40F900FBE80E0EBCF911104C0CE01EC
:1034100001960E94E00C0F900FBE0E9449080FB663
:10342000F8940F92F801858D8F3F09F4158ED8011D
:103430005E968C915E978F3F11F45E961C920F9072
:103440000FBEBE016C5F7F4FCE0101960E94EB0C58
:1034500081112AC0C8010E94B3168115F9F0F80144
:1034600080819181892B51F40FB6F8940F92848159
:1034700095810E944D0DF82E0F900FBE6C817D81BD
:10348000C6010E94140BC8010E942E170E945F09FA
:10349000811102C00E947E1391E07DCFC8010E947D
:1034A0002E170E945F09F8CFC8010E942E170E94B4
:1034B0005F09C8010E94B316811571F3F11409F474
:1034C000A2CF0FB6F8940F92F8016189611531F01F
:1034D0000688F789E02D808164E0681BD801149686
:1034E0008D919C910E94140E8CCFEF92FF920F93BE
:1034F0001F93CF93DF93EC018B01EC80FD800E9442
:10350000310DE816F90629F48E818F5F8E8381E0F4
:1035100006C0B801CE010E94B6198111F5CFDF9126
:10352000CF911F910F91FF90EF900895CF92DF926E
:10353000EF92FF920F931F93CF93DF9300D000D0B1
:103540000F92CDB7DEB78C01F62EE72E5D834C834C
:1035500080E0680191E1C90ED11C0FB6F8940F927A
:10356000F801928D911529F1C680D7806F2D7E2D9F
:10357000C8010E941517F801D782C682818981157A
:1035800039F0C80141960E94AC0B81110E947E1354
:103590000F900FBE81E00F900F900F900F900F9043
:1035A000DF91CF911F910F91FF90EF90DF90CF901F
:1035B00008952C813D81232B21F40F900FBE80E0D4
:1035C000EACF811104C0CE0101960E94E00C0F9059
:1035D0000FBE0E9449080FB6F8940F92F801858D2E
:1035E0008F3F09F4158EF801868D8F3F09F4168EF2
:1035F0000F900FBEBE016C5F7F4FCE0101960E94FF
:10360000EB0C81111BC0C8010E94B316811581F01B
:103610006C817D81C6010E94140BC8010E942E1787
:103620000E945F09811102C00E947E1381E095CF44
:10363000C8010E942E170E945F09F8CFC8010E949E
:103640002E170E945F09C8010E94B316811571F3FD
:10365000B6CFEF92FF920F931F93CF93DF93EC01BE
:103660007A010A8D80E00115C1F01D8DCE010E9406
:10367000151701500A8F1F3FB9F48885811561F035
:10368000CE0108960E94AC0B811531F0E114F104D3
:1036900019F081E0F701808381E0DF91CF911F91E4
:1036A0000F91FF90EF9008950E945E081817A0F701
:1036B0001F5F1D8FF1CF0F931F93CF93DF93EC010B
:1036C0008A8D811569F00E811F81CE010E94151728
:1036D0001F830E8381E0DF91CF911F910F91089599
:1036E00080E0F9CFFC010FB6F8940F92828D0F9015
:1036F0000FBE0895FC010FB6F8940F92928D838D42
:10370000891B0F900FBE0895FC01828D08950C94C3
:10371000D214FC01848D0895FC01838D0895FC0171
:10372000928D81E0911180E00895FC01928D81E0FD
:10373000238D291380E00895CF93DF93EC010FB61A
:10374000F8940F928D8D8F3F09F41D8E8E8D8F3FD3
:1037500009F41E8E0F900FBE8A8D811104C0CE0118
:1037600041960E946C0BCE01DF91CF910C942E17E5
:10377000992778E0880F991F961708F0961B881FE5
:103780007A95C9F780950895052E97FB1EF400944D
:103790000E94DB1B57FD07D00E94E91B07FC03D0EA
:1037A0004EF40C94DB1B50954095309521953F4F7E
:1037B0004F4F5F4F089590958095709561957F4F1D
:1037C0008F4F9F4F0895EE0FFF1F0590F491E02D4E
:1037D0000994A1E21A2EAA1BBB1BFD010DC0AA1F52
:1037E000BB1FEE1FFF1FA217B307E407F50720F06A
:1037F000A21BB30BE40BF50B661F771F881F991FE5
:103800001A9469F760957095809590959B01AC012D
:10381000BD01CF0108955058BB27AA270E94231C41
:103820000C946D1D0E945F1D38F00E94661D20F0F3
:1038300039F49F3F19F426F40C945C1D0EF4E095C6
:10384000E7FB0C94561DE92F0E947E1D58F3BA1712
:10385000620773078407950720F079F4A6F50C94A6
:10386000A01D0EF4E0950B2EBA2FA02D0B01B9016F
:1038700090010C01CA01A0011124FF27591B99F0E6
:10388000593F50F4503E68F11A16F040A22F232FF2
:10389000342F4427585FF3CF469537952795A79542
:1038A000F0405395C9F77EF41F16BA0B620B730BE9
:1038B000840BBAF09150A1F0FF0FBB1F661F771F5A
:1038C000881FC2F70EC0BA0F621F731F841F48F40F
:1038D000879577956795B795F7959E3F08F0B0CF98
:1038E0009395880F08F09927EE0F9795879508957F
:1038F0000E948C1C0C946D1D0E94661D58F00E9445
:103900005F1D40F029F45F3F29F00C94561D5111C2
:103910000C94A11D0C945C1D0E947E1D68F39923DC
:10392000B1F3552391F3951B550BBB27AA276217BB
:103930007307840738F09F5F5F4F220F331F441FC8
:10394000AA1FA9F335D00E2E3AF0E0E832D09150FC
:103950005040E695001CCAF72BD0FE2F29D0660FE9
:10396000771F881FBB1F261737074807AB07B0E82C
:1039700009F0BB0B802DBF01FF2793585F4F3AF032
:103980009E3F510578F00C94561D0C94A11D5F3F8D
:10399000E4F3983ED4F3869577956795B795F795B8
:1039A0009F5FC9F7880F911D9695879597F90895A0
:1039B000E1E0660F771F881FBB1F6217730784073C
:1039C000BA0720F0621B730B840BBA0BEE1F88F74B
:1039D000E09508950E94861D88F09F5798F0B92FB2
:1039E0009927B751B0F0E1F0660F771F881F991F34
:1039F0001AF0BA95C9F714C0B13091F00E94A01D19
:103A0000B1E008950C94A01D672F782F8827B85F28
:103A100039F0B93FCCF3869577956795B395D9F78B
:103A20003EF490958095709561957F4F8F4F9F4F95
:103A30000895E89409C097FB3EF4909580957095A1
:103A400061957F4F8F4F9F4F9923A9F0F92F96E9EA
:103A5000BB279395F695879577956795B795F1115F
:103A6000F8CFFAF4BB0F11F460FF1BC06F5F7F4FFC
:103A70008F4F9F4F16C0882311F096E911C077230E
:103A800021F09EE8872F762F05C0662371F096E817
:103A9000862F70E060E02AF09A95660F771F881FE6
:103AA000DAF7880F9695879597F9089597F99F67A4
:103AB00080E870E060E008959FEF80EC08950024B6
:103AC0000A941616170618060906089500240A9483
:103AD00012161306140605060895092E0394000C09
:103AE00011F4882352F0BB0F40F4BF2B11F460FF98
:103AF00004C06F5F7F4F8F4F9F4F089557FD9058C1
:103B0000440F551F59F05F3F71F04795880F97FBA1
:103B1000991F61F09F3F79F087950895121613065B
:103B20001406551FF2CF4695F1DF08C0161617068A
:103B30001806991FF1CF86957105610508940895BF
:103B4000E894BB2766277727CB0197F908950E9451
:103B5000BA1D0C946D1D0E945F1D38F00E94661DF9
:103B600020F0952311F00C94561D0C945C1D11242B
:103B70000C94A11D0E947E1D70F3959FC1F3950FBB
:103B800050E0551F629FF001729FBB27F00DB11DE1
:103B9000639FAA27F00DB11DAA1F649F6627B00D71
:103BA000A11D661F829F2227B00DA11D621F739F5A
:103BB000B00DA11D621F839FA00D611D221F749F68
:103BC0003327A00D611D231F849F600D211D822FAF
:103BD000762F6A2F11249F5750409AF0F1F08823D6
:103BE0004AF0EE0FFF1FBB1F661F771F881F915003
:103BF0005040A9F79E3F510580F00C94561D0C943F
:103C0000A11D5F3FE4F3983ED4F3869577956795C1
:103C1000B795F795E7959F5FC1F7FE2B880F911D2C
:103C20009695879597F908950F931F93CF93DF93F8
:103C30009C01029710F422E030E0E091D601F0916F
:103C4000D70180E090E0A0E0B0E0309791F40097D9
:103C500009F448C0821B930B84309105D0F58A810A
:103C60009B816115710581F1FB0193838283FE01C4
:103C700011C0408151810281138142175307D8F04E
:103C80004217530799F4109761F012960C9312970C
:103C900013961C933296CF01DF91CF911F910F9114
:103CA00008950093D6011093D701F4CF009751F0F7
:103CB0004817590738F0AC01DB01CA01BD01DF012B
:103CC000F801C3CFEF01F9CF9093D7018093D601CC
:103CD000CECFFE01E80FF91F21933193029799830C
:103CE0008883D9CF4091D8015091D9014115510510
:103CF00041F44091090150910A015093D901409338
:103D0000D8018091070190910801009741F48DB787
:103D10009EB760910B0170910C01861B970B4817A1
:103D2000590708F0B8CF841B950B8217930708F446
:103D3000B2CFB9016E5F7F4F8617970708F4ABCFFC
:103D4000640F751F7093D9016093D801FA01219314
:103D50003193A1CFCF93DF939C010097E9F0FC0151
:103D6000329713821282C091D601D091D701DE0121
:103D700080E090E02097A1F480819181280F391F85
:103D80008091D8019091D9018217930709F068C0FA
:103D9000F093D901E093D801DF91CF910895DA0132
:103DA000AE17BF0708F042C012964D915C91139771
:103DB000CD014115510599F7DC011396FC93EE9363
:103DC00012974D915D919D01240F351FE217F30766
:103DD00081F4208131812E5F3F4F240F351FDC019C
:103DE00011963C932E932281338113963C932E930C
:103DF0001297E0E0F0E08A819B810097B1F5DE0147
:103E00008D919D918A0F9B1F2091D8013091D901EE
:103E10002817390709F6309759F51092D7011092F3
:103E2000D601D093D901C093D801B6CFB383A28372
:103E300040815181240F351FA217B30771F44E5FE3
:103E40005F4F2D913C911197240F351F31832083B3
:103E500012962D913C9133832283009709F0ACCFC9
:103E6000F093D701E093D60197CFFE01EC01C3CFC9
:103E700013821282D6CFFB01DC0102C001900D92A9
:103E800041505040D8F70895DC0101C06D93415076
:103E90005040E0F70895F894FFCF96039603DA03B5
:0C3EA000C203D40396039603DA03C203A6
:103EAC00FF0880660A00320000DA0120007F97AF1D
:103EBC00C5D8E8F4FBFEFBF4E8D8C5AF977F664E97
:103ECC0038251509020002091525384E667F03684E
:103EDC00656C6C6F004C43440049444C4500546D78
:063EEC0072205376630012
:00000001FF
