:100000000C9434000C9451000C9451000C94510049
:100010000C9451000C9451000C941F160C94510038
:100020000C9451000C9451000C9451000C9451000C
:100030000C9451000C9451000C9451000C945100FC
:100040000C9451000C9451000C9451000C945100EC
:100050000C9451000C9451000C9451000C945100DC
:100060000C9451000C94510011241FBECFEFD8E026
:10007000DEBFCDBF14E0A0E0B1E0ECEBF1E402C0E4
:1000800005900D92A23AB107D9F725E0A2EAB4E0B3
:1000900001C01D92AD32B207E1F70E9451050C94E8
:1000A000D3200C9400009093C5008093C40088E195
:1000B0008093C10086E08093C20008959091C000B3
:1000C00095FFFCCF8093C60008958091C00087FF04
:1000D000FCCF8091C6000895CF93DF93EC01899106
:1000E000811103C0DF91CF9108950E945E00F7CF88
:1000F000CF93DF93CDB7DEB72A970FB6F894DEBF64
:100100000FBECDBF4AE0BE016F5F7F4F0E949E20B1
:10011000CE0101960E946C002A960FB6F894DEBFBD
:100120000FBECDBFDF91CF9108952F923F924F9296
:100130005F926F927F928F929F92AF92BF92CF9277
:10014000DF92EF92FF920F931F93CF93DF93CDB780
:10015000DEB768970FB6F894DEBF0FBECDBF362E60
:10016000272E8D8B9E8B80E061E070E0788F6F8B07
:100170009AE0841394C0032D122D2D893E89C90164
:10018000B8010E94121E6B01072E000C880B990B00
:100190000E944A1E2B013C01A30192013D822E8246
:1001A0007D897F838E8988876D817E818F81988507
:1001B0000E94A01D2B013C01EF89F88DBF01FF0FAC
:1001C000880B990B0E944A1E4B015C01A50194010A
:1001D00049865A866B867C8669857A858B859C855F
:1001E0000E94FA1E6D877E878F87988B6D857E852E
:1001F0008F8598890E94121E69837A838B839C83E2
:10020000A980BA8020E030E0A901398A2A8AFD89D4
:10021000FB8B6E896C8B69897A898B899C890E949A
:100220000D1E87FF06C0C114D10419F48DE20E948F
:100230005E00C6010E9478008EE20E945E008F89F7
:10024000988D6AE070E00E941B1D7E836D830AE03A
:1002500010E08D819E81A816B90664F189819A818A
:1002600097FF03C091958195910968960FB6F89410
:10027000DEBF0FBECDBFDF91CF911F910F91FF90D9
:10028000EF90DF90CF90BF90AF909F908F907F9036
:100290006F905F904F903F902F900C9478006F89F3
:1002A000788D969FF001979FF00D1124F88FEF8BBA
:1002B0008F5F5FCFED81FE81329784F280E30E94F1
:1002C0005E008D819E81B8010E941B1D7E836D831F
:1002D000C0CFC0E285B18C2785B98FE190E00E9444
:1002E000B80BF8CF0F931F93CF93DF93EC018B01E3
:1002F000672B41F484E893E01C161D06C4F18CE7DB
:100300009CEF35C0DC0197FF04C0AA27BB27A81BC0
:10031000B90B2AE030E00E94541D980117FF04C079
:1003200022273327201B310B032E000C440B550BC7
:100330000E942F1D233331054105510524F022E38E
:1003400030E040E050E0F901EE0FFF1FEA5FFE4FA2
:100350008081918117FF06C028E037E0A901481B82
:10036000590BCA01D7FF03C0919581959109DF917F
:10037000CF911F910F910895CF93DF93CDB7DEB743
:100380002E970FB6F894DEBF0FBECDBF8DE691E07D
:100390000E946C008DE891E00E946C000E94530462
:1003A000811115C082EB91E00E946C0082ED91E01A
:1003B0000E946C0088EF91E00E946C0010E285B111
:1003C000812785B986E090E00E94B80BF8CF86E1DE
:1003D00092E00E946C0087E392E00E946C0088E447
:1003E00092E00E946C0081E692E00E946C0081E83D
:1003F00092E00E946C008DE992E00E946C0088EC13
:1004000092E00E946C00CC24C394D12C63E8A62E09
:10041000B12C7AE0672E712CE4E54E2E55245394CE
:10042000CE0101960E94E4038D809E80B4018B81F1
:100430009C810E9472011C0189819A81B40191956D
:10044000819591090E9472014C0182EE92E00E9416
:100450006C00C6010E94780080EF92E00E946C0060
:1004600087EF92E00E946C0087E093E00E946C00AE
:1004700089819A810E9478008DE093E00E946C004F
:1004800089819A8197FF02C08150904C990F880B07
:10049000990F982F881F0E94780084E193E00E94B2
:1004A0006C0089E193E00E946C008B819C810E942A
:1004B00078008DE093E00E946C008B819C8197FF17
:1004C00002C08150904C990F880B990F982F881F6C
:1004D0000E94780084E193E00E946C008FE193E039
:1004E0000E946C008D819E810E9478008DE093E0D7
:1004F0000E946C008D819E8197FF02C08150904CBC
:10050000990F880B990F982F881F0E94780084E11B
:1005100093E00E946C0085E293E00E946C0087E00B
:1005200093E00E946C0089859A850E9478008DE096
:1005300093E00E946C0089859A85B5010E941B1D7D
:10054000CB010E94780083E393E00E946C0089E174
:1005500093E00E946C008B859C850E9478008DE062
:1005600093E00E946C008B859C85B5010E941B1D49
:10057000CB010E94780083E393E00E946C008FE13E
:1005800093E00E946C008D859E850E9478008DE02E
:1005900093E00E946C008D859E85B5010E941B1D15
:1005A000CB010E94780083E393E00E946C008DE30E
:1005B00093E00E946C008AE593E00E946C00C10108
:1005C000B3010E941B1D1C01CB010E94780084E630
:1005D00093E00E946C00710137FE03C0F194E19436
:1005E000F108C7010E94780086E693E00E946C0043
:1005F0008BE693E00E946C00C401B3010E941B1DB6
:100600004C01CB010E94780084E693E00E946C00CC
:10061000840197FE03C0119501951109C8010E943C
:10062000780086E693E00E946C0085E793E00E94E4
:100630006C008F8198850E9478008DE093E00E9485
:100640006C008F819885B2010E941B1DCB0185969D
:100650000E94780083E893E00E946C008FED92E0A6
:100660000E946C008EE390E00E94B80B8FEFC81AD6
:10067000D80AD6CE259A15B880E190E00E945300A2
:100680008FED92E00E946C008DE992E00E946C0078
:100690008BE893E00E946C008DE992E00E946C0070
:1006A0008CEA93E00E946C008FEB93E00E946C0058
:1006B0000E94A9038DED93E00C946C001092B90098
:1006C00088E48093B80084E08093BC00089584EAB5
:1006D0008093BC008091BC0087FFFCCF089584E923
:1006E0008093BC0008958093BB0084E88093BC0095
:1006F0008091BC0087FFFCCF8091B900887F08956E
:1007000084EC8093BC008091BC0087FFFCCF80917B
:10071000BB00089584E88093BC008091BC0087FFF3
:10072000FCCF8091BB000895CF93DF93D82FC62FC5
:100730000E94670380ED0E9473038D2F0E94730354
:100740008C2F0E94730384E98093BC00DF91CF91CA
:1007500008950E945E032FEF81EE94E021508040C7
:100760009040E1F700C0000060E08BE60E94940337
:100770008FE39CE90197F1F700C0000067E089E191
:100780000E94940366E08AE10E94940360E08BE19A
:100790000E94940360E08CE10C949403CF93C82FE3
:1007A0000E94670380ED0E9473038C2F0E947303E5
:1007B0000E94670381ED0E9473030E948A0394E9FB
:1007C0009093BC00CF910895CF92DF92EF92FF9269
:1007D0000F931F93CF93DF93CDB7DEB72E970FB64E
:1007E000F894DEBF0FBECDBF8C010E94670380ED81
:1007F0000E9473038BE30E9473030E94670381EDE1
:100800000E947303CE0101967C016E019EE0C90E29
:10081000D11C0E948003F70181937F01EC15FD0537
:10082000C1F70E948A0394E99093BC0029813A8120
:10083000322723273227F801318320832B813C8103
:10084000322723273227338322832D813E8132278B
:1008500023273227358324832F8138853227232786
:1008600032273783268329853A8532272327322763
:10087000318720872B853C853227232732273387F2
:1008800022879D85958784872E960FB6F894DEBFC4
:100890000FBECDBFDF91CF911F910F91FF90EF90D1
:1008A000DF90CF90089585E70E94CE03982F81E0D6
:1008B000983609F080E008950E943E068091E50494
:1008C0008230D0F30E94E114F7CFA89588E190EC34
:1008D0000FB6F894A895809360000FBE90936000C7
:1008E0000895CF93DF9300D000D00F92CDB7DEB73D
:1008F00085E0782ECE0101964C01682E592CE091AE
:100900001505F09116051081A12CB12C111529F0B7
:100910000580F681E02DA080B1800E94AC090E9484
:10092000B2096C0180910D0590910E05C816D9068B
:1009300008F047C00E94C716D0920E05C0920D0560
:100940000E94C20AD401E72D1D92EA95E9F740E022
:1009500050E0662D752D80911105909112050E9431
:10096000861A811561F2898187FDF1CF0C811D8185
:10097000D8011A968D919C91892B21F0C80102967D
:100980000E94A4140E94B2097C0180910D059091EF
:100990000E05E816F90610F40E94C716F0920E052F
:1009A000E0920D05E981E150E93088F60E2E000C49
:1009B000FF0BEB52FF4DD80152968C9152970C943D
:1009C0004E1DD0920E05C0920D05111551F0CA149E
:1009D000DB0470F00E94C20AB601C5010E949D1698
:1009E000B1CFE0911305F091140541E080818111B0
:1009F00040E0B5016C197D098091110590911205B7
:100A00000E94FF1C0E94C20A81119CCF0E94E11427
:100A100099CF8160F801828B2A813B81648575853D
:100A2000620F731FA701C8010E944616811509F4C1
:100A30008ECFD80152968C91529782FF12C06A8154
:100A40007B811C968D919C91680F791FA701C8012D
:100A50000E947916D8015096ED91FC91C801099534
:100A600076CF8E7FF801828BF5CF816052968C9382
:100A700052976A817B811D967C936E931C976E0DB5
:100A80007F1D9701A701C8010E94461660CF81FD16
:100A900004C0C8010E9435165ACF8E7FF801828BA0
:100AA00056CF0E943A038CEF93E00E946C00E12C39
:100AB000F12C01E020E030E040E850E066E174E035
:100AC00089E691E00E9468068AE194E00E946C0049
:100AD00002E020E030E040E051E064E374E08CEBC1
:100AE00091E00E9468068CE394E00E946C008AE525
:100AF00094E00E946C000E9455098AE794E00E94ED
:100B00006C00FFCFAF92BF92DF92EF92FF920F93F4
:100B10001F93CF93DF93EC01D62EA090B004B0903A
:100B2000B1040091D1041091D204E090CF04F09070
:100B3000D0048091A2049091A30402960E94A41470
:100B4000CF3FDC0709F042C0D11409F43FC0E09167
:100B5000B404F091B504A091A204B091A304159639
:100B6000FC93EE931497A091A204B091A304848106
:100B7000958117969C938E9316978091A2049091DD
:100B8000A304A481B581029613969C938E93129729
:100B90008091A2049091A304029695838483E091AE
:100BA000A204F091A30483EB94E093878287809161
:100BB000B3048F5F8093B304DF91CF911F910F91A6
:100BC000FF90EF90DF90BF90AF900895CA0DDB1DAE
:100BD000E091A204F091A304D383C2836091A204A4
:100BE0007091A3046E5F7F4FCA15DB0560F4C701E7
:100BF000DF91CF911F910F91FF90EF90DF90BF9009
:100C0000AF900C947514C8010E9475148091A704CC
:100C10009091A804C817D90778F6D093A804C09378
:100C2000A704CACFFC0182859385835B944061F45D
:100C30008489958924E0863C920731F0892B21F440
:100C400097A581E0913009F480E00895E091D10406
:100C5000F091D2048081811107C08FEF9FEF9093B4
:100C6000A8048093A7040895E091D104F091D204E0
:100C70000580F681E02D80819181F1CFCF93DF93C4
:100C80008091BC04811103C0DF91CF9108950FB60C
:100C9000F8940F92E091C204F091C304C681D78109
:100CA000CE0102960E94A4148091B20481508093D8
:100CB000B2048091BC0481508093BC040F900FBE9D
:100CC0008F89988D0E943516CE010E943516D8CF97
:100CD0003F924F925F926F927F928F929F92AF92CC
:100CE000BF92CF92DF92EF92FF920F931F93CF9319
:100CF000DF93482E392E6B015A01522E132F3701E4
:100D0000CA010E9422164C01892B99F48FEFDF91C2
:100D1000CF911F910F91FF90EF90DF90CF90BF90F8
:100D2000AF909F908F907F906F905F904F903F908B
:100D3000089580E390E00E942216EC01892B09F4CB
:100D4000C6C080E3FE0111928A95E9F7988E8F8ADA
:100D5000A50165EA70E0C4010E949720C5010197D2
:100D6000AF88B88CA80EB91EC114D10409F0B3C065
:100D7000043008F003E00E8B09A76E01F2E0CF0EFD
:100D8000D11CC6010E945114CE010C960E94511430
:100D9000D987C88784E090E0801B91099D878C8764
:100DA000DB8BCA8B452D512F642D732DC5010E94FD
:100DB000C714998388836114710419F0F301D183F6
:100DC000C0830FB6F8940F928091B2048F5F809326
:100DD000B2048091A2049091A304892B09F08AC0E7
:100DE000D093A304C093A2048091B204813081F512
:100DF00085EE94E00E9443148EEE94E00E9443142A
:100E000087EF94E00E94431480E095E00E94431431
:100E10008CED94E00E94431483ED94E00E9443140F
:100E200086EC94E00E9443148DEB94E00E944314FE
:100E300083EB94E00E9443148CED94E09093D204F1
:100E40008093D10483ED94E09093D0048093CF04F9
:100E50008091A9048F5F8093A904EE898091AF04EB
:100E60008E1710F4E093AF0489E0E89FF00111249D
:100E70009F012B513B4FF901A181B281BD83AC830E
:100E800014968D919C9115979F838E8314968D91C6
:100E90009C911597FC01D382C2821596DC92CE926A
:100EA00014973B872A87F90180818F5F80830F9099
:100EB0000FBE8091AE04811541F0E091A204F09143
:100EC000A30496898E89981738F181E020CFC40158
:100ED0000E9435161BCFF601DE0159969601205F60
:100EE0003F4F81918D93811519F02E173F07C9F758
:100EF00018A63ECF8091AE048111AACFE091A20442
:100F0000F091A30486899E89981708F4A1CFD09305
:100F1000A304C093A2049CCF0E94E114D6CF0F93E8
:100F20001F93CF93DF93EC010FB6F8940F92892BA8
:100F300021F4C091A204D091A3048E010E5F1F4F33
:100F4000C8010E94A4148C899D89892B21F0CE01AF
:100F50000C960E94A4148091A9048F5F8093A90429
:100F60008091A2049091A3042091AE04211559F11F
:100F70008C179D0741F5B8018DEB94E00E94551444
:100F80008091BC048F5F8093BC0481E00F900FBE02
:100F9000813039F08F89988D0E943516CE010E94DC
:100FA00035168091AE04811549F08091A20490918C
:100FB000A3048C179D0711F40E94E114DF91CF91D7
:100FC0001F910F9108958091B20481508093B204D3
:100FD0000E94260680E0DACFFC010FB6F8940F924B
:100FE000892B21F4E091A204F091A30486890F904B
:100FF0000FBE0895FC01892B21F4E091A204F09129
:10100000A30486890895FC010FB6F8940F92892BEA
:1010100021F4E091A204F091A30481A50F900FBEEA
:101020000895FC01892B21F4E091A204F091A3041E
:1010300081A50895EF92FF921F93CF93DF93EC0168
:10104000643008F063E00FB6F8940F92209721F413
:10105000C091A204D091A30499A5691709F467C0AF
:101060002091A2043091A304961768F42C173D0731
:1010700041F0E091A204F091A30411E08689861763
:1010800030F010E004C011E02C173D07D1F78E8935
:10109000981711F0861708F46E8B69A72C853D858B
:1010A00037FD06C024E030E0261B31093D872C8740
:1010B00029E0829FC00111248B519B4F2A853B85DB
:1010C0002817390789F57E0182E0E80EF11CC70177
:1010D0000E94A414EE898091AF048E1710F4E0935F
:1010E000AF0429E0E29FF00111249F012B513B4FF7
:1010F000F901A181B281BD83AC8314968D919C913D
:1011000015979F838E8314968D919C911597FC0162
:10111000F382E2821596FC92EE9214973B872A871F
:10112000F90180818F5F808311110E94E1140F907B
:101130000FBEDF91CF911F91FF90EF9008950F9315
:101140001F93CF93DF93EC018091A2049091A304AD
:101150008C179D0709F446C0209709F443C00FB6C9
:10116000F8940F92CE010E9412068115C9F18E01EA
:101170000E5F1F4FC8010E94A4148E899091AF0486
:10118000981710F48093AF0499E0899FF00111241F
:10119000AF014B515B4FFA01A181B281BD83AC839A
:1011A00014962D913C9115973F832E8314962D9183
:1011B0003C911597F9011383028315961C930E93A6
:1011C00014975B874A87FA0190819F5F9083E09133
:1011D000A204F091A3049689981710F40E94E114D8
:1011E0000F900FBEDF91CF911F910F910895EF9255
:1011F000FF921F93CF93DF93EC010E941206182FEA
:10120000811509F450C08091A404811145C0E0917A
:10121000A204F091A3048E8996899817D8F581E0ED
:101220008093AB047E0182E0E80EF11CC7010E94AE
:10123000A414EE898091AF048E1710F4E093AF04EC
:1012400089E0E89FF00111249F012B513B4FF901E8
:10125000A181B281BD83AC8314968D919C91159729
:101260009F838E8314968D919C911597FC01F38238
:10127000E2821596FC92EE9214973B872A87F90139
:1012800080818F5F8083812FDF91CF911F91FF90AD
:10129000EF90089510E0C6CFBE01645F7F4F86ECEB
:1012A00094E00E94551410E0EECFEF92FF920F935E
:1012B000CF93DF93CDB7DEB760970FB6F894DEBF5C
:1012C0000FBECDBFA4E9B4E0FE013196BF018D9100
:1012D00081938111FCCF85EAE82E84E0F82E00E0AE
:1012E00020E030E04CE550E08CE594E00E94680698
:1012F000813099F40E940E17813079F4F8942FEF21
:101300003FEF3093A8042093A7048093AE0410927B
:10131000B1041092B0040E94F01580916C016096A7
:101320000FB6F894DEBF0FBECDBFDF91CF910F9106
:10133000FF90EF9008950E94C6170E948F0780913A
:10134000A5049091A6040E948F070E943E06F8947F
:101350001092AE040C94D5148091A4048F5F8093F6
:10136000A40408950FB6F8940F928091B004909160
:10137000B1040F900FBE08958091B0049091B10414
:1013800008958091B20408959C01892B21F4209145
:10139000A2043091A304C90149960895CF92DF9227
:1013A000EF92FF921F93CF93DF938091A40481115A
:1013B000DEC0C091B004D091B10421966E01D093EB
:1013C000B104C093B004CD2BB9F48091D1049091B5
:1013D000D2042091CF043091D0043093D2042093D2
:1013E000D1049093D0048093CF048091AA048F5F9E
:1013F0008093AA040E9426068091A7049091A804D5
:10140000C816D90608F4B1C090E019E0E091D10403
:10141000F091D2048081811126C02FEF3FEF3093ED
:10142000A8042093A704E091A204F091A3043091B2
:10143000AB04E689D9E0ED9FF0011124EB51FB4F9D
:1014400081E02081223008F480E021E0311101C0E8
:1014500020E0822B892BDF91CF911F91FF90EF909D
:10146000DF90CF900895E091D104F091D2040580EF
:10147000F681E02D0680F781E02D22813381C216AE
:10148000D30668F2C285D385448155812681378190
:10149000DA0115963C932E93149726813781D90152
:1014A00013965C934E931297AF014E5F5F4F698125
:1014B0007A816417750711F43A832983138612869B
:1014C000888181508883A489B5891097F9F0268591
:1014D000378560897189E9017D836C8360897189B1
:1014E000EB013B832A831196ED90FC9012979F01AC
:1014F000245F3F4FE216F30621F412967C936E931D
:101500001197158A148A8C9181508C938689209129
:10151000AF04281710F48093AF04189FD001112452
:10152000AB51BB4F11962D913C911297358324837B
:10153000E9016C817D81778366836C817D81EB011C
:101540005B834A83E9015D834C83B387A2872C9137
:101550002F5F2C93E091A204F091A30421E036893F
:10156000381708F020E0922B51CF90E05CCF8091AB
:10157000AC049091AD0401969093AD048093AC04BB
:1015800080E069CFEF92FF920F931F93CF93DF9389
:101590000FB6F8940F928091A40481508093A40414
:1015A0008091A404811551F080E00F900FBEDF916F
:1015B000CF911F910F91FF90EF9008958091B20409
:1015C000811591F34091CB045091CC04E0E0F0E020
:1015D00069E071E08091C604811122C0EF2B11F007
:1015E0000E942606C091AC04D091AD04209761F012
:1015F00011E00E94CE0981111093AB042197C9F725
:101600001092AD041092AC048091AB04811561F28C
:101610008091A2049091A3040E94E11481E0C5CFBF
:10162000DA011696ED91FC91A489B5898685978596
:1016300020893189EC013D832C83C089D1899B832A
:101640008A83CF010C9611962D913C911297281701
:10165000390721F41296DC93CE931197158A148AD8
:101660008C9181508C93A285B3858481958126814C
:101670003781EC013D832C83C681D7819B838A838C
:101680009F012E5F3F4F11968D919C91129782176B
:10169000930721F41296DC93CE9311978C9181508D
:1016A0008C9386899091AF04981710F48093AF04BF
:1016B000689FD0011124ED01CB51DB4F7E010980E1
:1016C000DA81C02DD583C4830C811D8117830683E5
:1016D0000C811D81D80113963C932E9312973D8364
:1016E0002C83F386E286E70198819F5F9883A0911F
:1016F000A204B091A30456969C91981708F06ACF63
:101700007093AB0467CF0F931F93CF93DF93EC01DC
:101710008B010E94AC092091B0043091B104488142
:101720005981CA01800F911F2417350790F484173F
:10173000950790F099838883C0E00E94C20A8111C6
:1017400002C00E94E1148C2FDF91CF911F910F9165
:1017500008958417950718F02817390758F79983C3
:10176000888360E0821B930B0E948205C1E0E5CF75
:10177000CF93DF93EC01892B29F40E94E114DF91D0
:10178000CF9108950E94AC0960E0CE010E948205CD
:101790000E94C20A811589F3F2CFCF93DF93EC0147
:1017A0000E94AC090FB6F8940F928091AC0490910E
:1017B000AD048C0F9D1F9093AD048093AC040F90EB
:1017C0000FBEDF91CF910C94C20A8091A4048115C1
:1017D00021F081E08093AB0408951092AB048091D6
:1017E000AF0449E0489F90011124D901AB51BB4F90
:1017F0009C91911529F11196ED91FC91129702801F
:10180000F381E02D1296FC93EE93119728513B4FF4
:10181000E217F30741F41596ED91FC911697129695
:10182000FC93EE931197268137813093A304209384
:10183000A2048093AF048091A2049091A304089520
:101840008150D0CF0F931F93CF93DF93EC010FB64E
:10185000F8940F92892B21F4C091A204D091A30493
:101860008E010E5F1F4FC8010E94A4148C899D89B0
:10187000892B21F0CE010C960E94A414B80183EBB1
:1018800094E00E9455148FA5813009F41FA60F9093
:101890000FBE8091AE04811539F00FB6F8940F9207
:1018A0000E9426060F900FBE8091A2049091A3047F
:1018B0008C179D0731F48091AE04811539F00E9498
:1018C000E114DF91CF911F910F9108959091B2048F
:1018D0008091B304981305C01092A3041092A2043F
:1018E000F0CFDF91CF911F910F910C94E50BCF9327
:1018F000DF93D62FC72F6091A2047091A304645F79
:101900007F4F0E94751461E08D2F9C2FDF91CF9146
:101910000C948205CF93DF93FC01A091A204B091B7
:10192000A30470681D967C936E931C97A181B2816D
:10193000C091A204D091A304BF87AE87C091A20436
:10194000D091A30414968D919C911597998B888BB7
:101950002091A2043091A3041496CD91DC911597A7
:10196000245F3F4F3B832A832091A2043091A3043C
:10197000245F3F4F15963C932E931497A091A20499
:10198000B091A3045596FC93EE93549790819F5F7A
:10199000908361E0CA01DF91CF910C948205CF93CF
:1019A000DF93FC01CB01642FA181B281C091A2041D
:1019B000D091A304BF87AE87C091A204D091A304A5
:1019C00014962D913C911597398B288B2091A20468
:1019D0003091A3041496CD91DC911597245F3F4F6D
:1019E0003B832A832091A2043091A304245F3F4FBC
:1019F00015963C932E931497A091A204B091A30442
:101A00005596FC93EE93549720812F5F20834115C8
:101A100011F08FEF9FEFDF91CF910C948205CF9360
:101A2000DF93DC011596ED91FC910680F781E02DA6
:101A3000A489B5898685978520893189EC013D8304
:101A40002C83C089D1899B838A83CF010C96119600
:101A50002D913C9112972817390721F41296DC93A7
:101A6000CE931197158A148A2C9121502C93209192
:101A7000A404211153C0A285B38584819581268158
:101A80003781EC013D832C83C681D7819B838A8378
:101A9000CF01029611962D913C9112972817390784
:101AA00021F41296DC93CE9311972C9121502C9314
:101AB000A6892091AF042A1710F4A093AF04D9E0AF
:101AC000AD9FD0011124AD014B515B4FDA0111964E
:101AD000CD91DC91D583C4832C813D8137832683CE
:101AE0002C813D81D90113969C938E9312979D83EF
:101AF0008C8353874287EA0188818F5F8883A09116
:101B0000A204B091A304868956969C91981730F54B
:101B100081E08093AB04DF91CF910895A091C70439
:101B2000B091C804B787A68714962D913C9115975C
:101B3000318B208B1496CD91DC9115979B838A83F2
:101B400015969C938E93149786EC94E0958B848BDA
:101B50008091C6048F5F8093C604D1CF80E0DBCF35
:101B6000CF93DF93DC01706811967C936E93169689
:101B7000ED91FC91179718964D915C9119971296DB
:101B80002D913C91139714968D919C911597E90195
:101B90009D838C8314968D919C911597EC013B83CA
:101BA0002A83EA0129813A812A173B0711F49A8393
:101BB000898319961C921E921897DA018C91815094
:101BC0008C93A285B3858481958126813781EC0130
:101BD0003D832C83C681D7819B838A839F012E5F9F
:101BE0003F4F11968D919C9112978217930721F484
:101BF0001296DC93CE9311978C9181508C938689A9
:101C00009091AF04981710F48093AF04D9E08D9FA2
:101C1000D0011124BD016B517B4FDB011196CD9199
:101C2000DC91D583C4834C815D81578346834C818D
:101C30005D81DA0113963C932E9312973D832C839A
:101C400073876287EB0198819F5F9883E091A2047C
:101C5000F091A3049689981718F481E08093AB045F
:101C6000DF91CF910895FC010FB6F8940F92809107
:101C7000AA0480838091B0049091B10492838183FF
:101C80000F900FBE0895FC018091AA04808380917B
:101C9000B0049091B104928381830895FC01DB012B
:101CA0000FB6F8940F924091B0045091B1048D9109
:101CB0009C9111978F3F9807F9F0218132816091B3
:101CC000AA047081761749F04217530730F01D922D
:101CD0001C9281E00F900FBE0895BA01621B730B36
:101CE00068177907A0F7841B950B820F931F8D93BC
:101CF0009C93CF010E94430E80E0ECCF81E0809363
:101D0000AB040895FC01892B21F4E091A204F09129
:101D1000A3040788F08DE02D80E090E02191253A22
:101D200009F008950196FACF8091A2049091A3043E
:101D30000895811105C08091A2049091A304089593
:101D400080E090E008958091AE04811539F0909183
:101D5000A40481E0911180E0880F089581E0089546
:101D60000F931F93CF93DF93EC01892B09F46EC07F
:101D70008E89E091A204F091A3049689891708F056
:101D80005CC02C853D8537FD0BC0E091A204F0912D
:101D9000A304968924E030E0291B31093D872C8774
:101DA00029E0829FC00111248B519B4F2A853B85DE
:101DB00028173907D9F58E010E5F1F4FC8010E9401
:101DC000A414E091A204F091A304E689EE8B809123
:101DD000AF048E1710F4E093AF0489E0E89FF001A0
:101DE00011249F012B513B4FF901A181B281BD8389
:101DF000AC8314968D919C9115979F838E83149636
:101E00008D919C911597FC011383028315961C9369
:101E10000E9314973B872A87F90180818F5F808317
:101E200081E0DF91CF911F910F910895E091A2047D
:101E3000F091A30486898E8BF3CFE091A204F091F8
:101E4000A30481E029A59689291758F380E0E9CFFA
:101E50000F931F93CF93DF93EC01892B31F480E034
:101E6000DF91CF911F910F9108958AA581508AA784
:101E70002E8999A5291799F38111F1CF8E010E5F53
:101E80001F4FC8010E94A414E9A5EE8B84E090E0E6
:101E90008E1B91099D878C878091AF048E1710F45B
:101EA000E093AF0489E0E89FF00111249F012B51DA
:101EB0003B4FF901A181B281BD83AC8314968D9112
:101EC0009C9115979F838E8314968D919C91159765
:101ED000FC011383028315961C930E9314973B8782
:101EE0002A87F90180818F5F808381E0B9CF0F93CA
:101EF0001F93CF93DF93EC01892B09F452C099A56E
:101F0000961708F4962F8E89891709F44AC02AA5D6
:101F1000213009F046C09E8B2C853D8537FD06C0DB
:101F200024E030E0291B31093D872C8729E0829F7E
:101F3000C00111248B519B4F2A853B8528173907F7
:101F400081F58E010E5F1F4FC8010E94A414EE8917
:101F50008091AF048E1710F4E093AF0489E0E89FFE
:101F6000F00111249F012B513B4FF901A181B28156
:101F7000BD83AC8314968D919C9115979F838E831E
:101F800014968D919C911597FC01138302831596ED
:101F90001C930E9314973B872A87F90180818F5FEA
:101FA0008083DF91CF911F910F910895E091A2045A
:101FB000F091A30484859585A091A204B091A30417
:101FC000E091A204F091A30456964C9124E030E0F5
:101FD000241B31093587248708958091A2049091AC
:101FE000A304009721F0FC0122A52F5F22A70895EA
:101FF000CF92DF92EF92FF920F931F93CF93DF93D5
:10200000C82F062F6A010E94AC090FB6F8940F92F0
:10201000E091A204F091A304EC2EF12C84E0C89F7F
:10202000E0011124EC0FFD1F83A594A5A5A5B6A57D
:10203000892B8A2B8B2B61F4E091A204F091A304ED
:10204000EE0DFF1D81E087A711E0C114D10409F452
:1020500010E00F900FBE113021F461E0C6010E9424
:1020600082050E94C20A113021F4811102C00E942F
:10207000E1140FB6F8940F92E091A204F091A3043A
:10208000EC0FFD1F63A574A585A596A561157105C7
:102090008105910561F0E091A204F091A304EC0F99
:1020A000FD1F0115B1F013A614A615A616A6E09102
:1020B000A204F091A304EE0DFF1D17A60F900FBE12
:1020C000DF91CF911F910F91FF90EF90DF90CF9014
:1020D00008958B019C01015011092109310903A7C1
:1020E00014A725A736A7E3CF2F923F924F925F9276
:1020F0006F927F928F929F92AF92BF92CF92DF9218
:10210000EF92FF920F931F93CF93DF9300D00F9224
:10211000CDB7DEB789832A013B0148015901170178
:10212000CA82DB820E94AC090FB6F8940F92E0914C
:10213000A204F091A3048981082F10E0E80FF11D9B
:1021400087A5823049F1E091A204F091A304C8016F
:10215000880F991F880F991FE80FF91F83A594A571
:10216000A5A5B6A5409450946094709484219521BF
:10217000A621B72183A794A7A5A7B6A7E091A2049B
:10218000F091A304E00FF11F81E087A777247394F7
:10219000EA81FB81EF2B09F4712C0F900FBEF1E067
:1021A0007F1205C061E08A819B810E9482050E94A6
:1021B000C20A91E0791204C0811102C00E94E114A8
:1021C0000FB6F8940F9221143104A1F0E091A2040B
:1021D000F091A304C801880F991F880F991FE80F79
:1021E000F91F83A594A5A5A5B6A5F10180839183C8
:1021F000A283B383E091A204F091A304E00FF11F46
:1022000087A5823009F03BC0E091A204F091A304BD
:10221000C801880F991F880F991FE80FF91F83A520
:1022200094A5A5A5B6A580949094A094B094882177
:102230009921AA21BB2183A794A7A5A7B6A781E0CE
:10224000E091A204F091A304E00FF11F17A60F90F4
:102250000FBE0F900F900F90DF91CF911F910F91B4
:10226000FF90EF90DF90CF90BF90AF909F908F90B6
:102270007F906F905F904F903F902F90089580E0F7
:10228000DFCF8F929F92AF92BF92CF92DF92EF9269
:10229000FF920F931F93CF93DF93DC0149015A0103
:1022A000F8010FB6F8940F9270E0E114F10489F090
:1022B000CB01880F991F880F991F8A0F9B1FEC0174
:1022C0000BA51CA52DA53EA5E701088319832A832C
:1022D0003B83ED01C60FD71F8FA592E09FA7E33088
:1022E000F10509F478C008F071C0E130F10509F496
:1022F0007EC0329709F48FC0813009F057C01A961A
:10230000ED91FC911B9714968D919C9115971696C3
:102310002D913C911797EC013D832C831696CD911E
:10232000DC9117979B838A839D012E5F3F4F8181AC
:1023300092818217930711F4D283C18380818150E7
:10234000808356968C9156979091AF04981710F40D
:102350008093AF04D9E08D9FF0011124BF016B5130
:102360007B4FFB01C181D2811596DC93CE931497EC
:102370004C815D8117965C934E9316974C815D81DD
:10238000FA01338322833D832C831B967C936E93C7
:102390001A97EB0198819F5F9883E091A204F091D6
:1023A000A3049689981710F40E94E11481E00F901D
:1023B0000FBEDF91CF911F910F91FF90EF90DF90B3
:1023C000CF90BF90AF909F908F900895349709F071
:1023D00093CF823081F1660F771F660F771FFD0163
:1023E000E60FF71F83A694A6A5A6B6A685CF660F0F
:1023F000771F660F771FFD01E60FF71F43A554A552
:1024000065A576A5482959296A297B2943A754A798
:1024100065A776A771CF660F771F660F771FFD013F
:10242000E60FF71F43A554A565A576A54F5F5F4F3F
:102430006F4F7F4FEBCF80E0BACF4F925F926F929A
:102440007F928F929F92AF92BF92CF92DF92EF9244
:10245000FF920F931F93CF93DF93FC0129013A0161
:10246000D801460170E0E114F10489F0CB01880F36
:10247000991F880F991F8E0F9F1FEC010BA51CA59C
:102480002DA53EA5E701088319832A833B839F017D
:10249000260F371FE9018FA592E09FA7A330B10552
:1024A00009F47EC008F076C0A130B10509F486C0F9
:1024B000129709F49BC0813009F05AC08091A4049E
:1024C0008111A6C0A285B38524813581868197813B
:1024D000E9019D838C8386819781EC013B832A836C
:1024E0009F012E5F3F4F11964D915C9112974217BD
:1024F000530721F412969C938E9311978C918150DF
:102500008C93A6898091AF048A1710F4A093AF042E
:10251000D9E0AD9FD0011124AB51BB4F11968D91E5
:102520009C91129795838483EC014C815D81578344
:1025300046834C815D81EA013B832A83EC013D8324
:102540002C83B387A2878C918F5F8C93A091A20478
:10255000B091A304868956969C91981748F48114EB
:10256000910419F081E0F401808381E08093AB0451
:1025700081E0DF91CF911F910F91FF90EF90DF905D
:10258000CF90BF90AF909F908F907F906F905F9013
:102590004F900895149709F08ECF823009F45BC0F4
:1025A000660F771F660F771FDF01A60FB71F9B9679
:1025B0004D925D926D927C929E977DCF660F771FB4
:1025C000660F771FDF01A60FB71F9B964D915D9198
:1025D0006D917C919E9744295529662977299B9670
:1025E0004D935D936D937C939E9765CF660F771F98
:1025F000660F771FDF01A60FB71F9B964D915D9168
:102600006D917C919E974F5F5F4F6F4F7F4FE7CFEC
:10261000A091C704B091C804B787A68714968D917E
:102620009C911597918B808B14962D913C911597C9
:10263000CF010C96E9019B838A8315969C938E9318
:10264000149786EC94E0958B848B8091C6048F5F01
:102650008093C6047BCF80E08CCF0F931F93CF93E2
:10266000DF93FC018A01DC01A60FB11D9F968C91BE
:102670009F9792E09F969C9394E0699FD0011124CC
:10268000AE0FBF1F9B964D915D916D917C919E9772
:102690004F5F5F4F6F4F7F4F9B964D935D936D9351
:1026A0007C939E97813009F05AC08091A4048111D7
:1026B0005BC0A285B3852481358186819781E9013C
:1026C0009D838C8386819781EC013B832A839F01C4
:1026D0002E5F3F4F11964D915C9112974217530711
:1026E00021F412969C938E9311978C9181508C9328
:1026F000A6898091AF048A1710F4A093AF04D9E0A3
:10270000AD9FD0011124AB51BB4F11968D919C917F
:10271000129795838483EC014C815D8157834683B6
:102720004C815D81EA013B832A83EC013D832C834C
:10273000B387A2878C918F5F8C93A091A204B091F4
:10274000A304868956969C91981748F401151105A3
:1027500019F081E0F801808381E08093AB04DF9180
:10276000CF911F910F910895A091C704B091C80413
:10277000B787A68714968D919C911597918B808B26
:1027800014962D913C911597CF010C96E9019B83EE
:102790008A8315969C938E93149786EC94E0958B80
:1027A000848B8091C6048F5F8093C604C6CFFC01E2
:1027B000892B21F4E091A204F091A3040FB6F894C0
:1027C0000F92E60FF11D87A5823029F417A681E04C
:1027D0000F900FBE089580E0FBCFCF92DF92EF9273
:1027E000FF920F931F93FC0169017A01892B21F459
:1027F000E091A204F091A3040FB6F8940F9284E044
:10280000689FB0011124E60FF71F63A574A585A585
:1028100096A503A514A525A536A5C094D094E0944B
:10282000F094C022D122E222F322C3A6D4A6E5A6C8
:10283000F6A60F900FBE1F910F91FF90EF90DF90C3
:10284000CF9008951092A3041092A2041092BC0499
:102850001092B2041092B1041092B0041092AF041E
:102860001092AE041092AD041092AC041092AB041E
:102870001092AA041092A9041092A8041092A7041E
:102880001092A4040895FC010396928381832FEF94
:102890003FEF3483238396838583908787831082D9
:1028A0000895FC01118610860895CF93DF939C0153
:1028B000FB01DC011196CD91DC91D383C2838C8125
:1028C0009D81958384838C819D81DC0113967C930B
:1028D0006E9312977D836C8331872087F901808105
:1028E0008F5F8083DF91CF910895CF93DF93DC01D9
:1028F000FB01208131812F3F3207C9F417966D917A
:102900007C911897EB018A819B8193838283EC01F0
:10291000FD83EC8375836483EB01FB83EA83B187DA
:10292000A0878C918F5F8C93DF91CF910895CD011B
:102930000396BC01EC018A819B81EC01488159819D
:1029400024173507B0F7DECFCF93DF93FC01A085C6
:10295000B1858281938124813581EC013D832C8373
:10296000C481D5819B838A8311968D919C91129706
:102970008E179F0721F41296DC93CE931197118640
:1029800010868C9181508C93DF91CF910895FC013A
:102990006083DC017E931E9280E88E931E9257978F
:1029A0004C935E93CF01839708950FB6F894A89542
:1029B00080916000886180936000109260000FBE7B
:1029C00008950F920FB6F8940F921F9211242F9230
:1029D0003F924F925F926F927F928F929F92AF92AF
:1029E000BF92CF92DF92EF92FF920F931F932F939C
:1029F0003F934F935F936F937F938F939F93AF9387
:102A0000BF93CF93DF93EF93FF93A091A204B09174
:102A1000A3040DB60D920EB60D920E94E50BA09187
:102A2000A204B091A304CD91CDBFDD91DEBFFF9193
:102A3000EF91DF91CF91BF91AF919F918F917F9156
:102A40006F915F914F913F912F911F910F91FF9047
:102A5000EF90DF90CF90BF90AF909F908F907F903E
:102A60006F905F904F903F902F901F900F900FBEF0
:102A70000F9008950F920FB6F8940F921F921124A1
:102A80002F923F924F925F926F927F928F929F927E
:102A9000AF92BF92CF92DF92EF92FF920F931F936C
:102AA0002F933F934F935F936F937F938F939F9356
:102AB000AF93BF93CF93DF93EF93FF93A091A204C3
:102AC000B091A3040DB60D920EB60D920E94E50BC7
:102AD000A091A204B091A304CD91CDBFDD91DEBF42
:102AE000FF91EF91DF91CF91BF91AF919F918F9126
:102AF0007F916F915F914F913F912F911F910F9116
:102B0000FF90EF90DF90CF90BF90AF909F908F900D
:102B10007F906F905F904F903F902F901F900F90FD
:102B20000FBE0F9018950F920FB6F8940F921F9248
:102B300011242F923F924F925F926F927F928F92C9
:102B40009F92AF92BF92CF92DF92EF92FF920F933C
:102B50001F932F933F934F935F936F937F938F9325
:102B60009F93AF93BF93CF93DF93EF93FF93A09186
:102B7000A204B091A3040DB60D920EB60D9213BE31
:102B80000E94CE0981110E94E50BA091A204B09190
:102B9000A304CD91CDBFDD91DEBFFF91EF91DF9119
:102BA000CF91BF91AF919F918F917F916F915F91E5
:102BB0004F913F912F911F910F91FF90EF90DF90D8
:102BC000CF90BF90AF909F908F907F906F905F90CD
:102BD0004F903F902F901F900F900FBE0F90089531
:102BE0000E946504A091A204B091A304CD91CDBF31
:102BF000DD91DEBFFF91EF91DF91CF91BF91AF915A
:102C00009F918F917F916F915F914F913F912F9104
:102C10001F910F91FF90EF90DF90CF90BF90AF90FA
:102C20009F908F907F906F905F904F903F902F90EC
:102C30001F900F900FBE0F90089581E008950E949D
:102C400093151895CF93DF93D82FC92F0E94AC0905
:102C50008D2F9C2F0E94671FD82FC92F0E94C20A58
:102C60008D2F9C2FDF91CF910895CF93DF93EC01AF
:102C7000892B49F00E94AC09CE010E94FD1FDF9113
:102C8000CF910C94C20ADF91CF9108950F931F93B7
:102C9000CF93DF93FC01DA0173836283918780878E
:102CA00046175707B0F0A21BB30B84859585A8176C
:102CB000B907E8F4BF016E5F7F4F809113059091D3
:102CC00014050E94751480E0DF91CF911F910F9140
:102CD00008954217530718F46217730740F4BF01B1
:102CE0006E5F7F4F8091150590911605EACF81E0C8
:102CF000EBCFEF92FF920F931F93CF93DF93EC01F3
:102D00008B017A016C857D85600F711F9801A70189
:102D1000CE010E944616811107C0DF91CF911F910D
:102D20000F91FF90EF9008958C859D85080F191FD6
:102D3000E889F989CE010995E5CFEF92FF920F93CB
:102D40001F93CF93DF938C017B01E0911505F091E8
:102D500016050580F681E02DC681D781CE01029649
:102D60000E94A4142A8922FF0FC0A701B801CE0136
:102D70000E947916E889F989CE01DF91CF911F91E0
:102D80000F91FF90EF9009942E7F2A8BF3CFE09163
:102D90001505F0911605808181110DC080911305F4
:102DA000909114059093160580931505F0931405E2
:102DB000E093130508950580F681E02D6FEF7FEF16
:102DC000808191810E949D16E2CF0FB6F8940F92F8
:102DD0008091110590911205892BE9F480E295E02C
:102DE0000E94431487E195E00E94431480E295E03D
:102DF000909316058093150587E195E0909314054F
:102E00008093130540E065E08AE00E9415199093D5
:102E10001205809311050F900FBE0895EF92FF9257
:102E20000F930E94E5168091110590911205892B50
:102E300099F08FE0E82E85E0F82E03E020E030E006
:102E40004CE550E069E974E081E794E00E9468068F
:102E50000F91FF90EF90089580E0FACF9F92AF928C
:102E6000BF92CF92DF92EF92FF920F931F93CF9377
:102E7000DF93982EA92EB62EC72EF42ED22EE32E37
:102E800083E190E00E942216EC01892BA1F01A8ABE
:102E90000E94E5169882A982BC86CD86DE86EF86E2
:102EA000088B198BCE0102960E945114F11419F06F
:102EB0008A8984608A8BCE01DF91CF911F910F9117
:102EC000FF90EF90DF90CF90BF90AF909F900895CC
:102ED0000F931F93CF93DF9300D000D00F92CDB705
:102EE000DEB72091110530911205232B59F480E0B3
:102EF0000F900F900F900F900F90DF91CF911F9137
:102F00000F91089569834A835B838C839D83663028
:102F100074F70E94A30E282F80911105909112053D
:102F2000223041F420E0A801BE016F5F7F4F0E9474
:102F30005119DECF20E040E050E0F6CFCF93DF9391
:102F400000D000D00F92CDB7DEB7F42FE52FA90146
:102F5000A0911105B0911205109749F480E00F90EF
:102F60000F900F900F900F90DF91CF91089569838C
:102F7000FA83EB838C839D83663084F320E0BE016B
:102F80006F5F7F4FCD010E94241AE9CF80910F051A
:102F9000909110050895FC01848595850895FC01A4
:102FA0000FB6F8940F928289611529F08460828BA4
:102FB0000F900FBE08958B7FFACFFC010FB6F894E7
:102FC0000F92828982FB882780F90F900FBE0895A7
:102FD0000C94DD17FC01828193810895FC018081AE
:102FE00091810895FC010FB6F8940F928289817047
:102FF0000F900FBE0895FC010FB6F8940F928685CE
:1030000097850F900FBE0895FC010FB6F8940F92AC
:10301000668777870F900FBE089510921205109261
:1030200011051092100510920F050895FC010FB6BE
:10303000F8940F92928D0F900FBE81E0911180E075
:1030400008950F931F93CF93DF93EC01042F1A8DF4
:103050008C8D811111C088819981892B09F58C8112
:103060009D810E94280F1D821C821F5F1A8FDF9195
:10307000CF911F910F910895482F50E0011117C073
:103080008A819B810E948E202C8D8A819B81820F58
:10309000911D9B838A832C813D818217930710F4B5
:1030A00080E0E3CF888199819B838A83F9CF8E81E9
:1030B0009F810E948E202C8D30E044275527421B93
:1030C000530B8E819F81821B930B9F838E8328815C
:1030D00039818217930730F48C819D81840F951F6D
:1030E0009F838E830230E1F61115D1F21150D8CFB3
:1030F000FC01CB01248D211599F0422F50E066810F
:103100007781620F711D7783668324813581621711
:10311000730720F060817181778366830C948E2021
:103120000895EF92FF921F93CF93DF93EC010FB6B8
:10313000F8940F921E8D7C0181E1E80EF11C1116AE
:103140001CF4898981111BC08FEF8E8F0F900FBEE9
:103150000FB6F8940F921D8D7E0188E0E80EF11CE9
:1031600011161CF48885811112C08FEF8D8F0F907E
:103170000FBEDF91CF911F91FF90EF900895C7018F
:103180000E940F0D81110E947E0E1150D8CFC701F1
:103190000E940F0D81110E947E0E1150E1CFCF933E
:1031A000DF93EC01892B09F43EC08B8D811509F466
:1031B0003AC00FB6F8940F92888199812B8D4C8D6F
:1031C000FC01249FE00DF11D1124FD83EC831A8E78
:1031D0009B838A832150330B429FF001439FF00D64
:1031E00011248E0F9F1F9F838E838FEF8D8F8E8F65
:1031F000611110C08885811539F0CE0108960E94B2
:103200000F0D81110E94E1140F900FBE81E0DF913C
:10321000CF910895CE0108960E944314CE014196A5
:103220000E944314F1CF80E0F2CF0F931F93CF930E
:10323000DF93082F162F811108C0C0E0D0E0CE0127
:10324000DF91CF911F910F910895869FC0011124A6
:103250004F960E942216EC01009779F311114F96B8
:10326000998388830B8F1C8F61E0CE010E94CF1859
:10327000E6CF1F93CF93DF93162F811579F0861732
:1032800068F042E060E00E941519EC01892B09F01A
:103290001A8FCE01DF91CF911F910895C0E0D0E049
:1032A000F8CFAF92BF92DF92EF92FF920F931F93EE
:1032B000CF93DF9300D000D00F92CDB7DEB78C0153
:1032C000E62ED72E5D834C83F22E80E0580198E0E5
:1032D000A90EB11C0FB6F8940F92F801228D938DB0
:1032E000291718F54F2D6E2D7D2DC8010E9421182C
:1032F000F8019189911521F0C80141960E940F0DA6
:1033000081110E94E1140F900FBE81E00F900F9089
:103310000F900F900F90DF91CF911F910F91FF9021
:10332000EF90DF90BF90AF900895F2E0FF16D1F2DA
:103330002C813D81232B21F40F900FBE80E0E6CF3E
:10334000811104C0CE0101960E94430E0F900FBE62
:103350000E94AC090FB6F8940F92F801858D8F3F4B
:1033600009F4158EF801868D8F3F09F4168E0F90A3
:103370000FBEBE016C5F7F4FCE0101960E944E0EC4
:10338000811120C00FB6F8940F92F801928D838DB1
:103390000F900FBE981310C06C817D81C5010E94F3
:1033A000770CC8010E9491180E94C20A811102C0C4
:1033B0000E94E11481E08ECFC8010E9491180E9402
:1033C000C20AF8CFC8010E9491180E94C20AB6CF63
:1033D000CF93DF93482F60E081E00E941519EC0144
:1033E000009761F01D821C82198218821E8220E0E3
:1033F00040E050E060E070E00E945119CE01DF91A2
:10340000CF9108950F931F93CF93DF93EC010C811D
:103410001D810E94940E08171907A1F48E81815016
:103420008E83811531F081E0DF91CF911F910F9153
:10343000089520E040E050E060E070E0CE010E949E
:103440005119F1CF80E0F0CFEF92FF921F93CF930D
:10345000DF93EC017A01422F9A8D8B8D981718F02B
:1034600080E02230B9F41E8D8A8DCE010E94211891
:103470001F3FB1F48989811561F0CE0141960E9408
:103480000F0D811531F0E114F10419F081E0F7011D
:10349000808381E0DF91CF911F91FF90EF9008959D
:1034A0000E94C1091817A8F71F5F1E8FF2CFEF9275
:1034B000FF921F93CF93DF93EC017B018A8D9B8D4D
:1034C000891710F51E8D8F5F8A8F1F3FB1F4898990
:1034D000811561F0CE0141960E940F0D811531F0EA
:1034E000E114F10419F081E0F701808381E0DF91BC
:1034F000CF911F91FF90EF9008950E94C109181776
:10350000A8F71F5F1E8FF2CF80E0F1CFAF92BF927E
:10351000DF92EF92FF920F931F93CF93DF9300D030
:1035200000D00F92CDB7DEB78C01E62ED72E5D838B
:103530004C8380E0580191E1A90EB11C0FB6F894BC
:103540000F92F801F28CF11421F16E2D7D2DC8013E
:103550000E947818FA94F801F28E8085811539F06E
:10356000C80108960E940F0D81110E94E1140F906E
:103570000FBE81E00F900F900F900F900F90DF9192
:10358000CF911F910F91FF90EF90DF90BF90AF9080
:1035900008952C813D81232B21F40F900FBE80E0F4
:1035A000E9CF811104C0CE0101960E94430E0F9015
:1035B0000FBE0E94AC090FB6F8940F92F801858DEA
:1035C0008F3F09F4158EF801868D8F3F09F4168E12
:1035D0000F900FBEBE016C5F7F4FCE0101960E941F
:1035E0004E0E81111BC0C8010E941618811581F072
:1035F0006C817D81C5010E94770CC8010E949118E1
:103600000E94C20A811102C00E94E11481E096CF9B
:10361000C8010E9491180E94C20AF8CFC8010E94F6
:1036200091180E94C20AC8010E941618811571F3F0
:10363000B6CFCF92DF92FF920F931F93CF93DF937A
:1036400000D000D00F92CDB7DEB78C017D836C83A4
:10365000F12C90E0680181E1C80ED11C0FB6F894FE
:103660000F92D8015A968C915A97811549F1815041
:103670005A968C935A978D919C91892B29F40E948C
:10368000ED0FF80195838483D80118968C918115EC
:1036900039F0C80108960E940F0D81110E94E114B3
:1036A0000F900FBE81E00F900F900F900F900F9032
:1036B000DF91CF911F910F91FF90DF90CF900895F0
:1036C0002C813D81232B21F40F900FBE80E0EBCFA6
:1036D000911104C0CE0101960E94430E0F900FBEBF
:1036E0000E94AC090FB6F8940F92F801858D8F3FB8
:1036F00009F4158ED8015E968C915E978F3F11F478
:103700005E961C920F900FBEBE016C5F7F4FCE0184
:1037100001960E944E0E81112AC0C8010E941618FF
:103720008115F9F0F80180819181892B51F40FB650
:10373000F8940F92848195810E94B00EF82E0F901C
:103740000FBE6C817D81C6010E94770CC8010E946A
:1037500091180E94C20A811102C00E94E11491E0F6
:103760007DCFC8010E9491180E94C20AF8CFC801FB
:103770000E9491180E94C20AC8010E941618811561
:1037800071F3F11409F4A2CF0FB6F8940F92F80177
:103790006189611531F00688F789E02D808164E048
:1037A000681BD80114968D919C910E94770F8CCF45
:1037B000EF92FF920F931F93CF93DF93EC018B0156
:1037C000EC80FD800E94940EE816F90629F48E81A3
:1037D0008F5F8E8381E006C0B801CE010E94191B65
:1037E0008111F5CFDF91CF911F910F91FF90EF9055
:1037F0000895CF92DF92EF92FF920F931F93CF9392
:10380000DF9300D000D00F92CDB7DEB78C01F62E3B
:10381000E72E5D834C8380E0680191E1C90ED11CE5
:103820000FB6F8940F92F801928D911529F1C68088
:10383000D7806F2D7E2DC8010E947818F801D7829D
:10384000C6828189811539F0C80141960E940F0D09
:1038500081110E94E1140F900FBE81E00F900F9034
:103860000F900F900F90DF91CF911F910F91FF90CC
:10387000EF90DF90CF9008952C813D81232B21F490
:103880000F900FBE80E0EACF811104C0CE010196F7
:103890000E94430E0F900FBE0E94AC090FB6F89421
:1038A0000F92F801858D8F3F09F4158EF801868DF2
:1038B0008F3F09F4168E0F900FBEBE016C5F7F4FD5
:1038C000CE0101960E944E0E81111BC0C8010E94BC
:1038D0001618811581F06C817D81C6010E94770CDC
:1038E000C8010E9491180E94C20A811102C00E9460
:1038F000E11481E095CFC8010E9491180E94C20A8C
:10390000F8CFC8010E9491180E94C20AC8010E9403
:103910001618811571F3B6CFEF92FF920F931F9394
:10392000CF93DF93EC017A010A8D80E00115C1F09D
:103930001D8DCE010E94781801500A8F1F3FB9F4E7
:103940008885811561F0CE0108960E940F0D8115C2
:1039500031F0E114F10419F081E0F701808381E096
:10396000DF91CF911F910F91FF90EF9008950E94EA
:10397000C1091817A0F71F5F1D8FF1CF0F931F9379
:10398000CF93DF93EC018A8D811569F00E811F8141
:10399000CE010E9478181F830E8381E0DF91CF91C2
:1039A0001F910F91089580E0F9CFFC010FB6F894B4
:1039B0000F92828D0F900FBE0895FC010FB6F89400
:1039C0000F92928D838D891B0F900FBE0895FC017D
:1039D000828D08950C943516FC01848D0895FC01A8
:1039E000838D0895FC01928D81E0911180E008950E
:1039F000FC01928D81E0238D291380E00895CF93FF
:103A0000DF93EC010FB6F8940F928D8D8F3F09F480
:103A10001D8E8E8D8F3F09F41E8E0F900FBE8A8DE6
:103A2000811104C0CE0141960E94CF0CCE01DF91DE
:103A3000CF910C94911897FB072E16F4009407D0A1
:103A400077FD09D00E945B1D07FC05D03EF49095E0
:103A500081959F4F0895709561957F4F0895052E2C
:103A600097FB1EF400940E94461D57FD07D00E944C
:103A70006F1D07FC03D04EF40C94461D50954095E5
:103A8000309521953F4F4F4F5F4F0895909580950A
:103A9000709561957F4F8F4F9F4F0895EE0FFF1FD9
:103AA0000590F491E02D09940E94911DB7FF0895AF
:103AB000821B930B0895AA1BBB1B51E107C0AA1FD1
:103AC000BB1FA617B70710F0A61BB70B881F991FBF
:103AD0005A95A9F780959095BC01CD010895A1E272
:103AE0001A2EAA1BBB1BFD010DC0AA1FBB1FEE1F78
:103AF000FF1FA217B307E407F50720F0A21BB30BC3
:103B0000E40BF50B661F771F881F991F1A9469F73E
:103B100060957095809590959B01AC01BD01CF019A
:103B20000895A29FB001B39FC001A39F700D811D96
:103B30001124911DB29F700D811D1124911D0895B6
:103B40005058BB27AA270E94B81D0C94C01E0E9483
:103B5000B21E38F00E94B91E20F039F49F3F19F4CC
:103B600026F40C94AF1E0EF4E095E7FB0C94A91E0E
:103B7000E92F0E94D11E58F3BA1762077307840712
:103B8000950720F079F4A6F50C94F31E0EF4E09559
:103B90000B2EBA2FA02D0B01B90190010C01CA0107
:103BA000A0011124FF27591B99F0593F50F4503EB2
:103BB00068F11A16F040A22F232F342F4427585FA4
:103BC000F3CF469537952795A795F0405395C9F7BC
:103BD0007EF41F16BA0B620B730B840BBAF0915074
:103BE000A1F0FF0FBB1F661F771F881FC2F70EC013
:103BF000BA0F621F731F841F48F4879577956795E6
:103C0000B795F7959E3F08F0B0CF9395880F08F0D1
:103C10009927EE0F9795879508950E94851E08F4C1
:103C200081E008950E94191E6894B1110C94F41E4D
:103C300008950E94D91E88F09F5798F0B92F9927B0
:103C4000B751B0F0E1F0660F771F881F991F1AF087
:103C5000BA95C9F714C0B13091F00E94F31EB1E0DB
:103C600008950C94F31E672F782F8827B85F39F0DA
:103C7000B93FCCF3869577956795B395D9F73EF420
:103C800090958095709561957F4F8F4F9F4F0895C8
:103C9000E89409C097FB3EF49095809570956195E6
:103CA0007F4F8F4F9F4F9923A9F0F92F96E9BB279C
:103CB0009395F695879577956795B795F111F8CF18
:103CC000FAF4BB0F11F460FF1BC06F5F7F4F8F4F83
:103CD0009F4F16C0882311F096E911C0772321F079
:103CE0009EE8872F762F05C0662371F096E8862F11
:103CF00070E060E02AF09A95660F771F881FDAF768
:103D0000880F9695879597F90895990F0008550F94
:103D1000AA0BE0E8FEEF16161706E807F907C0F051
:103D200012161306E407F50798F0621B730B840B59
:103D3000950B39F40A2661F0232B242B252B21F433
:103D400008950A2609F4A140A6958FEF811D811DD3
:103D5000089597F99F6780E870E060E008959FEF0D
:103D600080EC089500240A94161617061806090612
:103D7000089500240A9412161306140605060895E1
:103D8000092E0394000C11F4882352F0BB0F40F469
:103D9000BF2B11F460FF04C06F5F7F4F8F4F9F4FA9
:103DA000089557FD9058440F551F59F05F3F71F02B
:103DB0004795880F97FB991F61F09F3F79F0879592
:103DC0000895121613061406551FF2CF4695F1DF1B
:103DD00008C0161617061806991FF1CF86957105AB
:103DE000610508940895E894BB2766277727CB01DF
:103DF00097F908950E940D1F0C94C01E0E94B21ED8
:103E000038F00E94B91E20F0952311F00C94A91EE1
:103E10000C94AF1E11240C94F41E0E94D11E70F35A
:103E2000959FC1F3950F50E0551F629FF001729F5F
:103E3000BB27F00DB11D639FAA27F00DB11DAA1F6E
:103E4000649F6627B00DA11D661F829F2227B00DBB
:103E5000A11D621F739FB00DA11D621F839FA00D46
:103E6000611D221F749F3327A00D611D231F849F96
:103E7000600D211D822F762F6A2F11249F575040ED
:103E80009AF0F1F088234AF0EE0FFF1FBB1F661F68
:103E9000771F881F91505040A9F79E3F510580F031
:103EA0000C94A91E0C94F41E5F3FE4F3983ED4F3E7
:103EB000869577956795B795F795E7959F5FC1F7D5
:103EC000FE2B880F911D9695879597F908950F936E
:103ED0001F93CF93DF939C01029710F422E030E010
:103EE000E0912905F0912A0580E090E0A0E0B0E0A3
:103EF000309791F4009709F448C0821B930B8430EB
:103F00009105D0F58A819B816115710581F1FB01D5
:103F100093838283FE0111C040815181028113810C
:103F200042175307D8F04217530799F4109761F0DE
:103F300012960C93129713961C933296CF01DF9131
:103F4000CF911F910F9108950093290510932A0591
:103F5000F4CF009751F04817590738F0AC01DB0156
:103F6000CA01BD01DF01F801C3CFEF01F9CF909382
:103F70002A0580932905CECFFE01E80FF91F219372
:103F80003193029799838883D9CF40912B05509123
:103F90002C054115510541F4409102015091030156
:103FA00050932C0540932B058091000190910101C5
:103FB000009741F48DB79EB760910401709105019F
:103FC000861B970B4817590708F0B8CF841B950B31
:103FD0008217930708F4B2CFB9016E5F7F4F86173F
:103FE000970708F4ABCF640F751F70932C0560938F
:103FF0002B05FA0121933193A1CFCF93DF939C013D
:104000000097E9F0FC01329713821282C0912905D2
:10401000D0912A05DE0180E090E02097A1F4808114
:104020009181280F391F80912B0590912C058217C3
:10403000930709F068C0F0932C05E0932B05DF91FE
:10404000CF910895DA01AE17BF0708F042C012966B
:104050004D915C911397CD014115510599F7DC0104
:104060001396FC93EE9312974D915D919D01240F51
:10407000351FE217F30781F4208131812E5F3F4F16
:10408000240F351FDC0111963C932E93228133813E
:1040900013963C932E931297E0E0F0E08A819B8187
:1040A0000097B1F5DE018D919D918A0F9B1F2091A4
:1040B0002B0530912C052817390709F6309759F54B
:1040C00010922A0510922905D0932C05C0932B0538
:1040D000B6CFB383A28340815181240F351FA2172D
:1040E000B30771F44E5F5F4F2D913C911197240FF0
:1040F000351F3183208312962D913C913383228387
:10410000009709F0ACCFF0932A05E093290597CFEB
:10411000FE01EC01C3CF13821282D6CFFB01DC017A
:1041200002C001900D9241505040D8F70895DC0133
:1041300001C06D9341505040E0F70895BB274A30CD
:1041400031F4992322F4BDE2909581959F4F0C9410
:10415000AA20BB27FB015527AA27880F991FAA1F52
:10416000A41710F0A41B83955051B9F7A05DAA3392
:1041700008F0A95DA193009779F7B111B19311925D
:10418000CB010C94C320DC01FC01672F71917723D4
:10419000E1F7329704C07C916D9370836291AE1702
:1041A000BF07C8F30895F894FFCF090509054D0529
:0C41B00035054705090509054D053505D5
:1041BC0000002D052000000039007200AB00E40067
:1041CC001C0154018B01C101F7012D026202960200
:1041DC00CA02FD02300362039403C503F5032504F0
:1041EC0053048204AF04DC040805340560058B0518
:1041FC00B605E0050A0634065D068606AF06D70648
:10420C00FF0627074F0776079D07C407EB07110822
:10421C0037085D088308A908CE08F3080344454213
:10422C0055473A205461736B204D5055363035301C
:10423C0020696E696369616461210D0A004445421D
:10424C0055473A2054657374616E646F20636F6ECA
:10425C006578616F204D5055363035302E2E2E0D31
:10426C000A004552524F3A204D50553630353020C9
:10427C006E616F20656E636F6E747261646F210D79
:10428C000A005665726966697175652061732063F1
:10429C006F6E65786F657320493243202853444113
:1042AC002F53434C290D0A004C454420706973630D
:1042BC00616E646F207261706964616D656E7465A6
:1042CC002E2E2E0D0A004D50553630353020636F92
:1042DC006E65637461646F20636F6D2073756365C5
:1042EC0073736F210D0A00436F6E66696775726197
:1042FC00636F65733A0D0A002D204163656C65721E
:10430C006F6D6574726F3A202B2F2D2032670D0A5A
:10431C00002D204769726F73636F70696F3A202BA1
:10432C002F2D203235302067726175732F730D0A73
:10433C00002D205461786120646520616D6F737469
:10434C00726167656D3A2034487A0D0A003D3D3D37
:10435C003D3D3D3D3D3D3D3D3D3D3D3D3D3D3D3D81
:10436C003D3D3D3D3D3D3D3D3D3D3D3D3D3D3D3D71
:10437C003D3D3D3D3D0D0A00496E696369616E64CA
:10438C006F206C656974757261732E2E2E0D0A0D7B
:10439C000A002D2D2D20416D6F7374726120230046
:1043AC00202D2D2D0D0A004163656C65726F6D65B6
:1043BC0074726F3A0D0A002020583A200020726166
:1043CC007720280067290D0A002020593A20002068
:1043DC00205A3A20004769726F73636F70696F3AA5
:1043EC000D0A00206465672F73290D0A004F72694E
:1043FC00656E746163616F20286C6F6F6B757020D4
:10440C007461626C65293A0D0A002020526F6C6C45
:10441C003A2020002E00C2B00D0A002020506974F2
:10442C0063683A200054656D7065726174757261D1
:10443C003A200020C2B043290D0A0020202020532E
:10444C00495354454D41204D505536303530202B75
:10445C00204672656552544F530D0A00496E6963CC
:10446C0069616C697A616E646F2E2E2E0D0A0044A0
:10447C00454255473A20496E696369616E646F2005
:10448C004D5055363035302E2E2E0D0A00444542F7
:10449C0055473A204D50553630353020696E69639A
:1044AC0069616C697A61646F210D0A00444542555B
:1044BC00473A20437269616E646F207461736B7349
:1044CC002E2E2E0D0A006C65640044454255473A69
:1044DC00205461736B204C454420637269616461A4
:1044EC00210D0A006D70753630353000444542554B
:1044FC00473A205461736B204D505536303530207F
:10450C00637269616461210D0A0044454255473A62
:10451C0020496E696369616E646F207363686564BA
:10452C00756C65722E2E2E0D0A004552524F3A2094
:10453C005363686564756C65722066616C686F7531
:10454C00210D0A0049444C4500546D72205376638A
:02455C0000005D
:00000001FF
