:100000000C9434000C9451000C9451000C94510049
:100010000C9451000C9451000C9412160C94510045
:100020000C9451000C9451000C9451000C9451000C
:100030000C9451000C9451000C9451000C945100FC
:100040000C9451000C9451000C9451000C945100EC
:100050000C9451000C9451000C9451000C945100DC
:100060000C9451000C94510011241FBECFEFD8E026
:10007000DEBFCDBF14E0A0E0B1E0E2EAF1E402C0EF
:1000800005900D92AA38B107D9F725E0AAE8B4E0A7
:1000900001C01D92A531B207E1F70E9453050C94EF
:1000A000C6200C9400009093C5008093C40088E1A2
:1000B0008093C10086E08093C20008959091C000B3
:1000C00095FFFCCF8093C60008958091C00087FF04
:1000D000FCCF8091C6000895CF93DF93EC01899106
:1000E000811103C0DF91CF9108950E945E00F7CF88
:1000F000CF93DF93CDB7DEB72A970FB6F894DEBF64
:100100000FBECDBF4AE0BE016F5F7F4F0E949120BE
:10011000CE0101960E946C002A960FB6F894DEBFBD
:100120000FBECDBFDF91CF9108952F923F924F9296
:100130005F926F927F928F929F92AF92BF92CF9277
:10014000DF92EF92FF920F931F93CF93DF93CDB780
:10015000DEB768970FB6F894DEBF0FBECDBF362E60
:10016000272E8D8B9E8B80E061E070E0788F6F8B07
:100170009AE0841394C0032D122D2D893E89C90164
:10018000B8010E94051E6B01072E000C880B990B0D
:100190000E943D1E2B013C01A30192013D822E8253
:1001A0007D897F838E8988876D817E818F81988507
:1001B0000E94931D2B013C01EF89F88DBF01FF0FB9
:1001C000880B990B0E943D1E4B015C01A501940117
:1001D00049865A866B867C8669857A858B859C855F
:1001E0000E94ED1E6D877E878F87988B6D857E853B
:1001F0008F8598890E94051E69837A838B839C83EF
:10020000A980BA8020E030E0A901398A2A8AFD89D4
:10021000FB8B6E896C8B69897A898B899C890E949A
:10022000001E87FF06C0C114D10419F48DE20E949C
:100230005E00C6010E9478008EE20E945E008F89F7
:10024000988D6AE070E00E940E1D7E836D830AE047
:1002500010E08D819E81A816B90664F189819A818A
:1002600097FF03C091958195910968960FB6F89410
:10027000DEBF0FBECDBFDF91CF911F910F91FF90D9
:10028000EF90DF90CF90BF90AF909F908F907F9036
:100290006F905F904F903F902F900C9478006F89F3
:1002A000788D969FF001979FF00D1124F88FEF8BBA
:1002B0008F5F5FCFED81FE81329784F280E30E94F1
:1002C0005E008D819E81B8010E940E1D7E836D832C
:1002D000C0CF0F931F93CF93DF93EC018B01672B5C
:1002E00041F484E893E01C161D06C4F18CE79CEFF2
:1002F00035C0DC0197FF04C0AA27BB27A81BB90B98
:100300002AE030E00E94471D980117FF04C0222711
:100310003327201B310B032E000C440B550B0E947E
:10032000221D233331054105510524F022E330E03D
:1003300040E050E0F901EE0FFF1FEA5FFE4F8081C1
:10034000918117FF06C028E037E0A901481B590B2F
:10035000CA01D7FF03C0919581959109DF91CF9193
:100360001F910F910895CF93DF93CDB7DEB72F97ED
:100370000FB6F894DEBF0FBECDBF8DE691E00E94B0
:100380006C008DE891E00E946C000E945504811180
:1003900015C082EB91E00E946C0082ED91E00E941A
:1003A0006C0088EF91E00E946C0010E285B181271B
:1003B00085B986E090E00E94AB0BF8CF86E192E031
:1003C0000E946C0087E392E00E946C0088E492E057
:1003D0000E946C0081E692E00E946C0081E892E04D
:1003E0000E946C008DE992E00E946C0088EC92E023
:1003F0000E946C00CC24C394D12C80E063E8A62E2C
:10040000B12C7AE0672E712CE4E54E2E55245394DE
:1004100091E098279F87813009F42CC12D9ACE0155
:1004200001960E94E6038D809E80B4018B819C81A1
:100430000E9469011C0189819A81B401919581957D
:1004400091090E9469014C0182EE92E00E946C00C9
:10045000C6010E94780080EF92E00E946C0087EF56
:1004600092E00E946C0087E093E00E946C0089811A
:100470009A810E9478008DE093E00E946C0089814F
:100480009A8197FF02C08150904C990F880B990F69
:10049000982F881F0E94780084E193E00E946C00EE
:1004A00089E193E00E946C008B819C810E9478001E
:1004B0008DE093E00E946C008B819C8197FF02C0CD
:1004C0008150904C990F880B990F982F881F0E948C
:1004D000780084E193E00E946C008FE193E00E9439
:1004E0006C008D819E810E9478008DE093E00E94D7
:1004F0006C008D819E8197FF02C08150904C990FB6
:10050000880B990F982F881F0E94780084E193E050
:100510000E946C0085E293E00E946C0087E093E00B
:100520000E946C0089859A850E9478008DE093E096
:100530000E946C0089859A85B5010E940E1DCB0131
:100540000E94780083E393E00E946C0089E193E0CD
:100550000E946C008B859C850E9478008DE093E062
:100560000E946C008B859C85B5010E940E1DCB01FD
:100570000E94780083E393E00E946C008FE193E097
:100580000E946C008D859E850E9478008DE093E02E
:100590000E946C008D859E85B5010E940E1DCB01C9
:1005A0000E94780083E393E00E946C008DE393E067
:1005B0000E946C008AE593E00E946C00C101B301C7
:1005C0000E940E1D1C01CB010E94780084E693E07E
:1005D0000E946C00710137FE03C0F194E194F108B0
:1005E000C7010E94780086E693E00E946C008BE6CB
:1005F00093E00E946C00C401B3010E940E1D4C01E7
:10060000CB010E94780084E693E00E946C00840194
:1006100097FE03C0119501951109C8010E94780049
:1006200086E693E00E946C0085E793E00E946C00F0
:100630008F8198850E9478008DE093E00E946C0085
:100640008F819885B2010E940E1DCB0185960E9474
:10065000780083E893E00E946C008FED92E00E94A6
:100660006C008EE390E00E94AB0B8FEFC81AD80AA3
:100670008F85CECE2D98D3CE259A15B880E190E007
:100680000E9453008FED92E00E946C008DE992E091
:100690000E946C008BE893E00E946C008DE992E070
:1006A0000E946C008CEA93E00E946C008FEB93E058
:1006B0000E946C000E94AB038DED93E00C946C00E3
:1006C0001092B90088E48093B80084E08093BC0065
:1006D000089584EA8093BC008091BC0087FFFCCF22
:1006E000089584E98093BC0008958093BB0084E85A
:1006F0008093BC008091BC0087FFFCCF8091B90043
:10070000887F089584EC8093BC008091BC0087FFB3
:10071000FCCF8091BB00089584E88093BC00809159
:10072000BC0087FFFCCF8091BB000895CF93DF937F
:10073000D82FC62F0E94690380ED0E9475038D2F6C
:100740000E9475038C2F0E94750384E98093BC007E
:10075000DF91CF9108950E9460032FEF81EE94E026
:10076000215080409040E1F700C0000060E08BE63F
:100770000E9496038FE39CE90197F1F700C0000007
:1007800067E089E10E94960366E08AE10E94960391
:1007900060E08BE10E94960360E08CE10C9496038C
:1007A000CF93C82F0E94690380ED0E9475038C2FA0
:1007B0000E9475030E94690381ED0E9475030E94E7
:1007C0008C0394E99093BC00CF910895CF92DF926F
:1007D000EF92FF920F931F93CF93DF93CDB7DEB7C6
:1007E0002E970FB6F894DEBF0FBECDBF8C010E94CE
:1007F000690380ED0E9475038BE30E9475030E94DC
:10080000690381ED0E947503CE0101967C016E01A2
:100810009EE0C90ED11C0E948203F70181937F01E3
:10082000EC15FD05C1F70E948C0394E99093BC0080
:1008300029813A81322723273227F8013183208307
:100840002B813C81322723273227338322832D813A
:100850003E81322723273227358324832F81388511
:100860003227232732273783268329853A85322763
:1008700023273227318720872B853C853227232762
:100880003227338722879D85958784872E960FB6DA
:10089000F894DEBF0FBECDBFDF91CF911F910F91B6
:1008A000FF90EF90DF90CF90089585E70E94D003EE
:1008B000982F81E0983609F080E008950E94310673
:1008C0008091CD048230D0F30E94D414F7CFA89544
:1008D00088E190EC0FB6F894A895809360000FBE65
:1008E000909360000895CF93DF9300D000D00F92D3
:1008F000CDB7DEB785E0782ECE0101964C01682E8B
:10090000592CE091FD04F091FE041081A12CB12C32
:10091000111529F00580F681E02DA080B1800E949C
:100920009F090E94A5096C018091F5049091F6043D
:10093000C816D90608F047C00E94BA16D092F6042D
:10094000C092F5040E94B50AD401E72D1D92EA95E4
:10095000E9F740E050E0662D752D8091F904909103
:10096000FA040E94791A811561F2898187FDF1CF1D
:100970000C811D81D8011A968D919C91892B21F0B3
:10098000C80102960E9497140E94A5097C018091DB
:10099000F5049091F604E816F90610F40E94BA16D0
:1009A000F092F604E092F504E981E150E93088F62E
:1009B0000E2E000CFF0BE853FF4DD80152968C9180
:1009C00052970C94411DD092F604C092F504111573
:1009D00051F0CA14DB0470F00E94B50AB601C501DB
:1009E0000E949016B1CFE091FB04F091FC0441E02D
:1009F0008081811140E0B5016C197D098091F90475
:100A00009091FA040E94F21C0E94B50A81119CCFB9
:100A10000E94D41499CF8160F801828B2A813B8196
:100A200064857585620F731FA701C8010E9439167E
:100A3000811509F48ECFD80152968C91529782FF7E
:100A400012C06A817B811C968D919C91680F791FE1
:100A5000A701C8010E946C16D8015096ED91FC9137
:100A6000C801099576CF8E7FF801828BF5CF816022
:100A700052968C9352976A817B811D967C936E93DC
:100A80001C976E0D7F1D9701A701C8010E943916A2
:100A900060CF81FD04C0C8010E9428165ACF8E7F06
:100AA000F801828B56CF0E943C038CEF93E00E94AA
:100AB0006C00E12CF12C01E020E030E040EC50E053
:100AC0006DE174E083EB91E00E945B0685E294E0C7
:100AD0000E946C0083E494E00E946C000E9448092C
:100AE00083E694E00E946C00FFCFAF92BF92DF924A
:100AF000EF92FF920F931F93CF93DF93EC01D62ECB
:100B0000A0909804B09099040091B9041091BA048F
:100B1000E090B704F090B80480918A0490918B041F
:100B200002960E949714CF3FDC0709F042C0D1140F
:100B300009F43FC0E0919C04F0919D04A0918A04C7
:100B4000B0918B041596FC93EE931497A0918A04B0
:100B5000B0918B048481958117969C938E93169700
:100B600080918A0490918B04A481B581029613969A
:100B70009C938E93129780918A0490918B04029695
:100B800095838483E0918A04F0918B048BE994E04F
:100B90009387828780919B048F5F80939B04DF9172
:100BA000CF911F910F91FF90EF90DF90BF90AF908A
:100BB0000895CA0DDB1DE0918A04F0918B04D38364
:100BC000C28360918A0470918B046E5F7F4FCA1557
:100BD000DB0560F4C701DF91CF911F910F91FF906A
:100BE000EF90DF90BF90AF900C946814C8010E9402
:100BF000681480918F0490919004C817D90778F6F3
:100C0000D0939004C0938F04CACFFC018285938552
:100C10008B59944061F48489958924E08E3A920737
:100C200031F0892B21F497A581E0913009F480E01F
:100C30000895E091B904F091BA048081811107C050
:100C40008FEF9FEF9093900480938F040895E0912D
:100C5000B904F091BA040580F681E02D808191817C
:100C6000F1CFCF93DF938091A404811103C0DF9172
:100C7000CF9108950FB6F8940F92E091AA04F091E5
:100C8000AB04C681D781CE0102960E949714809151
:100C90009A04815080939A048091A4048150809397
:100CA000A4040F900FBE8F89988D0E942816CE0144
:100CB0000E942816D8CF3F924F925F926F927F92F8
:100CC0008F929F92AF92BF92CF92DF92EF92FF925C
:100CD0000F931F93CF93DF93482E392E6B015A0148
:100CE000522E132F3701CA010E9415164C01892B71
:100CF00099F48FEFDF91CF911F910F91FF90EF90BB
:100D0000DF90CF90BF90AF909F908F907F906F902B
:100D10005F904F903F90089580E390E00E941516F9
:100D2000EC01892B09F4C6C080E3FE0111928A957B
:100D3000E9F7988E8F8AA50165EA70E0C4010E94E8
:100D40008A20C5010197AF88B88CA80EB91EC114BE
:100D5000D10409F0B3C0043008F003E00E8B09A7FA
:100D60006E01F2E0CF0ED11CC6010E944414CE01E8
:100D70000C960E944414D987C88784E090E0801BB9
:100D800091099D878C87DB8BCA8B452D512F642D54
:100D9000732DC5010E94BA1499838883611471046C
:100DA00019F0F301D183C0830FB6F8940F928091AC
:100DB0009A048F5F80939A0480918A0490918B04A7
:100DC000892B09F08AC0D0938B04C0938A04809148
:100DD0009A04813081F58DEC94E00E94361486ED02
:100DE00094E00E9436148FED94E00E94361488EE51
:100DF00094E00E94361484EC94E00E9436148BEB4D
:100E000094E00E9436148EEA94E00E94361485EA3B
:100E100094E00E9436148BE994E00E94361484EC2E
:100E200094E09093BA048093B9048BEB94E0909390
:100E3000B8048093B704809191048F5F80939104EC
:100E4000EE89809197048E1710F4E093970489E05F
:100E5000E89FF00111249F0123533B4FF901A18129
:100E6000B281BD83AC8314968D919C9115979F831D
:100E70008E8314968D919C911597FC01D382C2822A
:100E80001596DC92CE9214973B872A87F9018081D0
:100E90008F5F80830F900FBE80919604811541F083
:100EA000E0918A04F0918B0496898E89981738F125
:100EB00081E020CFC4010E9428161BCFF601DE017D
:100EC00059969601205F3F4F81918D93811519F0BE
:100ED0002E173F07C9F718A63ECF809196048111BF
:100EE000AACFE0918A04F0918B0486899E89981795
:100EF00008F4A1CFD0938B04C0938A049CCF0E94A6
:100F0000D414D6CF0F931F93CF93DF93EC010FB67A
:100F1000F8940F92892B21F4C0918A04D0918B040C
:100F20008E010E5F1F4FC8010E9497148C899D8906
:100F3000892B21F0CE010C960E9497148091910488
:100F40008F5F8093910480918A0490918B0420910B
:100F50009604211559F18C179D0741F5B80185EAD2
:100F600094E00E9448148091A4048F5F8093A404AD
:100F700081E00F900FBE813039F08F89988D0E94EB
:100F80002816CE010E94281680919604811549F0FA
:100F900080918A0490918B048C179D0711F40E9414
:100FA000D414DF91CF911F910F91089580919A04ED
:100FB000815080939A040E94190680E0DACFFC01E8
:100FC0000FB6F8940F92892B21F4E0918A04F091E6
:100FD0008B0486890F900FBE0895FC01892B21F4A4
:100FE000E0918A04F0918B0486890895FC010FB684
:100FF000F8940F92892B21F4E0918A04F0918B04EC
:1010000081A50F900FBE0895FC01892B21F4E0917A
:101010008A04F0918B0481A50895EF92FF921F93AB
:10102000CF93DF93EC01643008F063E00FB6F894DF
:101030000F92209721F4C0918A04D0918B0499A536
:10104000691709F467C020918A0430918B049617C0
:1010500068F42C173D0741F0E0918A04F0918B046D
:1010600011E08689861730F010E004C011E02C17DB
:101070003D07D1F78E89981711F0861708F46E8B0B
:1010800069A72C853D8537FD06C024E030E0261B8E
:1010900031093D872C8729E0829FC00111248353A9
:1010A0009B4F2A853B852817390789F57E0182E009
:1010B000E80EF11CC7010E949714EE8980919704F5
:1010C0008E1710F4E093970429E0E29FF0011124B9
:1010D0009F0123533B4FF901A181B281BD83AC83B2
:1010E00014968D919C9115979F838E8314968D9164
:1010F0009C911597FC01F382E2821596FC92EE9288
:1011000014973B872A87F90180818F5F80831111B3
:101110000E94D4140F900FBEDF91CF911F91FF90CA
:10112000EF9008950F931F93CF93DF93EC0180917D
:101130008A0490918B048C179D0709F446C0209770
:1011400009F443C00FB6F8940F92CE010E94050631
:101150008115C9F18E010E5F1F4FC8010E949714BF
:101160008E8990919704981710F48093970499E0D2
:10117000899FF0011124AF0143535B4FFA01A18114
:10118000B281BD83AC8314962D913C9115973F831A
:101190002E8314962D913C911597F90113830283A8
:1011A00015961C930E9314975B874A87FA019081DA
:1011B0009F5F9083E0918A04F0918B049689981741
:1011C00010F40E94D4140F900FBEDF91CF911F91A5
:1011D0000F910895EF92FF921F93CF93DF93EC014D
:1011E0000E940506182F811509F450C080918C04C7
:1011F000811145C0E0918A04F0918B048E89968913
:101200009817D8F581E0809393047E0182E0E80E80
:10121000F11CC7010E949714EE89809197048E17E4
:1012200010F4E093970489E0E89FF00111249F01F6
:1012300023533B4FF901A181B281BD83AC83149646
:101240008D919C9115979F838E8314968D919C917F
:101250001597FC01F382E2821596FC92EE921497A8
:101260003B872A87F90180818F5F8083812FDF91FF
:10127000CF911F91FF90EF90089510E0C6CFBE016F
:10128000645F7F4F8EEA94E00E94481410E0EECF36
:10129000EF92FF920F93CF93DF93CDB7DEB76097B6
:1012A0000FB6F894DEBF0FBECDBFADE7B4E0FE01D0
:1012B0003196BF018D9181938111FCCF8DE8E82E8D
:1012C00084E0F82E00E020E030E04CE550E08EE5D0
:1012D00094E00E945B06813099F40E9401178130EE
:1012E00079F4F8942FEF3FEF3093900420938F041C
:1012F0008093960410929904109298040E94E3152A
:1013000080916C0160960FB6F894DEBF0FBECDBF22
:10131000DF91CF910F91FF90EF9008950E94B91740
:101320000E94820780918D0490918E040E94820712
:101330000E943106F894109296040C94C81480917F
:101340008C048F5F80938C0408950FB6F8940F92ED
:1013500080919804909199040F900FBE0895809108
:10136000980490919904089580919A0408959C019D
:10137000892B21F420918A0430918B04C90149966C
:101380000895CF92DF92EF92FF921F93CF93DF9356
:1013900080918C048111DEC0C0919804D091990491
:1013A00021966E01D0939904C0939804CD2BB9F483
:1013B0008091B9049091BA042091B7043091B80497
:1013C0003093BA042093B9049093B8048093B7047F
:1013D000809192048F5F809392040E9419068091FD
:1013E0008F0490919004C816D90608F4B1C090E01B
:1013F00019E0E091B904F091BA048081811126C00E
:101400002FEF3FEF3093900420938F04E0918A04F4
:10141000F0918B0430919304E689D9E0ED9FF001BF
:101420001124E353FB4F81E02081223008F480E057
:1014300021E0311101C020E0822B892BDF91CF9177
:101440001F91FF90EF90DF90CF900895E091B90445
:10145000F091BA040580F681E02D0680F781E02D39
:1014600022813381C216D30668F2C285D3854481B6
:10147000558126813781DA0115963C932E93149776
:1014800026813781D90113965C934E931297AF0151
:101490004E5F5F4F69817A816417750711F43A8353
:1014A000298313861286888181508883A489B5890F
:1014B0001097F9F02685378560897189E9017D8368
:1014C0006C8360897189EB013B832A831196ED90CF
:1014D000FC9012979F01245F3F4FE216F30621F420
:1014E00012967C936E931197158A148A8C91815071
:1014F0008C93868920919704281710F48093970481
:10150000189FD0011124A353BB4F11962D913C91EC
:10151000129735832483E9016C817D81778366830B
:101520006C817D81EB015B834A83E9015D834C83A0
:10153000B387A2872C912F5F2C93E0918A04F091BE
:101540008B0421E03689381708F020E0922B51CF28
:1015500090E05CCF809194049091950401969093D3
:1015600095048093940480E069CFEF92FF920F93EB
:101570001F93CF93DF930FB6F8940F9280918C0452
:10158000815080938C0480918C04811551F080E00F
:101590000F900FBEDF91CF911F910F91FF90EF90B1
:1015A000089580919A04811591F34091B30450916C
:1015B000B404E0E0F0E069E071E08091AE048111F4
:1015C00022C0EF2B11F00E941906C0919404D09113
:1015D0009504209761F011E00E94C10981111093D8
:1015E00093042197C9F71092950410929404809166
:1015F0009304811561F280918A0490918B040E947A
:10160000D41481E0C5CFDA011696ED91FC91A4893E
:10161000B5898685978520893189EC013D832C83A6
:10162000C089D1899B838A83CF010C9611962D9115
:101630003C9112972817390721F41296DC93CE9328
:101640001197158A148A8C9181508C93A285B38549
:101650008481958126813781EC013D832C83C6816D
:10166000D7819B838A839F012E5F3F4F11968D9177
:101670009C9112978217930721F41296DC93CE93D4
:1016800011978C9181508C9386899091970498172B
:1016900010F480939704689FD0011124ED01C35387
:1016A000DB4F7E010980DA81C02DD583C4830C8194
:1016B0001D81178306830C811D81D80113963C93ED
:1016C0002E9312973D832C83F386E286E70198815F
:1016D0009F5F9883A0918A04B0918B0456969C9149
:1016E000981708F06ACF7093930467CF0F931F93F6
:1016F000CF93DF93EC018B010E949F092091980406
:101700003091990448815981CA01800F911F241793
:10171000350790F48417950790F099838883C0E08B
:101720000E94B50A811102C00E94D4148C2FDF914F
:10173000CF911F910F9108958417950718F02817DE
:10174000390758F79983888360E0821B930B0E94C6
:101750007505C1E0E5CFCF93DF93EC01892B29F428
:101760000E94D414DF91CF9108950E949F0960E0F8
:10177000CE010E9475050E94B50A811589F3F2CF4A
:10178000CF93DF93EC010E949F090FB6F8940F925C
:1017900080919404909195048C0F9D1F90939504D3
:1017A000809394040F900FBEDF91CF910C94B50AF3
:1017B00080918C04811521F081E080939304089539
:1017C000109293048091970449E0489F900111245E
:1017D000D901A353BB4F9C91911529F11196ED911D
:1017E000FC9112970280F381E02D1296FC93EE9308
:1017F000119720533B4FE217F30741F41596ED91F3
:10180000FC9116971296FC93EE93119726813781DF
:1018100030938B0420938A048093970480918A04E8
:1018200090918B0408958150D0CF0F931F93CF9345
:10183000DF93EC010FB6F8940F92892B21F4C0913D
:101840008A04D0918B048E010E5F1F4FC8010E9445
:1018500097148C899D89892B21F0CE010C960E94CA
:101860009714B8018BE994E00E9448148FA5813049
:1018700009F41FA60F900FBE80919604811539F0D0
:101880000FB6F8940F920E9419060F900FBE809128
:101890008A0490918B048C179D0731F480919604F3
:1018A000811539F00E94D414DF91CF911F910F91CF
:1018B000089590919A0480919B04981305C010920A
:1018C0008B0410928A04F0CFDF91CF911F910F917A
:1018D0000C94D80BCF93DF93D62FC72F60918A0437
:1018E00070918B04645F7F4F0E94681461E08D2FBC
:1018F0009C2FDF91CF910C947505CF93DF93FC0162
:10190000A0918A04B0918B0470681D967C936E93AD
:101910001C97A181B281C0918A04D0918B04BF87AA
:10192000AE87C0918A04D0918B0414968D919C91BE
:101930001597998B888B20918A0430918B0414968B
:10194000CD91DC911597245F3F4F3B832A832091F3
:101950008A0430918B04245F3F4F15963C932E935D
:101960001497A0918A04B0918B045596FC93EE9342
:10197000549790819F5F908361E0CA01DF91CF917E
:101980000C947505CF93DF93FC01CB01642FA181EB
:10199000B281C0918A04D0918B04BF87AE87C09179
:1019A0008A04D0918B0414962D913C911597398B14
:1019B000288B20918A0430918B041496CD91DC9170
:1019C0001597245F3F4F3B832A8320918A043091EF
:1019D0008B04245F3F4F15963C932E931497A09150
:1019E0008A04B0918B045596FC93EE935497208112
:1019F0002F5F2083411511F08FEF9FEFDF91CF9183
:101A00000C947505CF93DF93DC011596ED91FC9155
:101A10000680F781E02DA489B58986859785208980
:101A20003189EC013D832C83C089D1899B838A83D2
:101A3000CF010C9611962D913C91129728173907DA
:101A400021F41296DC93CE931197158A148A2C9167
:101A500021502C9320918C04211153C0A285B38571
:101A60008481958126813781EC013D832C83C68159
:101A7000D7819B838A83CF01029611962D913C9149
:101A800012972817390721F41296DC93CE931197F9
:101A90002C9121502C93A689209197042A1710F499
:101AA000A0939704D9E0AD9FD0011124AD01435319
:101AB0005B4FDA011196CD91DC91D583C4832C81E3
:101AC0003D81378326832C813D81D90113969C93D8
:101AD0008E9312979D838C8353874287EA01888176
:101AE0008F5F8883A0918A04B0918B048689569673
:101AF0009C91981730F581E080939304DF91CF910A
:101B00000895A091AF04B091B004B787A68714964A
:101B10002D913C911597318B208B1496CD91DC91B2
:101B200015979B838A8315969C938E9314978EEAC0
:101B300094E0958B848B8091AE048F5F8093AE048C
:101B4000D1CF80E0DBCFCF93DF93DC0170681196BB
:101B50007C936E931696ED91FC91179718964D9184
:101B60005C91199712962D913C91139714968D9133
:101B70009C911597E9019D838C8314968D919C917E
:101B80001597EC013B832A83EA0129813A812A17C0
:101B90003B0711F49A83898319961C921E92189719
:101BA000DA018C9181508C93A285B38584819581D3
:101BB00026813781EC013D832C83C681D7819B83AD
:101BC0008A839F012E5F3F4F11968D919C911297B2
:101BD0008217930721F41296DC93CE9311978C9180
:101BE00081508C93868990919704981710F4809374
:101BF0009704D9E08D9FD0011124BD0163537B4F21
:101C0000DB011196CD91DC91D583C4834C815D813C
:101C1000578346834C815D81DA0113963C932E9362
:101C200012973D832C8373876287EB0198819F5FB6
:101C30009883E0918A04F0918B049689981718F4A0
:101C400081E080939304DF91CF910895FC010FB65A
:101C5000F8940F92809192048083809198049091DF
:101C60009904928381830F900FBE0895FC018091A7
:101C70009204808380919804909199049283818347
:101C80000895FC01DB010FB6F8940F92409198047F
:101C9000509199048D919C9111978F3F9807F9F07D
:101CA00021813281609192047081761749F0421748
:101CB000530730F01D921C9281E00F900FBE0895E3
:101CC000BA01621B730B68177907A0F7841B950B89
:101CD000820F931F8D939C93CF010E94360E80E05C
:101CE000ECCF81E0809393040895FC01892B21F4CB
:101CF000E0918A04F0918B040788F08DE02D80E05C
:101D000090E02191253A09F008950196FACF80914B
:101D10008A0490918B040895811105C080918A04F2
:101D200090918B04089580E090E00895809196044E
:101D3000811539F090918C0481E0911180E0880F39
:101D4000089581E008950F931F93CF93DF93EC01E3
:101D5000892B09F46EC08E89E0918A04F0918B047E
:101D60009689891708F05CC02C853D8537FD0BC02E
:101D7000E0918A04F0918B04968924E030E0291BDD
:101D800031093D872C8729E0829FC00111248353AC
:101D90009B4F2A853B8528173907D9F58E010E5FA1
:101DA0001F4FC8010E949714E0918A04F0918B04A0
:101DB000E689EE8B809197048E1710F4E0939704D8
:101DC00089E0E89FF00111249F0123533B4FF90163
:101DD000A181B281BD83AC8314968D919C9115979E
:101DE0009F838E8314968D919C911597FC0113838C
:101DF000028315961C930E9314973B872A87F9014B
:101E000080818F5F808381E0DF91CF911F910F915F
:101E10000895E0918A04F0918B0486898E8BF3CF2C
:101E2000E0918A04F0918B0481E029A59689291715
:101E300058F380E0E9CF0F931F93CF93DF93EC012A
:101E4000892B31F480E0DF91CF911F910F9108959C
:101E50008AA581508AA72E8999A5291799F38111FE
:101E6000F1CF8E010E5F1F4FC8010E949714E9A5A4
:101E7000EE8B84E090E08E1B91099D878C8780918A
:101E800097048E1710F4E093970489E0E89FF0011F
:101E900011249F0123533B4FF901A181B281BD83DE
:101EA000AC8314968D919C9115979F838E83149685
:101EB0008D919C911597FC011383028315961C93B9
:101EC0000E9314973B872A87F90180818F5F808367
:101ED00081E0B9CF0F931F93CF93DF93EC01892B50
:101EE00009F452C099A5961708F4962F8E89891780
:101EF00009F44AC02AA5213009F046C09E8B2C85E2
:101F00003D8537FD06C024E030E0291B31093D87BF
:101F10002C8729E0829FC001112483539B4F2A857F
:101F20003B852817390781F58E010E5F1F4FC801C9
:101F30000E949714EE89809197048E1710F4E09315
:101F4000970489E0E89FF00111249F0123533B4F40
:101F5000F901A181B281BD83AC8314968D919C91CE
:101F600015979F838E8314968D919C911597FC01F4
:101F70001383028315961C930E9314973B872A872D
:101F8000F90180818F5F8083DF91CF911F910F9145
:101F90000895E0918A04F0918B0484859585A09141
:101FA0008A04B0918B04E0918A04F0918B045696D8
:101FB0004C9124E030E0241B3109358724870895B3
:101FC00080918A0490918B04009721F0FC0122A556
:101FD0002F5F22A70895CF92DF92EF92FF920F9387
:101FE0001F93CF93DF93C82F062F6A010E949F098A
:101FF0000FB6F8940F92E0918A04F0918B04EC2EC6
:10200000F12C84E0C89FE0011124EC0FFD1F83A593
:1020100094A5A5A5B6A5892B8A2B8B2B61F4E091FD
:102020008A04F0918B04EE0DFF1D81E087A711E07B
:10203000C114D10409F410E00F900FBE113021F447
:1020400061E0C6010E9475050E94B50A113021F4B5
:10205000811102C00E94D4140FB6F8940F92E0913F
:102060008A04F0918B04EC0FFD1F63A574A585A570
:1020700096A5611571058105910561F0E0918A04CD
:10208000F0918B04EC0FFD1F0115B1F013A614A6FF
:1020900015A616A6E0918A04F0918B04EE0DFF1DA3
:1020A00017A60F900FBEDF91CF911F910F91FF9058
:1020B000EF90DF90CF9008958B019C0101501109A2
:1020C0002109310903A714A725A736A7E3CF2F922B
:1020D0003F924F925F926F927F928F929F92AF92B8
:1020E000BF92CF92DF92EF92FF920F931F93CF9305
:1020F000DF9300D00F92CDB7DEB789832A013B0171
:10210000480159011701CA82DB820E949F090FB65C
:10211000F8940F92E0918A04F0918B048981082F42
:1021200010E0E80FF11D87A5823049F1E0918A04A3
:10213000F0918B04C801880F991F880F991FE80F31
:10214000F91F83A594A5A5A5B6A5409450946094C5
:10215000709484219521A621B72183A794A7A5A7D0
:10216000B6A7E0918A04F0918B04E00FF11F81E0A3
:1021700087A777247394EA81FB81EF2B09F4712CF4
:102180000F900FBEF1E07F1205C061E08A819B8154
:102190000E9475050E94B50A91E0791204C0811170
:1021A00002C00E94D4140FB6F8940F922114310487
:1021B000A1F0E0918A04F0918B04C801880F991F67
:1021C000880F991FE80FF91F83A594A5A5A5B6A5AB
:1021D000F10180839183A283B383E0918A04F0911B
:1021E0008B04E00FF11F87A5823009F03BC0E0911E
:1021F0008A04F0918B04C801880F991F880F991FDA
:10220000E80FF91F83A594A5A5A5B6A58094909481
:10221000A094B09488219921AA21BB2183A794A7D7
:10222000A5A7B6A781E0E0918A04F0918B04E00FA6
:10223000F11F17A60F900FBE0F900F900F90DF9118
:10224000CF911F910F91FF90EF90DF90CF90BF90B3
:10225000AF909F908F907F906F905F904F903F9046
:102260002F90089580E0DFCF8F929F92AF92BF9220
:10227000CF92DF92EF92FF920F931F93CF93DF9352
:10228000DC0149015A01F8010FB6F8940F9270E091
:10229000E114F10489F0CB01880F991F880F991F71
:1022A0008A0F9B1FEC010BA51CA52DA53EA5E701E0
:1022B000088319832A833B83ED01C60FD71F8FA59F
:1022C00092E09FA7E330F10509F478C008F071C0EF
:1022D000E130F10509F47EC0329709F48FC08130F6
:1022E00009F057C01A96ED91FC911B9714968D91A9
:1022F0009C91159716962D913C911797EC013D8373
:102300002C831696CD91DC9117979B838A839D0130
:102310002E5F3F4F818192818217930711F4D28300
:10232000C18380818150808356968C91569790917D
:102330009704981710F480939704D9E08D9FF001CB
:102340001124BF0163537B4FFB01C181D2811596DC
:10235000DC93CE9314974C815D8117965C934E93DA
:1023600016974C815D81FA01338322833D832C8350
:102370001B967C936E931A97EB0198819F5F9883CD
:10238000E0918A04F0918B049689981710F40E94CA
:10239000D41481E00F900FBEDF91CF911F910F9168
:1023A000FF90EF90DF90CF90BF90AF909F908F9075
:1023B0000895349709F093CF823081F1660F771F2B
:1023C000660F771FFD01E60FF71F83A694A6A5A64B
:1023D000B6A685CF660F771F660F771FFD01E60F44
:1023E000F71F43A554A565A576A5482959296A294B
:1023F0007B2943A754A765A776A771CF660F771FE0
:10240000660F771FFD01E60FF71F43A554A565A5CD
:1024100076A54F5F5F4F6F4F7F4FEBCF80E0BACF16
:102420004F925F926F927F928F929F92AF92BF92E4
:10243000CF92DF92EF92FF920F931F93CF93DF9390
:10244000FC0129013A01D801460170E0E114F104D0
:1024500089F0CB01880F991F880F991F8E0F9F1F3E
:10246000EC010BA51CA52DA53EA5E701088319834A
:102470002A833B839F01260F371FE9018FA592E036
:102480009FA7A330B10509F47EC008F076C0A13043
:10249000B10509F486C0129709F49BC0813009F098
:1024A0005AC080918C048111A6C0A285B385248175
:1024B000358186819781E9019D838C83868197810F
:1024C000EC013B832A839F012E5F3F4F11964D9174
:1024D0005C9112974217530721F412969C938E93A6
:1024E00011978C9181508C93A689809197048A17BB
:1024F00010F4A0939704D9E0AD9FD0011124A35309
:10250000BB4F11968D919C91129795838483EC011A
:102510004C815D81578346834C815D81EA013B8319
:102520002A83EC013D832C83B387A2878C918F5F34
:102530008C93A0918A04B0918B04868956969C91C5
:10254000981748F48114910419F081E0F401808314
:1025500081E08093930481E0DF91CF911F910F91EF
:10256000FF90EF90DF90CF90BF90AF909F908F90B3
:102570007F906F905F904F900895149709F08ECFE1
:10258000823009F45BC0660F771F660F771FDF018B
:10259000A60FB71F9B964D925D926D927C929E976F
:1025A0007DCF660F771F660F771FDF01A60FB71F5E
:1025B0009B964D915D916D917C919E9744295529F3
:1025C000662977299B964D935D936D937C939E9797
:1025D00065CF660F771F660F771FDF01A60FB71F46
:1025E0009B964D915D916D917C919E974F5F5F4F52
:1025F0006F4F7F4FE7CFA091AF04B091B004B78782
:10260000A68714968D919C911597918B808B14962B
:102610002D913C911597CF010C96E9019B838A83FC
:1026200015969C938E9314978EEA94E0958B848BE9
:102630008091AE048F5F8093AE047BCF80E08CCF1F
:102640000F931F93CF93DF93FC018A01DC01A60F48
:10265000B11D9F968C919F9792E09F969C9394E0DA
:10266000699FD0011124AE0FBF1F9B964D915D91C4
:102670006D917C919E974F5F5F4F6F4F7F4F9B9601
:102680004D935D936D937C939E97813009F05AC072
:1026900080918C0481115BC0A285B3852481358132
:1026A00086819781E9019D838C8386819781EC01E6
:1026B0003B832A839F012E5F3F4F11964D915C9182
:1026C00012974217530721F412969C938E931197F9
:1026D0008C9181508C93A689809197048A1710F46D
:1026E000A0939704D9E0AD9FD0011124A353BB4F11
:1026F00011968D919C91129795838483EC014C8166
:102700005D81578346834C815D81EA013B832A8347
:10271000EC013D832C83B387A2878C918F5F8C93D0
:10272000A0918A04B0918B04868956969C91981743
:1027300048F40115110519F081E0F801808381E06A
:1027400080939304DF91CF911F910F910895A091F1
:10275000AF04B091B004B787A68714968D919C9171
:102760001597918B808B14962D913C911597CF01E5
:102770000C96E9019B838A8315969C938E931497FC
:102780008EEA94E0958B848B8091AE048F5F80936A
:10279000AE04C6CFFC01892B21F4E0918A04F091AC
:1027A0008B040FB6F8940F92E60FF11D87A58230C7
:1027B00029F417A681E00F900FBE089580E0FBCFAB
:1027C000CF92DF92EF92FF920F931F93FC0169016A
:1027D0007A01892B21F4E0918A04F0918B040FB6E1
:1027E000F8940F9284E0689FB0011124E60FF71F60
:1027F00063A574A585A596A503A514A525A536A54D
:10280000C094D094E094F094C022D122E222F3222A
:10281000C3A6D4A6E5A6F6A60F900FBE1F910F91F2
:10282000FF90EF90DF90CF90089510928B0410925C
:102830008A041092A40410929A041092990410929F
:102840009804109297041092960410929504109296
:102850009404109293041092920410929104109296
:10286000900410928F0410928C040895FC0103963A
:10287000928381832FEF3FEF348323839683858375
:102880009087878310820895FC0111861086089531
:10289000CF93DF939C01FB01DC011196CD91DC917C
:1028A000D383C2838C819D81958384838C819D8118
:1028B000DC0113967C936E9312977D836C83318732
:1028C0002087F90180818F5F8083DF91CF91089508
:1028D000CF93DF93DC01FB01208131812F3F320751
:1028E000C9F417966D917C911897EB018A819B81B1
:1028F00093838283EC01FD83EC8375836483EB0116
:10290000FB83EA83B187A0878C918F5F8C93DF91E3
:10291000CF910895CD010396BC01EC018A819B8182
:10292000EC014881598124173507B0F7DECFCF93EA
:10293000DF93FC01A085B18582819381248135815B
:10294000EC013D832C83C481D5819B838A831196BE
:102950008D919C9112978E179F0721F41296DC930C
:10296000CE931197118610868C9181508C93DF91B4
:10297000CF910895FC016083DC017E931E9280E874
:102980008E931E9257974C935E93CF018397089531
:102990000FB6F894A89580916000886180936000DC
:1029A000109260000FBE08950F920FB6F8940F9228
:1029B0001F9211242F923F924F925F926F927F92BB
:1029C0008F929F92AF92BF92CF92DF92EF92FF923F
:1029D0000F931F932F933F934F935F936F937F9327
:1029E0008F939F93AF93BF93CF93DF93EF93FF9317
:1029F000A0918A04B0918B040DB60D920EB60D9283
:102A00000E94D80BA0918A04B0918B04CD91CDBFC8
:102A1000DD91DEBFFF91EF91DF91CF91BF91AF913B
:102A20009F918F917F916F915F914F913F912F91E6
:102A30001F910F91FF90EF90DF90CF90BF90AF90DC
:102A40009F908F907F906F905F904F903F902F90CE
:102A50001F900F900FBE0F9008950F920FB6F8942D
:102A60000F921F9211242F923F924F925F926F927A
:102A70007F928F929F92AF92BF92CF92DF92EF920E
:102A8000FF920F931F932F933F934F935F936F93F7
:102A90007F938F939F93AF93BF93CF93DF93EF93E6
:102AA000FF93A0918A04B0918B040DB60D920EB6DF
:102AB0000D920E94D80BA0918A04B0918B04CD9105
:102AC000CDBFDD91DEBFFF91EF91DF91CF91BF913F
:102AD000AF919F918F917F916F915F914F913F91B6
:102AE0002F911F910F91FF90EF90DF90CF90BF90AB
:102AF000AF909F908F907F906F905F904F903F909E
:102B00002F901F900F900FBE0F9018950F920FB639
:102B1000F8940F921F9211242F923F924F925F923E
:102B20006F927F928F929F92AF92BF92CF92DF92DD
:102B3000EF92FF920F931F932F933F934F935F93C7
:102B40006F937F938F939F93AF93BF93CF93DF93B5
:102B5000EF93FF93A0918A04B0918B040DB60D9270
:102B60000EB60D9213BE0E94C10981110E94D80BAE
:102B7000A0918A04B0918B04CD91CDBFDD91DEBFD1
:102B8000FF91EF91DF91CF91BF91AF919F918F9185
:102B90007F916F915F914F913F912F911F910F9175
:102BA000FF90EF90DF90CF90BF90AF909F908F906D
:102BB0007F906F905F904F903F902F901F900F905D
:102BC0000FBE0F9008950E946704A0918A04B091EF
:102BD0008B04CD91CDBFDD91DEBFFF91EF91DF91F1
:102BE000CF91BF91AF919F918F917F916F915F91A5
:102BF0004F913F912F911F910F91FF90EF90DF9098
:102C0000CF90BF90AF909F908F907F906F905F908C
:102C10004F903F902F901F900F900FBE0F900895F0
:102C200081E008950E9486151895CF93DF93D82FE1
:102C3000C92F0E949F098D2F9C2F0E945A1FD82FA9
:102C4000C92F0E94B50A8D2F9C2FDF91CF91089537
:102C5000CF93DF93EC01892B49F00E949F09CE01AD
:102C60000E94F01FDF91CF910C94B50ADF91CF91B4
:102C700008950F931F93CF93DF93FC01DA017383C1
:102C800062839187808746175707B0F0A21BB30B6A
:102C900084859585A817B907E8F4BF016E5F7F4F5B
:102CA0008091FB049091FC040E94681480E0DF9105
:102CB000CF911F910F9108954217530718F462178F
:102CC000730740F4BF016E5F7F4F8091FD049091C8
:102CD000FE04EACF81E0EBCFEF92FF920F931F93B8
:102CE000CF93DF93EC018B017A016C857D85600FBA
:102CF000711F9801A701CE010E943916811107C0EA
:102D0000DF91CF911F910F91FF90EF9008958C85E7
:102D10009D85080F191FE889F989CE010995E5CF2E
:102D2000EF92FF920F931F93CF93DF938C017B0160
:102D3000E091FD04F091FE040580F681E02DC6814E
:102D4000D781CE0102960E9497142A8922FF0FC0D4
:102D5000A701B801CE010E946C16E889F989CE015D
:102D6000DF91CF911F910F91FF90EF9009942E7FEB
:102D70002A8BF3CFE091FD04F091FE048081811154
:102D80000DC08091FB049091FC049093FE0480930D
:102D9000FD04F093FC04E093FB0408950580F681A4
:102DA000E02D6FEF7FEF808191810E949016E2CF3E
:102DB0000FB6F8940F928091F9049091FA04892B40
:102DC000E9F488E095E00E9436148FEF94E00E94C9
:102DD000361488E095E09093FE048093FD048FEF15
:102DE00094E09093FC048093FB0440E065E08AE06B
:102DF0000E9408199093FA048093F9040F900FBE73
:102E00000895EF92FF920F930E94D8168091F904D3
:102E10009091FA04892B99F087EFE82E84E0F82E40
:102E200003E020E030E04CE550E062E874E083E746
:102E300094E00E945B060F91FF90EF90089580E070
:102E4000FACF9F92AF92BF92CF92DF92EF92FF9212
:102E50000F931F93CF93DF93982EA92EB62EC72ED4
:102E6000F42ED22EE32E83E190E00E941516EC01A1
:102E7000892BA1F01A8A0E94D8169882A982BC8652
:102E8000CD86DE86EF86088B198BCE0102960E94D6
:102E90004414F11419F08A8984608A8BCE01DF9181
:102EA000CF911F910F91FF90EF90DF90CF90BF9047
:102EB000AF909F9008950F931F93CF93DF9300D00F
:102EC00000D00F92CDB7DEB72091F9043091FA040B
:102ED000232B59F480E00F900F900F900F900F90DC
:102EE000DF91CF911F910F91089569834A835B838E
:102EF0008C839D83663074F70E94960E282F8091F4
:102F0000F9049091FA04223041F420E0A801BE01B6
:102F10006F5F7F4F0E944419DECF20E040E050E019
:102F2000F6CFCF93DF9300D000D00F92CDB7DEB7AE
:102F3000F42FE52FA901A091F904B091FA0410979C
:102F400049F480E00F900F900F900F900F90DF9159
:102F5000CF9108956983FA83EB838C839D836630D8
:102F600084F320E0BE016F5F7F4FCD010E94171AEE
:102F7000E9CF8091F7049091F8040895FC018485CD
:102F800095850895FC010FB6F8940F92828961151A
:102F900029F08460828B0F900FBE08958B7FFACF4B
:102FA000FC010FB6F8940F92828982FB882780F982
:102FB0000F900FBE08950C94D017FC01828193816D
:102FC0000895FC01808191810895FC010FB6F89469
:102FD0000F92828981700F900FBE0895FC010FB689
:102FE000F8940F92868597850F900FBE0895FC0187
:102FF0000FB6F8940F92668777870F900FBE0895EB
:103000001092FA041092F9041092F8041092F70446
:103010000895FC010FB6F8940F92928D0F900FBE99
:1030200081E0911180E008950F931F93CF93DF9378
:10303000EC01042F1A8D8C8D811111C0888199812A
:10304000892B09F58C819D810E941B0F1D821C829A
:103050001F5F1A8FDF91CF911F910F910895482F15
:1030600050E0011117C08A819B810E9481202C8D24
:103070008A819B81820F911D9B838A832C813D8154
:103080008217930710F480E0E3CF888199819B83B6
:103090008A83F9CF8E819F810E9481202C8D30E020
:1030A00044275527421B530B8E819F81821B930B14
:1030B0009F838E83288139818217930730F48C8116
:1030C0009D81840F951F9F838E830230E1F6111539
:1030D000D1F21150D8CFFC01CB01248D211599F0EC
:1030E000422F50E066817781620F711D778366837E
:1030F000248135816217730720F0608171817783A5
:1031000066830C9481200895EF92FF921F93CF93D2
:10311000DF93EC010FB6F8940F921E8D7C0181E1D4
:10312000E80EF11C11161CF4898981111BC08FEF68
:103130008E8F0F900FBE0FB6F8940F921D8D7E01EB
:1031400088E0E80EF11C11161CF48885811112C06C
:103150008FEF8D8F0F900FBEDF91CF911F91FF905A
:10316000EF900895C7010E94020D81110E94710E17
:103170001150D8CFC7010E94020D81110E94710E1B
:103180001150E1CFCF93DF93EC01892B09F43EC0BE
:103190008B8D811509F43AC00FB6F8940F9288818F
:1031A00099812B8D4C8DFC01249FE00DF11D112484
:1031B000FD83EC831A8E9B838A832150330B429FBD
:1031C000F001439FF00D11248E0F9F1F9F838E836C
:1031D0008FEF8D8F8E8F611110C08885811539F02A
:1031E000CE0108960E94020D81110E94D4140F9006
:1031F0000FBE81E0DF91CF910895CE0108960E9425
:103200003614CE0141960E943614F1CF80E0F2CF01
:103210000F931F93CF93DF93082F162F811108C0B0
:10322000C0E0D0E0CE01DF91CF911F910F910895C2
:10323000869FC00111244F960E941516EC0100973D
:1032400079F311114F96998388830B8F1C8F61E05E
:10325000CE010E94C218E6CF1F93CF93DF93162FA3
:10326000811579F0861768F042E060E00E94081945
:10327000EC01892B09F01A8FCE01DF91CF911F91BC
:103280000895C0E0D0E0F8CFAF92BF92DF92EF9206
:10329000FF920F931F93CF93DF9300D000D00F9234
:1032A000CDB7DEB78C01E62ED72E5D834C83F22E90
:1032B00080E0580198E0A90EB11C0FB6F8940F9267
:1032C000F801228D938D291718F54F2D6E2D7D2D28
:1032D000C8010E941418F8019189911521F0C801C4
:1032E00041960E94020D81110E94D4140F900FBECE
:1032F00081E00F900F900F900F900F90DF91CF9182
:103300001F910F91FF90EF90DF90BF90AF900895C5
:10331000F2E0FF16D1F22C813D81232B21F40F9096
:103320000FBE80E0E6CF811104C0CE0101960E945D
:10333000360E0F900FBE0E949F090FB6F8940F92A1
:10334000F801858D8F3F09F4158EF801868D8F3F2A
:1033500009F4168E0F900FBEBE016C5F7F4FCE0139
:1033600001960E94410E811120C00FB6F8940F9271
:10337000F801928D838D0F900FBE981310C06C8151
:103380007D81C5010E946A0CC8010E9484180E94B8
:10339000B50A811102C00E94D41481E08ECFC80109
:1033A0000E9484180E94B50AF8CFC8010E948418B0
:1033B0000E94B50AB6CFCF93DF93482F60E081E03B
:1033C0000E940819EC01009761F01D821C8219828D
:1033D00018821E8220E040E050E060E070E00E9431
:1033E0004419CE01DF91CF9108950F931F93CF938E
:1033F000DF93EC010C811D810E94870E08171907CD
:10340000A1F48E8181508E83811531F081E0DF91AE
:10341000CF911F910F91089520E040E050E060E0CF
:1034200070E0CE010E944419F1CF80E0F0CFEF921E
:10343000FF921F93CF93DF93EC017A01422F9A8D75
:103440008B8D981718F080E02230B9F41E8D8A8D8C
:10345000CE010E9414181F3FB1F48989811561F0D3
:10346000CE0141960E94020D811531F0E114F10464
:1034700019F081E0F701808381E0DF91CF911F9106
:10348000FF90EF9008950E94B4091817A8F71F5FE6
:103490001E8FF2CFEF92FF921F93CF93DF93EC0139
:1034A0007B018A8D9B8D891710F51E8D8F5F8A8F0A
:1034B0001F3FB1F48989811561F0CE0141960E94C8
:1034C000020D811531F0E114F10419F081E0F701EA
:1034D000808381E0DF91CF911F91FF90EF9008955D
:1034E0000E94B4091817A8F71F5F1E8FF2CF80E063
:1034F000F1CFAF92BF92DF92EF92FF920F931F93A3
:10350000CF93DF9300D000D00F92CDB7DEB78C0100
:10351000E62ED72E5D834C8380E0580191E1A90E01
:10352000B11C0FB6F8940F92F801F28CF11421F14E
:103530006E2D7D2DC8010E946B18FA94F801F28E51
:103540008085811539F0C80108960E94020D81110D
:103550000E94D4140F900FBE81E00F900F900F9037
:103560000F900F90DF91CF911F910F91FF90EF90EF
:10357000DF90BF90AF9008952C813D81232B21F4E3
:103580000F900FBE80E0E9CF811104C0CE010196FB
:103590000E94360E0F900FBE0E949F090FB6F8943E
:1035A0000F92F801858D8F3F09F4158EF801868DF5
:1035B0008F3F09F4168E0F900FBEBE016C5F7F4FD8
:1035C000CE0101960E94410E81111BC0C8010E94CC
:1035D0000918811581F06C817D81C5010E946A0CFA
:1035E000C8010E9484180E94B50A811102C00E947D
:1035F000D41481E096CFC8010E9484180E94B50AB5
:10360000F8CFC8010E9484180E94B50AC8010E9420
:103610000918811571F3B6CFCF92DF92FF920F9305
:103620001F93CF93DF9300D000D00F92CDB7DEB7BA
:103630008C017D836C83F12C90E0680181E1C80EE0
:10364000D11C0FB6F8940F92D8015A968C915A97C4
:10365000811549F181505A968C935A978D919C917E
:10366000892B29F40E94E00FF80195838483D80107
:1036700018968C91811539F0C80108960E94020DA8
:1036800081110E94D4140F900FBE81E00F900F9013
:103690000F900F900F90DF91CF911F910F91FF909E
:1036A000DF90CF9008952C813D81232B21F40F9042
:1036B0000FBE80E0EBCF911104C0CE0101960E94B5
:1036C000360E0F900FBE0E949F090FB6F8940F920E
:1036D000F801858D8F3F09F4158ED8015E968C9187
:1036E0005E978F3F11F45E961C920F900FBEBE0145
:1036F0006C5F7F4FCE0101960E94410E81112AC05E
:10370000C8010E9409188115F9F0F80180819181A2
:10371000892B51F40FB6F8940F92848195810E9401
:10372000A30EF82E0F900FBE6C817D81C6010E9402
:103730006A0CC8010E9484180E94B50A811102C057
:103740000E94D41491E07DCFC8010E9484180E9489
:10375000B50AF8CFC8010E9484180E94B50AC801B2
:103760000E940918811571F3F11409F4A2CF0FB664
:10377000F8940F92F8016189611531F00688F78994
:10378000E02D808164E0681BD80114968D919C9196
:103790000E946A0F8CCFEF92FF920F931F93CF93EB
:1037A000DF93EC018B01EC80FD800E94870EE81610
:1037B000F90629F48E818F5F8E8381E006C0B801FF
:1037C000CE010E940C1B8111F5CFDF91CF911F918B
:1037D0000F91FF90EF900895CF92DF92EF92FF92BA
:1037E0000F931F93CF93DF9300D000D00F92CDB7EC
:1037F000DEB78C01F62EE72E5D834C8380E06801F6
:1038000091E1C90ED11C0FB6F8940F92F801928D78
:10381000911529F1C680D7806F2D7E2DC8010E9499
:103820006B18F801D782C6828189811539F0C801E9
:1038300041960E94020D81110E94D4140F900FBE78
:1038400081E00F900F900F900F900F90DF91CF912C
:103850001F910F91FF90EF90DF90CF9008952C81F2
:103860003D81232B21F40F900FBE80E0EACF811120
:1038700004C0CE0101960E94360E0F900FBE0E942A
:103880009F090FB6F8940F92F801858D8F3F09F4C8
:10389000158EF801868D8F3F09F4168E0F900FBE9E
:1038A000BE016C5F7F4FCE0101960E94410E8111D7
:1038B0001BC0C8010E940918811581F06C817D81AF
:1038C000C6010E946A0CC8010E9484180E94B50AB1
:1038D000811102C00E94D41481E095CFC8010E94DA
:1038E00084180E94B50AF8CFC8010E9484180E946B
:1038F000B50AC8010E940918811571F3B6CFEF927D
:10390000FF920F931F93CF93DF93EC017A010A8DFF
:1039100080E00115C1F01D8DCE010E946B18015091
:103920000A8F1F3FB9F48885811561F0CE01089692
:103930000E94020D811531F0E114F10419F081E0CB
:10394000F701808381E0DF91CF911F910F91FF906C
:10395000EF9008950E94B4091817A0F71F5F1D8FFC
:10396000F1CF0F931F93CF93DF93EC018A8D8115D5
:1039700069F00E811F81CE010E946B181F830E8398
:1039800081E0DF91CF911F910F91089580E0F9CFF1
:10399000FC010FB6F8940F92828D0F900FBE089520
:1039A000FC010FB6F8940F92928D838D891B0F90B6
:1039B0000FBE0895FC01828D08950C942816FC0119
:1039C000848D0895FC01838D0895FC01928D81E022
:1039D000911180E00895FC01928D81E0238D2913DF
:1039E00080E00895CF93DF93EC010FB6F8940F9227
:1039F0008D8D8F3F09F41D8E8E8D8F3F09F41E8EA5
:103A00000F900FBE8A8D811104C0CE0141960E9495
:103A1000C20CCE01DF91CF910C94841897FB072E36
:103A200016F4009407D077FD09D00E944E1D07FCC4
:103A300005D03EF4909581959F4F089570956195BE
:103A40007F4F0895052E97FB1EF400940E94391DA8
:103A500057FD07D00E94621D07FC03D04EF40C9462
:103A6000391D50954095309521953F4F4F4F5F4FF1
:103A7000089590958095709561957F4F8F4F9F4FDA
:103A80000895EE0FFF1F0590F491E02D09940E9418
:103A9000841DB7FF0895821B930B0895AA1BBB1BBF
:103AA00051E107C0AA1FBB1FA617B70710F0A61B3E
:103AB000B70B881F991F5A95A9F780959095BC015F
:103AC000CD010895A1E21A2EAA1BBB1BFD010DC05A
:103AD000AA1FBB1FEE1FFF1FA217B307E407F507BE
:103AE00020F0A21BB30BE40BF50B661F771F881F9A
:103AF000991F1A9469F760957095809590959B0130
:103B0000AC01BD01CF010895A29FB001B39FC001D8
:103B1000A39F700D811D1124911DB29F700D811DF9
:103B20001124911D08955058BB27AA270E94AB1D50
:103B30000C94B31E0E94A51E38F00E94AC1E20F00B
:103B400039F49F3F19F426F40C94A21E0EF4E0956C
:103B5000E7FB0C949C1EE92F0E94C41E58F3BA1771
:103B6000620773078407950720F079F4A6F50C9493
:103B7000E61E0EF4E0950B2EBA2FA02D0B01B90115
:103B800090010C01CA01A0011124FF27591B99F0D3
:103B9000593F50F4503E68F11A16F040A22F232FDF
:103BA000342F4427585FF3CF469537952795A7952F
:103BB000F0405395C9F77EF41F16BA0B620B730BD6
:103BC000840BBAF09150A1F0FF0FBB1F661F771F47
:103BD000881FC2F70EC0BA0F621F731F841F48F4FC
:103BE000879577956795B795F7959E3F08F0B0CF85
:103BF0009395880F08F09927EE0F9795879508956C
:103C00000E94781E08F481E008950E940C1E6894BA
:103C1000B1110C94E71E08950E94CC1E88F09F57A6
:103C200098F0B92F9927B751B0F0E1F0660F771FE0
:103C3000881F991F1AF0BA95C9F714C0B13091F0D6
:103C40000E94E61EB1E008950C94E61E672F782FBF
:103C50008827B85F39F0B93FCCF38695779567959B
:103C6000B395D9F73EF490958095709561957F4F07
:103C70008F4F9F4F0895E89409C097FB3EF49095AD
:103C80008095709561957F4F8F4F9F4F9923A9F035
:103C9000F92F96E9BB279395F695879577956795C4
:103CA000B795F111F8CFFAF4BB0F11F460FF1BC008
:103CB0006F5F7F4F8F4F9F4F16C0882311F096E99B
:103CC00011C0772321F09EE8872F762F05C0662349
:103CD00071F096E8862F70E060E02AF09A95660F02
:103CE000771F881FDAF7880F9695879597F90895BB
:103CF000990F0008550FAA0BE0E8FEEF16161706FD
:103D0000E807F907C0F012161306E407F50798F064
:103D1000621B730B840B950B39F40A2661F0232B7D
:103D2000242B252B21F408950A2609F4A140A695F9
:103D30008FEF811D811D089597F99F6780E870E0DE
:103D400060E008959FEF80EC089500240A94161611
:103D5000170618060906089500240A941216130679
:103D6000140605060895092E0394000C11F4882307
:103D700052F0BB0F40F4BF2B11F460FF04C06F5F23
:103D80007F4F8F4F9F4F089557FD9058440F551FF9
:103D900059F05F3F71F04795880F97FB991F61F0CD
:103DA0009F3F79F087950895121613061406551F44
:103DB000F2CF4695F1DF08C0161617061806991FB0
:103DC000F1CF86957105610508940895E894BB27A5
:103DD00066277727CB0197F908950E94001F0C945E
:103DE000B31E0E94A51E38F00E94AC1E20F0952341
:103DF00011F00C949C1E0C94A21E11240C94E71E2E
:103E00000E94C41E70F3959FC1F3950F50E0551F9B
:103E1000629FF001729FBB27F00DB11D639FAA271F
:103E2000F00DB11DAA1F649F6627B00DA11D661F6E
:103E3000829F2227B00DA11D621F739FB00DA11D8F
:103E4000621F839FA00D611D221F749F3327A00D49
:103E5000611D231F849F600D211D822F762F6A2FE5
:103E600011249F5750409AF0F1F088234AF0EE0F4A
:103E7000FF1FBB1F661F771F881F91505040A9F777
:103E80009E3F510580F00C949C1E0C94E71E5F3FF2
:103E9000E4F3983ED4F3869577956795B795F795B3
:103EA000E7959F5FC1F7FE2B880F911D969587952B
:103EB00097F908950F931F93CF93DF939C01029777
:103EC00010F422E030E0E0911105F091120580E05D
:103ED00090E0A0E0B0E0309791F4009709F448C07A
:103EE000821B930B84309105D0F58A819B816115EB
:103EF000710581F1FB0193838283FE0111C0408132
:103F000051810281138142175307D8F0421753079A
:103F100099F4109761F012960C93129713961C93D4
:103F20003296CF01DF91CF911F910F9108950093A9
:103F3000110510931205F4CF009751F04817590757
:103F400038F0AC01DB01CA01BD01DF01F801C3CFCC
:103F5000EF01F9CF9093120580931105CECFFE01AA
:103F6000E80FF91F21933193029799838883D9CF62
:103F700040911305509114054115510541F44091AC
:103F80000201509103015093140540931305809151
:103F9000000190910101009741F48DB79EB76091A7
:103FA000040170910501861B970B4817590708F00B
:103FB000B8CF841B950B8217930708F4B2CFB901D1
:103FC0006E5F7F4F8617970708F4ABCF640F751F9E
:103FD0007093140560931305FA0121933193A1CFD7
:103FE000CF93DF939C010097E9F0FC013297138295
:103FF0001282C0911105D0911205DE0180E090E09F
:104000002097A1F480819181280F391F8091130599
:10401000909114058217930709F068C0F093140576
:10402000E0931305DF91CF910895DA01AE17BF0732
:1040300008F042C012964D915C911397CD01411545
:10404000510599F7DC011396FC93EE9312974D916D
:104050005D919D01240F351FE217F30781F4208144
:1040600031812E5F3F4F240F351FDC0111963C93A9
:104070002E932281338113963C932E931297E0E086
:10408000F0E08A819B810097B1F5DE018D919D91D1
:104090008A0F9B1F209113053091140528173907AB
:1040A00009F6309759F51092120510921105D09328
:1040B0001405C0931305B6CFB383A2834081518109
:1040C000240F351FA217B30771F44E5F5F4F2D9178
:1040D0003C911197240F351F3183208312962D9127
:1040E0003C9133832283009709F0ACCFF093120503
:1040F000E093110597CFFE01EC01C3CF138212822A
:10410000D6CFFB01DC0102C001900D92415050401E
:10411000D8F70895DC0101C06D9341505040E0F79D
:104120000895BB274A3031F4992322F4BDE29095DB
:1041300081959F4F0C949D20BB27FB015527AA27F3
:10414000880F991FAA1FA41710F0A41B8395505124
:10415000B9F7A05DAA3308F0A95DA193009779F79C
:10416000B111B1931192CB010C94B620DC01FC018A
:10417000672F71917723E1F7329704C07C916D939B
:1041800070836291AE17BF07C8F30895F894FFCF0C
:104190000B050B054F05370549050B050B054F05AD
:0241A0003705E1
:1041A200000015052000000039007200AB00E40099
:1041B2001C0154018B01C101F7012D02620296021A
:1041C200CA02FD02300362039403C503F50325040A
:1041D20053048204AF04DC040805340560058B0532
:1041E200B605E0050A0634065D068606AF06D70662
:1041F200FF0627074F0776079D07C407EB0711083D
:1042020037085D088308A908CE08F308034445422D
:1042120055473A205461736B204D50553630353036
:1042220020696E696369616461210D0A0044454237
:1042320055473A2054657374616E646F20636F6EE4
:104242006578616F204D5055363035302E2E2E0D4B
:104252000A004552524F3A204D50553630353020E3
:104262006E616F20656E636F6E747261646F210D93
:104272000A0056657269666971756520617320630B
:104282006F6E65786F65732049324320285344412D
:104292002F53434C290D0A004C4544207069736327
:1042A200616E646F207261706964616D656E7465C0
:1042B2002E2E2E0D0A004D50553630353020636FAC
:1042C2006E65637461646F20636F6D2073756365DF
:1042D20073736F210D0A00436F6E666967757261B1
:1042E200636F65733A0D0A002D204163656C657238
:1042F2006F6D6574726F3A202B2F2D2032670D0A75
:10430200002D204769726F73636F70696F3A202BBB
:104312002F2D203235302067726175732F730D0A8D
:10432200002D205461786120646520616D6F737483
:10433200726167656D3A2034487A0D0A003D3D3D51
:104342003D3D3D3D3D3D3D3D3D3D3D3D3D3D3D3D9B
:104352003D3D3D3D3D3D3D3D3D3D3D3D3D3D3D3D8B
:104362003D3D3D3D3D0D0A00496E696369616E64E4
:104372006F206C656974757261732E2E2E0D0A0D95
:104382000A002D2D2D20416D6F7374726120230060
:10439200202D2D2D0D0A004163656C65726F6D65D0
:1043A20074726F3A0D0A002020583A200020726180
:1043B2007720280067290D0A002020593A20002082
:1043C200205A3A20004769726F73636F70696F3ABF
:1043D2000D0A00206465672F73290D0A004F726968
:1043E200656E746163616F20286C6F6F6B757020EE
:1043F2007461626C65293A0D0A002020526F6C6C60
:104402003A2020002E00C2B00D0A0020205069740C
:1044120063683A200054656D7065726174757261EB
:104422003A200020C2B043290D0A00202020205348
:10443200495354454D41204D505536303530202B8F
:10444200204672656552544F530D0A00496E6963E6
:1044520069616C697A616E646F2E2E2E0D0A0044BA
:10446200454255473A20496E696369616E646F201F
:104472004D5055363035302E2E2E0D0A0044454211
:1044820055473A204D50553630353020696E6963B4
:1044920069616C697A61646F210D0A004445425575
:1044A200473A20437269616E646F207461736B20B6
:1044B2004D5055363035302E2E2E0D0A006D70754A
:1044C200363035300044454255473A205461736BCB
:1044D200204D505536303530206372696164612158
:1044E2000D0A0044454255473A20496E69636961A5
:1044F2006E646F207363686564756C65722E2E2E10
:104502000D0A004552524F3A205363686564756C38
:1045120065722066616C686F75210D0A0049444C12
:0A4522004500546D722053766300CB
:00000001FF
