:100000000C9434000C9451000C9451000C94510049
:100010000C9451000C9451000C946C070C945100FA
:100020000C9451000C9451000C9451000C9451000C
:100030000C9451000C9451000C9451000C945100FC
:100040000C9451000C9451000C9451000C945100EC
:100050000C9451000C9451000C9451000C945100DC
:100060000C9451000C94510011241FBECFEFD8E026
:10007000DEBFCDBF12E0A0E0B1E0EEE6F6E402C0E4
:1000800005900D92A63FB107D9F723E0A6EFB2E0A5
:1000900001C01D92A138B207E1F70E94CF030C9472
:1000A0002C230C9400009093C5008093C40088E139
:1000B0008093C10086E08093C20008959091C000B3
:1000C00095FFFCCF8093C60008958091C00087FF04
:1000D000FCCF8091C6000895CF93DF93EC01899106
:1000E000811103C0DF91CF9108950E945E00F7CF88
:1000F000CF93DF93CDB7DEB72A970FB6F894DEBF64
:100100000FBECDBF4AE0BE016F5F7F4F0E94F72256
:10011000CE0101960E946C002A960FB6F894DEBFBD
:100120000FBECDBFDF91CF910895C0E285B18C277E
:1001300085B98FE190E00E943717F8CFCF93DF9316
:10014000CDB7DEB72E970FB6F894DEBF0FBECDBF8A
:100150000E94D102811115C087E091E00E946C00DD
:1001600087E291E00E946C008DE491E00E946C00B7
:1001700010E285B1812785B986E090E00E943717AB
:10018000F8CF8BE691E00E946C008CE891E00E9431
:100190006C008DE991E00E946C0086EB91E00E947A
:1001A0006C0086ED91E00E946C0082EF91E00E946D
:1001B0006C008DE192E00E946C0001E010E053E8D9
:1001C000E52EF12C64E5C62EDD24D394CE010196F4
:1001D0000E94620287E392E00E946C00C8010E94C4
:1001E000780085E492E00E946C008CE492E00E942A
:1001F0006C008CE592E00E946C0089819A810E94DB
:10020000780082E692E00E946C0089819A8197FFD3
:1002100002C08150904C990F880B990F982F881F1E
:100220000E94780089E692E00E946C008EE692E0DF
:100230000E946C008B819C810E94780082E692E093
:100240000E946C008B819C8197FF02C08150904C72
:10025000990F880B990F982F881F0E94780089E6C4
:1002600092E00E946C0084E792E00E946C008D8115
:100270009E810E94780082E692E00E946C008D814F
:100280009E8197FF02C08150904C990F880B990F67
:10029000982F881F0E94780089E692E00E946C00E7
:1002A0008AE792E00E946C008CE592E00E946C006C
:1002B00089859A850E94780082E692E00E946C000F
:1002C00089859A85B7010E949221CB010E9478000E
:1002D00088E892E00E946C008EE692E00E946C003A
:1002E0008B859C850E94780082E692E00E946C00DB
:1002F0008B859C85B7010E949221CB010E947800DA
:1003000088E892E00E946C0084E792E00E946C0012
:100310008D859E850E94780082E692E00E946C00A6
:100320008D859E85B7010E949221CB010E947800A5
:1003300088E892E00E946C0082E992E00E946C00E2
:100340008F8198850E94780082E692E00E946C007E
:100350008F819885B6010E949221CB0185960E94DB
:10036000780080EA92E00E946C0084E392E00E94B0
:100370006C008EE390E00E9437170F5F1F4F26CF6F
:10038000259A15B880E190E00E9453000E94270250
:1003900084E392E00E946C0082EF91E00E946C0086
:1003A00088EA92E00E946C0082EF91E00E946C006B
:1003B00089EC92E00C946C001092B90088E4809370
:1003C000B80084E08093BC00089584EA8093BC0068
:1003D0008091BC0087FFFCCF089584E98093BC0026
:1003E00008958093BB0084E88093BC008091BC009A
:1003F00087FFFCCF8091B900887F089584EC8093BB
:10040000BC008091BC0087FFFCCF8091BB000895A9
:1004100084E88093BC008091BC0087FFFCCF809172
:10042000BB000895CF93DF93D82FC62F0E94E5011C
:1004300080ED0E94F1018D2F0E94F1018C2F0E940E
:10044000F10184E98093BC00DF91CF9108950E946F
:10045000DC012FEF81EE94E0215080409040E1F7E5
:1004600000C0000060E08BE60E9412028FE39CE96E
:100470000197F1F700C0000067E089E10E941202D5
:1004800066E08AE10E94120260E08BE10E941202A3
:1004900060E08CE10C941202CF93C82F0E94E5011A
:1004A00080ED0E94F1018C2F0E94F1010E94E50174
:1004B00081ED0E94F1010E94080294E99093BC0032
:1004C000CF910895CF92DF92EF92FF920F931F93F7
:1004D000CF93DF93CDB7DEB72E970FB6F894DEBF7C
:1004E0000FBECDBF8C010E94E50180ED0E94F1019D
:1004F0008BE30E94F1010E94E50181ED0E94F10170
:10050000CE0101967C016E019EE0C90ED11C0E94B5
:10051000FE01F70181937F01EC15FD05C1F70E94F3
:10052000080294E99093BC0029813A81322723275D
:100530003227F801318320832B813C813227232706
:100540003227338322832D813E813227232732278E
:10055000358324832F813885322723273227378319
:10056000268329853A85322723273227318720871A
:100570002B853C85322723273227338722879D8589
:10058000958784872E960FB6F894DEBF0FBECDBF39
:10059000DF91CF911F910F91FF90EF90DF90CF905F
:1005A000089585E70E944C02982F81E0983609F063
:1005B00080E00895A89588E190EC0FB6F894A8958E
:1005C000809360000FBE9093600008950E94BD115B
:1005D00080913D038230D0F30E942E06F7CFCF9357
:1005E000DF9300D000D00F92CDB7DEB785E0782E34
:1005F000CE0101964C01682E592CE0916903F091CF
:100600006A031081A12CB12C111529F00580F68107
:10061000E02DA080B1800E942B150E9431156C0145
:100620008091610390916203C816D90608F047C013
:100630000E944320D0926203C09261030E9441163F
:10064000D401E72D1D92EA95E9F740E050E0662DD0
:10065000752D80916503909166030E94DF098115D5
:1006600061F2898187FDF1CF0C811D81D8011A9635
:100670008D919C91892B21F0C80102960E94F10571
:100680000E9431157C018091610390916203E8160C
:10069000F90610F40E944320F0926203E092610395
:1006A000E981E150E93088F60E2E000CFF0BE25D87
:1006B000FC4DD80152968C9152970C94A621D09261
:1006C0006203C0926103111551F0CA14DB0470F08B
:1006D0000E944116B601C5010E941920B1CFE091D8
:1006E0006703F091680341E08081811140E0B5012A
:1006F0006C197D0980916503909166030E94580CE6
:100700000E94411681119CCF0E942E0699CF8160D4
:10071000F801828B2A813B8164857585620F731F86
:10072000A701C8010E94C21F811509F48ECFD8010C
:1007300052968C91529782FF12C06A817B811C96DF
:100740008D919C91680F791FA701C8010E94F51F28
:10075000D8015096ED91FC91C801099576CF8E7F16
:10076000F801828BF5CF816052968C9352976A8103
:100770007B811D967C936E931C976E0D7F1D970158
:10078000A701C8010E94C21F60CF81FD04C0C8013B
:100790000E947F055ACF8E7FF801828B56CF0E9430
:1007A000C001E12CF12C01E020E030E040E051E01C
:1007B0006CED72E085E990E00E94E71102E020E034
:1007C00030E040E052E060EE72E08EE990E00E949E
:1007D000E7110E94D414FFCFCF93DF938BE090E01A
:1007E0000E946C05EC01009731F0FC01119211920E
:1007F000CF010E949005CE01DF91CF9108958F9295
:100800009F92AF92BF92CF92DF92EF92FF920F939F
:100810001F93CF93DF936C01EB01942E822E58012E
:100820000E942B15F60100811181C8018C239D23A4
:10083000811018C0892BC9F4A114B10401F181E021
:10084000911001C080E060E070E0782F811074604A
:100850006C2B7D2BA501C60102960E94091800E0B1
:1008600010E00FC08C179D0739F7911441F0CE01AD
:100870008095909580239123F60191838083A12C0C
:10088000B12C0E944116AB28D1F0811102C00E9408
:100890002E060E94551B7C0191FD0FC00FB6F894E7
:1008A0000F92F601E080F180CE018E219F21811010
:1008B00014C0892BA9F40F900FBE87011127C8011E
:1008C000DF91CF911F910F91FF90EF90DF90CF902C
:1008D000BF90AF909F908F900895C817D90759F790
:1008E000911449F3C095D095CE21DF21F601D18333
:1008F000C083E1CFFC019B010FB6F8940F92808179
:1009000091812095309528233923318320830F90BE
:100910000FBE0895FC01808191810895AF92BF922E
:10092000CF92DF92EF92FF920F931F93CF93DF93BB
:10093000EC018B016C0185E0C80ED11C0E942B15C7
:10094000EF80F88488819981802B912B998388830B
:1009500000E010E068817981EC14FD04A9F40095B1
:10096000109506231723198308830E944116888156
:100970009981DF91CF911F910F91FF90EF90DF90C0
:10098000CF90BF90AF900895F701A280B3802081EF
:100990003181C9019927AC014623572332FD04C098
:1009A000452B29F47501D6CF84179507D9F730FF69
:1009B00002C0082B192B7260C7010E942F19F2CFB9
:1009C0008F929F92AF92BF92CF92DF92EF92FF925F
:1009D0000F931F93CF93DF938C014B01EA015901D1
:1009E0000E942B15F801E080F180B401C8010E943B
:1009F0008E04E828F928C7018C239D238C179D07B6
:100A000009F03DC0F801808191819E0120953095CB
:100A10008223932391838083A12CB12C0E944116C1
:100A2000AB28F9F0811102C00E942E060E94551BCE
:100A30006C0191FD14C00FB6F8940F92F801C080BC
:100A4000D180CE018C219D218C179D0731F4C0955A
:100A5000D095CC21DD21D183C0830F900FBE7601CC
:100A6000FF24C701DF91CF911F910F91FF90EF906D
:100A7000DF90CF90BF90AF909F908F900895A1147A
:100A8000B10451F0A501BE017560C80102960E9433
:100A90000918E12CF12CC2CFF801E080F180BECF23
:100AA000CF93DF93EC010E942B158A81811107C03F
:100AB0000E944116CE01DF91CF910C947F0560E03A
:100AC00072E08F8198850E942F19EFCFBA010C94A4
:100AD0008E04BA010C947A04CF93DF93D82FC92FD8
:100AE0000E942B158D2F9C2F0E94C021D82FC92F1B
:100AF0000E9441168D2F9C2FDF91CF910895CF93A7
:100B0000DF93EC01892B49F00E942B15CE010E9446
:100B10005622DF91CF910C944116DF91CF91089529
:100B2000FC010396928381832FEF3FEF348323836D
:100B3000968385839087878310820895FC011186B0
:100B400010860895CF93DF939C01FB01DC01119681
:100B5000CD91DC91D383C2838C819D8195838483E5
:100B60008C819D81DC0113967C936E9312977D831B
:100B70006C8331872087F90180818F5F8083DF91CB
:100B8000CF910895CF93DF93DC01FB012081318168
:100B90002F3F3207C9F417966D917C911897EB019E
:100BA0008A819B8193838283EC01FD83EC8375832F
:100BB0006483EB01FB83EA83B187A0878C918F5F0D
:100BC0008C93DF91CF910895CD010396BC01EC0188
:100BD0008A819B81EC014881598124173507B0F740
:100BE000DECFCF93DF93FC01A085B1858281938115
:100BF00024813581EC013D832C83C481D5819B8385
:100C00008A8311968D919C9112978E179F0721F4DC
:100C10001296DC93CE931197118610868C91815099
:100C20008C93DF91CF910895FC016083DC017E936A
:100C30001E9280E88E931E9257974C935E93CF013D
:100C4000839708950FB6F894A89580916000886105
:100C500080936000109260000FBE08950F920FB64F
:100C6000F8940F921F9211242F923F924F925F920D
:100C70006F927F928F929F92AF92BF92CF92DF92AC
:100C8000EF92FF920F931F932F933F934F935F9396
:100C90006F937F938F939F93AF93BF93CF93DF9384
:100CA000EF93FF93A091FA02B091FB020DB60D9263
:100CB0000EB60D920E946417A091FA02B091FB0249
:100CC000CD91CDBFDD91DEBFFF91EF91DF91CF914F
:100CD000BF91AF919F918F917F916F915F914F9154
:100CE0003F912F911F910F91FF90EF90DF90CF9048
:100CF000BF90AF909F908F907F906F905F904F903C
:100D00003F902F901F900F900FBE0F9008950F925D
:100D10000FB6F8940F921F9211242F923F924F9288
:100D20005F926F927F928F929F92AF92BF92CF927B
:100D3000DF92EF92FF920F931F932F933F934F9366
:100D40005F936F937F938F939F93AF93BF93CF9353
:100D5000DF93EF93FF93A091FA02B091FB020DB6DF
:100D60000D920EB60D920E946417A091FA02B091F6
:100D7000FB02CD91CDBFDD91DEBFFF91EF91DF9101
:100D8000CF91BF91AF919F918F917F916F915F9123
:100D90004F913F912F911F910F91FF90EF90DF9016
:100DA000CF90BF90AF909F908F907F906F905F900B
:100DB0004F903F902F901F900F900FBE0F9018955F
:100DC0000F920FB6F8940F921F9211242F923F9218
:100DD0004F925F926F927F928F929F92AF92BF924B
:100DE000CF92DF92EF92FF920F931F932F933F9337
:100DF0004F935F936F937F938F939F93AF93BF9323
:100E0000CF93DF93EF93FF93A091FA02B091FB028F
:100E10000DB60D920EB60D9213BE0E944D158111A6
:100E20000E946417A091FA02B091FB02CD91CDBF50
:100E3000DD91DEBFFF91EF91DF91CF91BF91AF9137
:100E40009F918F917F916F915F914F913F912F91E2
:100E50001F910F91FF90EF90DF90CF90BF90AF90D8
:100E60009F908F907F906F905F904F903F902F90CA
:100E70001F900F900FBE0F9008950E94DA02A0916C
:100E8000FA02B091FB02CD91CDBFDD91DEBFFF91A3
:100E9000EF91DF91CF91BF91AF919F918F917F9112
:100EA0006F915F914F913F912F911F910F91FF9003
:100EB000EF90DF90CF90BF90AF909F908F907F90FA
:100EC0006F905F904F903F902F901F900F900FBEAC
:100ED0000F90089581E008950E94E0061895FC01A6
:100EE0000FB6F8940F92928D0F900FBE81E0911182
:100EF00080E008950F931F93CF93DF93EC01042FAD
:100F00001A8D8C8D811111C088819981892B09F5E9
:100F10008C819D810E94A71A1D821C821F5F1A8FDF
:100F2000DF91CF911F910F910895482F50E001114B
:100F300017C08A819B810E94E7222C8D8A819B8128
:100F4000820F911D9B838A832C813D818217930799
:100F500010F480E0E3CF888199819B838A83F9CF65
:100F60008E819F810E94E7222C8D30E044275527F7
:100F7000421B530B8E819F81821B930B9F838E8319
:100F8000288139818217930730F48C819D81840FE9
:100F9000951F9F838E830230E1F61115D1F2115017
:100FA000D8CFFC01CB01248D211599F0422F50E0C0
:100FB00066817781620F711D778366832481358115
:100FC0006217730720F060817181778366830C94C8
:100FD000E7220895EF92FF921F93CF93DF93EC01E6
:100FE0000FB6F8940F921E8D7C0181E1E80EF11C82
:100FF00011161CF4898981111BC08FEF8E8F0F9001
:101000000FBE0FB6F8940F921D8D7E0188E0E80E9A
:10101000F11C11161CF48885811112C08FEF8D8F81
:101020000F900FBEDF91CF911F91FF90EF90089529
:10103000C7010E948E1881110E94FD191150D8CF4E
:10104000C7010E948E1881110E94FD191150E1CF35
:10105000CF93DF93EC01892B09F43EC08B8D811572
:1010600009F43AC00FB6F8940F92888199812B8DBC
:101070004C8DFC01249FE00DF11D1124FD83EC83B8
:101080001A8E9B838A832150330B429FF001439F2A
:10109000F00D11248E0F9F1F9F838E838FEF8D8FF6
:1010A0008E8F611110C08885811539F0CE010896A8
:1010B0000E948E1881110E942E060F900FBE81E0B3
:1010C000DF91CF910895CE0108960E949005CE0140
:1010D00041960E949005F1CF80E0F2CF0F931F93CD
:1010E000CF93DF93082F162F811108C0C0E0D0E006
:1010F000CE01DF91CF911F910F910895869FC0017E
:1011000011244F960E946C05EC01009779F31111A0
:101110004F96998388830B8F1C8F61E0CE010E94CC
:101120002808E6CF1F93CF93DF93162F811579F010
:10113000861768F042E060E00E946E08EC01892B9F
:1011400009F01A8FCE01DF91CF911F910895C0E071
:10115000D0E0F8CFAF92BF92DF92EF92FF920F9361
:101160001F93CF93DF9300D000D00F92CDB7DEB79F
:101170008C01E62ED72E5D834C83F22E80E0580141
:1011800098E0A90EB11C0FB6F8940F92F801228DC9
:10119000938D291718F54F2D6E2D7D2DC8010E94B6
:1011A0007A07F8019189911521F0C80141960E94B2
:1011B0008E1881110E942E060F900FBE81E00F90B5
:1011C0000F900F900F900F90DF91CF911F910F9183
:1011D000FF90EF90DF90BF90AF900895F2E0FF1680
:1011E000D1F22C813D81232B21F40F900FBE80E0A2
:1011F000E6CF811104C0CE0101960E94C2190F9062
:101200000FBE0E942B150FB6F8940F92F801858D32
:101210008F3F09F4158EF801868D8F3F09F4168EE5
:101220000F900FBEBE016C5F7F4FCE0101960E94F2
:10123000CD19811120C00FB6F8940F92F801928D4C
:10124000838D0F900FBE981310C06C817D81C501F6
:101250000E94F617C8010E94EA070E9441168111F8
:1012600002C00E942E0681E08ECFC8010E94EA07CC
:101270000E944116F8CFC8010E94EA070E94411659
:10128000B6CFCF93DF93482F60E081E00E946E08D5
:10129000EC01009761F01D821C82198218821E8267
:1012A00020E040E050E060E070E00E94AA08CE013B
:1012B000DF91CF9108950F931F93CF93DF93EC01AC
:1012C0000C811D810E94131A08171907A1F48E8141
:1012D00081508E83811531F081E0DF91CF911F9194
:1012E0000F91089520E040E050E060E070E0CE0112
:1012F0000E94AA08F1CF80E0F0CFEF92FF921F93F7
:10130000CF93DF93EC017A01422F9A8D8B8D981742
:1013100018F080E02230B9F41E8D8A8DCE010E9433
:101320007A071F3FB1F48989811561F0CE0141969A
:101330000E948E18811531F0E114F10419F081E05A
:10134000F701808381E0DF91CF911F91FF90EF90B3
:1013500008950E9440151817A8F71F5F1E8FF2CF3F
:10136000EF92FF921F93CF93DF93EC017B018A8D65
:101370009B8D891710F51E8D8F5F8A8F1F3FB1F4EB
:101380008989811561F0CE0141960E948E188115E0
:1013900031F0E114F10419F081E0F701808381E07C
:1013A000DF91CF911F91FF90EF9008950E9440151B
:1013B0001817A8F71F5F1E8FF2CF80E0F1CFAF9212
:1013C000BF92DF92EF92FF920F931F93CF93DF9321
:1013D00000D000D00F92CDB7DEB78C01E62ED72E0D
:1013E0005D834C8380E0580191E1A90EB11C0FB6DA
:1013F000F8940F92F801F28CF11421F16E2D7D2DED
:10140000C8010E94D107FA94F801F28E80858115F7
:1014100039F0C80108960E948E1881110E942E068C
:101420000F900FBE81E00F900F900F900F900F90D4
:10143000DF91CF911F910F91FF90EF90DF90BF90C0
:10144000AF9008952C813D81232B21F40F900FBE86
:1014500080E0E9CF811104C0CE0101960E94C2193B
:101460000F900FBE0E942B150FB6F8940F92F80143
:10147000858D8F3F09F4158EF801868D8F3F09F415
:10148000168E0F900FBEBE016C5F7F4FCE0101968E
:101490000E94CD1981111BC0C8010E946F078115E0
:1014A00081F06C817D81C5010E94F617C8010E9400
:1014B000EA070E944116811102C00E942E0681E0B7
:1014C00096CFC8010E94EA070E944116F8CFC801D2
:1014D0000E94EA070E944116C8010E946F07811509
:1014E00071F3B6CFCF92DF92FF920F931F93CF93FA
:1014F000DF9300D000D00F92CDB7DEB78C017D8393
:101500006C83F12C90E0680181E1C80ED11C0FB60C
:10151000F8940F92D8015A968C915A97811549F1F7
:1015200081505A968C935A978D919C91892B29F4CE
:101530000E946C1BF80195838483D80118968C91C6
:10154000811539F0C80108960E948E1881110E94F9
:101550002E060F900FBE81E00F900F900F900F900E
:101560000F90DF91CF911F910F91FF90DF90CF905F
:1015700008952C813D81232B21F40F900FBE80E034
:10158000EBCF911104C0CE0101960E94C2190F90B9
:101590000FBE0E942B150FB6F8940F92F801858D9F
:1015A0008F3F09F4158ED8015E968C915E978F3F20
:1015B00011F45E961C920F900FBEBE016C5F7F4FC0
:1015C000CE0101960E94CD1981112AC0C8010E9446
:1015D0006F078115F9F0F80180819181892B51F411
:1015E0000FB6F8940F92848195810E942F1AF82EDD
:1015F0000F900FBE6C817D81C6010E94F617C80155
:101600000E94EA070E944116811102C00E942E0624
:1016100091E07DCFC8010E94EA070E944116F8CFF1
:10162000C8010E94EA070E944116C8010E946F0784
:10163000811571F3F11409F4A2CF0FB6F8940F924B
:10164000F8016189611531F00688F789E02D808104
:1016500064E0681BD80114968D919C910E94F61A43
:101660008CCFEF92FF920F931F93CF93DF93EC01F8
:101670008B01EC80FD800E94131AE816F90629F40C
:101680008E818F5F8E8381E006C0B801CE010E94FB
:10169000720A8111F5CFDF91CF911F910F91FF90C9
:1016A000EF900895CF92DF92EF92FF920F931F93E6
:1016B000CF93DF9300D000D00F92CDB7DEB78C016F
:1016C000F62EE72E5D834C8380E0680191E1C90E20
:1016D000D11C0FB6F8940F92F801928D911529F153
:1016E000C680D7806F2D7E2DC8010E94D107F801DA
:1016F000D782C6828189811539F0C80141960E943E
:101700008E1881110E942E060F900FBE81E00F905F
:101710000F900F900F900F90DF91CF911F910F912D
:10172000FF90EF90DF90CF9008952C813D81232B87
:1017300021F40F900FBE80E0EACF811104C0CE01EA
:1017400001960E94C2190F900FBE0E942B150FB672
:10175000F8940F92F801858D8F3F09F4158EF801EA
:10176000868D8F3F09F4168E0F900FBEBE016C5F01
:101770007F4FCE0101960E94CD1981111BC0C80177
:101780000E946F07811581F06C817D81C6010E94E6
:10179000F617C8010E94EA070E944116811102C093
:1017A0000E942E0681E095CFC8010E94EA070E94A0
:1017B0004116F8CFC8010E94EA070E944116C801ED
:1017C0000E946F07811571F3B6CFEF92FF920F93CE
:1017D0001F93CF93DF93EC017A010A8D80E001150E
:1017E000C1F01D8DCE010E94D10701500A8F1F3F0D
:1017F000B9F48885811561F0CE0108960E948E1893
:10180000811531F0E114F10419F081E0F7018083D2
:1018100081E0DF91CF911F910F91FF90EF9008959C
:101820000E9440151817A0F71F5F1D8FF1CF0F936F
:101830001F93CF93DF93EC018A8D811569F00E81A0
:101840001F81CE010E94D1071F830E8381E0DF91AB
:10185000CF911F910F91089580E0F9CFFC010FB651
:10186000F8940F92828D0F900FBE0895FC010FB671
:10187000F8940F92928D838D891B0F900FBE08955F
:10188000FC01828D08950C947F05FC01848D0895E0
:10189000FC01838D0895FC01928D81E0911180E01F
:1018A0000895FC01928D81E0238D291380E0089535
:1018B000CF93DF93EC010FB6F8940F928D8D8F3F8D
:1018C00009F41D8E8E8D8F3F09F41E8E0F900FBE72
:1018D0008A8D811104C0CE0141960E944E18CE011E
:1018E000DF91CF910C94EA07FC012481358182813C
:1018F0009381820F931F40815181841B950B821726
:10190000930710F0821B930B08958F929F92AF92D2
:10191000BF92CF92DF92EF92FF920F931F93CF93DC
:10192000DF937C016B018A01E901FC01A480B58091
:10193000A21AB30A45014A155B0508F44A01F701EA
:1019400084859585A401B6018C0F9D1F0E94E72216
:10195000A016B10658F4A80148195909B601680D36
:10196000791DF701848595850E94E722CE01800FBD
:10197000911FF701248135818217930710F0821B94
:10198000930BDF91CF911F910F91FF90EF90DF901C
:10199000CF90BF90AF909F908F9008956F927F925D
:1019A0008F929F92AF92BF92CF92DF92EF92FF926F
:1019B0000F931F93CF93DF9300D0CDB7DEB76C01A9
:1019C0004B017A013801DC0112960D911C9113979D
:1019D0001E968C9180FF2DC05A83498326153705AA
:1019E00068F1980142E050E0BE016F5F7F4FC60191
:1019F0000E94850C8C01E114F10449F09801A701C3
:101A0000B401C6010E94850CF60193838283C7014D
:101A10000F900F90DF91CF911F910F91FF90EF905A
:101A2000DF90CF90BF90AF909F908F907F906F90FE
:101A3000089524173507F8F67901DDCFE12CF12C54
:101A4000E6CF8F929F92AF92BF92CF92DF92EF92AA
:101A5000FF920F931F93CF93DF937C014B018A0179
:101A6000E901FC01C480D580C21AD30A56014C1585
:101A70005D0508F45A01F701648575856C0F7D1FBB
:101A8000A501C4010E94E722C016D10658F4A8019E
:101A90004A195B09F70164857585C4018A0D9B1D90
:101AA0000E94E722CE01800F911FF701248135812A
:101AB0008217930710F0821B930BDF91CF911F9138
:101AC0000F91FF90EF90DF90CF90BF90AF909F90DD
:101AD0008F9008956F927F928F929F92AF92BF9254
:101AE000CF92DF92EF92FF920F931F93CF93DF93EA
:101AF00000D0CDB7DEB77C013B016A018901FC0152
:101B0000A080B180868580FF12C0950142E050E040
:101B1000BE016F5F7F4FC7010E94210D5C0189816B
:101B20009A81C816D90628F1025011096C01C01615
:101B3000D10608F486010115110549F09501A801A7
:101B4000B301C7010E94210DF70191838083C80171
:101B50000F900F90DF91CF911F910F91FF90EF9019
:101B6000DF90CF90BF90AF909F908F907F906F90BD
:101B7000089500E010E0EBCFDF92EF92FF920F9319
:101B80001F93CF93DF938C01D62EE72EFF24F3947F
:101B9000413039F081E0423009F080E0F82EFF0C4E
:101BA000FF0CC0E0D0E00F3E8FEF1807E8F4C8014B
:101BB00041960E946C05EC01892BB1F080E1FE0199
:101BC00011928A95E9F7CE0140969D878C870F5F29
:101BD0001F4F1D830C838D2D9E2D009711F481E0E6
:101BE00090E09F838E83FE86CE01DF91CF911F917F
:101BF0000F91FF90EF90DF900895FC01868581FDA5
:101C000003C0CF010C947F0580E1DF011D928A950E
:101C1000E9F70895FC010FB6F8940F92808591853D
:101C2000892BD9F482859385892BB9F48685268101
:101C30003781448155816485758590E1DF011D926E
:101C40009A95E9F77587648755834483378326839C
:101C5000868781E00F900FBE089580E0FBCFFC01E6
:101C600080859185892BC9F482859385892BA9F478
:101C7000868526813781448155816485758590E10B
:101C8000DF011D929A95E9F7758764875583448330
:101C900037832683868781E0089580E00895FC01DC
:101CA0009B01672B11F421E030E084819581281796
:101CB000390720F43783268381E0089580E0089572
:101CC000FC01248135816081718180819181428113
:101CD0005381A081B181A617B707A9F7820F931F7F
:101CE0000197841B950B8217930710F0821B930BAF
:101CF00008950C94740C2F923F924F925F926F92C2
:101D00007F928F929F92AF92BF92CF92DF92EF928B
:101D1000FF920F931F93CF93DF93CDB7DEB72B972F
:101D20000FB6F894DEBF0FBECDBF5C016A877B871C
:101D30002A013D832C83FC018481958101972685AE
:101D40003A0120FF53C0F2E06F0E711C8615970513
:101D500008F050C01D821C82C5010E94600E4C011B
:101D600083019401A2016A857B85C5010E94CE0C86
:101D70001C01892B09F1C5010E94740CF501268113
:101D8000378182179307C0F00E942B15F5018085DB
:101D90009185892B79F080859185E12CF12C00E0EB
:101DA00010E020E030E0A90167850E94C01CF50129
:101DB000118610860E944116C1012B960FB6F89429
:101DC000DEBF0FBECDBFDF91CF911F910F91FF906E
:101DD000EF90DF90CF90BF90AF909F908F907F90CB
:101DE0006F905F904F903F902F90089584179507C4
:101DF00008F43C018C819D81892B09F4ADCF8E01C3
:101E00000F5F1F4FC8010E94B219088719870FB6CC
:101E1000F8940F92C5010E94600E4C01861597053B
:101E200078F5F501678580E090E00E94561F0E94DA
:101E3000131A8E839F838E819F81F50193878287FA
:101E40000F900FBECC80DD80E12CF12C00E010E083
:101E5000980140E050E0BA0187850E94F31BF5012C
:101E600013861286BE016C5F7F4F888599850E941C
:101E7000CD19811561F28114910409F46DCF70CFF1
:101E80000F900FBEF8CF8F929F92AF92BF92CF92DA
:101E9000DF92EF92FF920F931F93CF93DF93EC01AA
:101EA0004B017A0169018E8581708A01080F111D2D
:101EB000080F111DCE010E94600E9C01A701B40104
:101EC000CE010E94CE0C5C01892BD1F0CE010E9484
:101ED000740C2E813F818217930790F08885998535
:101EE000892B71F088859985E12CF12C00E010E0B8
:101EF00020E030E0A9016F850E949C1D198618869C
:101F0000C501DF91CF911F910F91FF90EF90DF906E
:101F1000CF90BF90AF909F908F9008952F923F9257
:101F20004F925F926F927F928F929F92AF92BF92E9
:101F3000CF92DF92EF92FF920F931F93CF93DF9395
:101F4000EC012B011A0169018E8580FD4BC0812CAB
:101F5000912C82FF02C08E809F80C114D10429F190
:101F60000FB6F8940F92CE010E94740C5C01881693
:101F7000990648F06F8580E090E00E94561F0E940D
:101F8000131A998788870F900FBE8A149B0470F1EB
:101F9000E12CF12C00E010E0980140E050E0BA01A3
:101FA0008F850E94F31B19861886CE010E94740C3F
:101FB0005C0188169906D0F0612C712CC301DF9169
:101FC000CF911F910F91FF90EF90DF90CF90BF9036
:101FD000AF909F908F907F906F905F904F903F90C9
:101FE0002F90089582E0882E912CB7CF9501A10102
:101FF000B201CE010E946A0D3C01892BE9F20E94D8
:102000002B158A859B85892B71F08A859B85E12C10
:10201000F12C00E010E020E030E0A9016F850E9483
:10202000C01C1B861A860E944116C8CF0F931F93AF
:10203000CF93DF9300D0CDB7DEB78C01FC0186854E
:1020400080FD09C080E090E00F900F90DF91CF916C
:102050001F910F910895C8010E94740C039790F38B
:10206000F8012081318142E050E0BE016F5F7F4F77
:10207000C8010E94210D89819A81E6CF6F927F92DB
:102080008F929F92AF92BF92CF92DF92EF92FF9288
:102090000F931F93CF93DF93EC017B013A0169010A
:1020A0008E85082F017010E0000F111FCE010E94D5
:1020B000740C0817190790F0A12CB12CC501DF9101
:1020C000CF911F910F91FF90EF90DF90CF90BF9035
:1020D000AF909F908F907F906F9008959C01A30187
:1020E000B701CE010E946A0D5C01892B29F38A8514
:1020F0009B85892B19F38A859B85E12CF12C00E0C7
:1021000010E020E030E0A9016F850E949C1D1B8635
:102110001A86D4CFFC01208131814281538181E034
:102120004217530709F080E00895CF93DF93FC0135
:1021300086858170C82F80E0D82FCC0FDD1FCF019E
:102140000E94600E9C0181E0C217D30708F480E072
:10215000DF91CF910895CF92DF92EF92FF920F938C
:102160001F93CF93DF93EC016B0188859985892BB1
:10217000C1F088859985E12CF12C00E010E020E089
:1021800030E0A9016F850E949C1D1986188681E0A8
:10219000DF91CF911F910F91FF90EF90DF90CF9043
:1021A000089580E0F5CFCF92DF92EF92FF920F93E8
:1021B0001F93CF93DF93EC016B018A859B85892B5D
:1021C000C1F08A859B85E12CF12C00E010E020E035
:1021D00030E0A9016F850E949C1D1B861A8681E054
:1021E000DF91CF911F910F91FF90EF90DF90CF90F3
:1021F000089580E0F5CFFC0187850895FC0167878D
:102200000895AF92BF92DF92EF92FF920F931F93C8
:10221000CF93DF93EC01D62EA0900803B090090372
:102220000091290310912A03E0902703F0902803DE
:102230008091FA029091FB0202960E94F105CF3F35
:10224000DC0709F042C0D11409F43FC0E0910C034F
:10225000F0910D03A091FA02B091FB021596FC9348
:10226000EE931497A091FA02B091FB0284819581BC
:1022700017969C938E9316978091FA029091FB0289
:10228000A481B581029613969C938E9312978091A8
:10229000FA029091FB02029695838483E091FA0200
:1022A000F091FB028BE093E09387828780910B0390
:1022B0008F5F80930B03DF91CF911F910F91FF9060
:1022C000EF90DF90BF90AF900895CA0DDB1DE091B5
:1022D000FA02F091FB02D383C2836091FA027091FB
:1022E000FB026E5F7F4FCA15DB0560F4C701DF910B
:1022F000CF911F910F91FF90EF90DF90BF90AF9023
:102300000C94C205C8010E94C2058091FF02909101
:102310000003C817D90778F6D0930003C093FF02D3
:10232000CACFFC01828593858B50934061F48489E8
:10233000958923E08E31920731F0892B21F497A5FE
:1023400081E0913009F480E00895E0912903F09153
:102350002A038081811107C08FEF9FEF90930003C4
:102360008093FF020895E0912903F0912A030580EC
:10237000F681E02D80819181F1CFCF93DF93809121
:102380001403811103C0DF91CF9108950FB6F89423
:102390000F92E0911A03F0911B03C681D781CE0101
:1023A00002960E94F10580910A03815080930A03EE
:1023B000809114038150809314030F900FBE8F8976
:1023C000988D0E947F05CE010E947F05D8CF3F9255
:1023D0004F925F926F927F928F929F92AF92BF9235
:1023E000CF92DF92EF92FF920F931F93CF93DF93E1
:1023F000482E392E6B015A01522E132F3701CA0174
:102400000E946C054C01892B99F48FEFDF91CF91DD
:102410001F910F91FF90EF90DF90CF90BF90AF9002
:102420009F908F907F906F905F904F903F90089516
:1024300080E390E00E946C05EC01892B09F4C6C092
:1024400080E3FE0111928A95E9F7988E8F8AA501A3
:1024500065EA70E0C4010E94F022C5010197AF88CF
:10246000B88CA80EB91EC114D10409F0B3C0043051
:1024700008F003E00E8B09A76E01F2E0CF0ED11C2D
:10248000C6010E949E05CE010C960E949E05D9872A
:10249000C88784E090E0801B91099D878C87DB8B47
:1024A000CA8B452D512F642D732DC5010E94140632
:1024B000998388836114710419F0F301D183C08377
:1024C0000FB6F8940F9280910A038F5F80930A03EE
:1024D0008091FA029091FB02892B09F08AC0D09377
:1024E000FB02C093FA0280910A03813081F58DE3EB
:1024F00093E00E94900586E493E00E9490058FE4AB
:1025000093E00E94900588E593E00E94900584E3A3
:1025100093E00E9490058BE293E00E9490058EE18B
:1025200093E00E94900585E193E00E9490058BE086
:1025300093E00E94900584E393E090932A038093B4
:1025400029038BE293E090932803809327038091E3
:1025500001038F5F80930103EE89809107038E173B
:1025600010F4E093070389E0E89FF00111249F0134
:10257000235C3C4FF901A181B281BD83AC831496E9
:102580008D919C9115979F838E8314968D919C912C
:102590001597FC01D382C2821596DC92CE921497D5
:1025A0003B872A87F90180818F5F80830F900FBE60
:1025B00080910603811541F0E091FA02F091FB024F
:1025C00096898E89981738F181E020CFC4010E9446
:1025D0007F051BCFF601DE0159969601205F3F4F24
:1025E00081918D93811519F02E173F07C9F718A611
:1025F0003ECF809106038111AACFE091FA02F091BB
:10260000FB0286899E89981708F4A1CFD093FB021C
:10261000C093FA029CCF0E942E06D6CF0F931F9331
:10262000CF93DF93EC010FB6F8940F92892B21F42E
:10263000C091FA02D091FB028E010E5F1F4FC801BC
:102640000E94F1058C899D89892B21F0CE010C9681
:102650000E94F105809101038F5F809301038091B7
:10266000FA029091FB0220910603211559F18C1773
:102670009D0741F5B80185E193E00E94A205809194
:1026800014038F5F8093140381E00F900FBE81309D
:1026900039F08F89988D0E947F05CE010E947F05B9
:1026A00080910603811549F08091FA029091FB0216
:1026B0008C179D0711F40E942E06DF91CF911F9178
:1026C0000F91089580910A03815080930A030E941C
:1026D000A51180E0DACFFC010FB6F8940F92892B98
:1026E00021F4E091FA02F091FB0286890F900FBE6F
:1026F0000895FC01892B21F4E091FA02F091FB028C
:1027000086890895FC010FB6F8940F92892B21F465
:10271000E091FA02F091FB0281A50F900FBE08959F
:10272000FC01892B21F4E091FA02F091FB0281A5D2
:102730000895EF92FF921F93CF93DF93EC016430E3
:1027400008F063E00FB6F8940F92209721F4C0913F
:10275000FA02D091FB0299A5691709F467C020918C
:10276000FA023091FB02961768F42C173D0741F0EE
:10277000E091FA02F091FB0211E08689861730F0B1
:1027800010E004C011E02C173D07D1F78E8998178F
:1027900011F0861708F46E8B69A72C853D8537FDEF
:1027A00006C024E030E0261B31093D872C8729E054
:1027B000829FC0011124835C9C4F2A853B8528178A
:1027C000390789F57E0182E0E80EF11CC7010E94FD
:1027D000F105EE89809107038E1710F4E09307034B
:1027E00029E0E29FF00111249F01235C3C4FF90195
:1027F000A181B281BD83AC8314968D919C91159774
:102800009F838E8314968D919C911597FC01F38282
:10281000E2821596FC92EE9214973B872A87F90183
:1028200080818F5F808311110E942E060F900FBE52
:10283000DF91CF911F91FF90EF9008950F931F9319
:10284000CF93DF93EC018091FA029091FB028C17F9
:102850009D0709F446C0209709F443C00FB6F894C9
:102860000F92CE010E9491118115C9F18E010E5F68
:102870001F4FC8010E94F1058E8990910703981798
:1028800010F48093070399E0899FF0011124AF01B0
:10289000435C5C4FFA01A181B281BD83AC83149685
:1028A0002D913C9115973F832E8314962D913C9149
:1028B0001597F9011383028315961C930E931497B1
:1028C0005B874A87FA0190819F5F9083E091FA02CB
:1028D000F091FB029689981710F40E942E060F9033
:1028E0000FBEDF91CF911F910F910895EF92FF924C
:1028F0001F93CF93DF93EC010E949111182F811544
:1029000009F450C08091FC02811145C0E091FA02A7
:10291000F091FB028E8996899817D8F581E0809313
:1029200003037E0182E0E80EF11CC7010E94F1055D
:10293000EE89809107038E1710F4E093070389E076
:10294000E89FF00111249F01235C3C4FF901A18114
:10295000B281BD83AC8314968D919C9115979F8312
:102960008E8314968D919C911597FC01F382E282DF
:102970001596FC92EE9214973B872A87F901808185
:102980008F5F8083812FDF91CF911F91FF90EF9018
:10299000089510E0C6CFBE01645F7F4F8EE193E0E3
:1029A0000E94A20510E0EECFEF92FF920F93CF931B
:1029B000DF93CDB7DEB760970FB6F894DEBF0FBEDA
:1029C000CDBFA8EEB2E0FE013196BF018D9181939B
:1029D0008111FCCF8DEFE82E82E0F82E00E020E0A0
:1029E00030E04CE550E086EE92E00E94E711813045
:1029F00099F40E948A20813079F4F8942FEF3FEF08
:102A0000309300032093FF02809306031092090382
:102A1000109208030E943D078091060160960FB650
:102A2000F894DEBF0FBECDBFDF91CF910F91FF9025
:102A3000EF9008950E9442210E940E138091FD02A2
:102A40009091FE020E940E130E94BD11F894109204
:102A500006030C9422068091FC028F5F8093FC0297
:102A600008950FB6F8940F9280910803909109038E
:102A70000F900FBE08958091080390910903089567
:102A800080910A0308959C01892B21F42091FA0278
:102A90003091FB02C90149960895CF92DF92EF92DF
:102AA000FF921F93CF93DF938091FC028111DEC0D0
:102AB000C0910803D091090321966E01D0930903B8
:102AC000C0930803CD2BB9F48091290390912A0378
:102AD000209127033091280330932A032093290360
:102AE0009093280380932703809102038F5F809344
:102AF00002030E94A5118091FF0290910003C81665
:102B0000D90608F4B1C090E019E0E0912903F091F2
:102B10002A038081811126C02FEF3FEF30930003FD
:102B20002093FF02E091FA02F091FB02309103033F
:102B3000E689D9E0ED9FF0011124E35CFC4F81E0D0
:102B40002081223008F480E021E0311101C020E032
:102B5000822B892BDF91CF911F91FF90EF90DF9017
:102B6000CF900895E0912903F0912A030580F68122
:102B7000E02D0680F781E02D22813381C216D30635
:102B800068F2C285D3854481558126813781DA0177
:102B900015963C932E93149726813781D90113966D
:102BA0005C934E931297AF014E5F5F4F69817A81BC
:102BB0006417750711F43A83298313861286888176
:102BC00081508883A489B5891097F9F026853785C7
:102BD00060897189E9017D836C8360897189EB016A
:102BE0003B832A831196ED90FC9012979F01245FFE
:102BF0003F4FE216F30621F412967C936E931197E1
:102C0000158A148A8C9181508C93868920910703B0
:102C1000281710F480930703189FD0011124A35C98
:102C2000BC4F11962D913C91129735832483E90175
:102C30006C817D81778366836C817D81EB015B8311
:102C40004A83E9015D834C83B387A2872C912F5F70
:102C50002C93E091FA02F091FB0221E036893817BB
:102C600008F020E0922B51CF90E05CCF80910403DC
:102C7000909105030196909305038093040380E0EF
:102C800069CFEF92FF920F931F93CF93DF930FB60D
:102C9000F8940F928091FC0281508093FC02809105
:102CA000FC02811551F080E00F900FBEDF91CF91B3
:102CB0001F910F91FF90EF90089580910A03811565
:102CC00091F34091230350912403E0E0F0E069E0A8
:102CD00071E080911E03811122C0EF2B11F00E9440
:102CE000A511C0910403D0910503209761F011E074
:102CF0000E944D158111109303032197C9F710927B
:102D000005031092040380910303811561F2809101
:102D1000FA029091FB020E942E0681E0C5CFDA01F3
:102D20001696ED91FC91A489B589868597852089B1
:102D30003189EC013D832C83C089D1899B838A83AF
:102D4000CF010C9611962D913C91129728173907B7
:102D500021F41296DC93CE931197158A148A8C91E4
:102D600081508C93A285B38584819581268137819A
:102D7000EC013D832C83C681D7819B838A839F018D
:102D80002E5F3F4F11968D919C911297821793075A
:102D900021F41296DC93CE9311978C9181508C93F1
:102DA000868990910703981710F480930703689F12
:102DB000D0011124ED01C35CDC4F7E010980DA8172
:102DC000C02DD583C4830C811D81178306830C819C
:102DD0001D81D80113963C932E9312973D832C832B
:102DE000F386E286E70198819F5F9883A091FA02BB
:102DF000B091FB0256969C91981708F06ACF709399
:102E0000030367CF0F931F93CF93DF93EC018B01E5
:102E10000E942B15209108033091090348815981A4
:102E2000CA01800F911F2417350790F48417950766
:102E300090F099838883C0E00E944116811102C0FE
:102E40000E942E068C2FDF91CF911F910F91089534
:102E50008417950718F02817390758F7998388833E
:102E600060E0821B930B0E940111C1E0E5CFCF937C
:102E7000DF93EC01892B29F40E942E06DF91CF917C
:102E800008950E942B1560E0CE010E9401110E945E
:102E90004116811589F3F2CFCF93DF93EC010E94A5
:102EA0002B150FB6F8940F928091040390910503AF
:102EB0008C0F9D1F90930503809304030F900FBE0A
:102EC000DF91CF910C9441168091FC02811521F085
:102ED00081E0809303030895109203038091070318
:102EE00049E0489F90011124D901A35CBC4F9C91FB
:102EF000911529F11196ED91FC9112970280F381C1
:102F0000E02D1296FC93EE931197205C3C4FE21754
:102F1000F30741F41596ED91FC9116971296FC93E8
:102F2000EE931197268137813093FB022093FA02AA
:102F3000809307038091FA029091FB0208958150DB
:102F4000D0CF0F931F93CF93DF93EC010FB6F8947C
:102F50000F92892B21F4C091FA02D091FB028E01CD
:102F60000E5F1F4FC8010E94F1058C899D89892B36
:102F700021F0CE010C960E94F105B8018BE093E0A0
:102F80000E94A2058FA5813009F41FA60F900FBEE5
:102F900080910603811539F00FB6F8940F920E94C4
:102FA000A5110F900FBE8091FA029091FB028C1731
:102FB0009D0731F480910603811539F00E942E0699
:102FC000DF91CF911F910F91089590910A03809105
:102FD0000B03981305C01092FB021092FA02F0CF77
:102FE000DF91CF911F910F910C946417CF93DF93D2
:102FF000D62FC72F6091FA027091FB02645F7F4F5A
:103000000E94C20561E08D2F9C2FDF91CF910C941F
:103010000111CF93DF93FC01A091FA02B091FB0262
:1030200070681D967C936E931C97A181B281C091AC
:10303000FA02D091FB02BF87AE87C091FA02D0910D
:10304000FB0214968D919C911597998B888B2091FA
:10305000FA023091FB021496CD91DC911597245F12
:103060003F4F3B832A832091FA023091FB02245F79
:103070003F4F15963C932E931497A091FA02B0916E
:10308000FB025596FC93EE93549790819F5F90833B
:1030900061E0CA01DF91CF910C940111CF93DF93CE
:1030A000FC01CB01642FA181B281C091FA02D091C1
:1030B000FB02BF87AE87C091FA02D091FB02149643
:1030C0002D913C911597398B288B2091FA023091E4
:1030D000FB021496CD91DC911597245F3F4F3B8303
:1030E0002A832091FA023091FB02245F3F4F15960C
:1030F0003C932E931497A091FA02B091FB0255963F
:10310000FC93EE93549720812F5F2083411511F09B
:103110008FEF9FEFDF91CF910C940111CF93DF934D
:10312000DC011596ED91FC910680F781E02DA489D4
:10313000B5898685978520893189EC013D832C836B
:10314000C089D1899B838A83CF010C9611962D91DA
:103150003C9112972817390721F41296DC93CE93ED
:103160001197158A148A2C9121502C932091FC02DE
:10317000211153C0A285B385848195812681378131
:10318000EC013D832C83C681D7819B838A83CF0149
:10319000029611962D913C9112972817390721F428
:1031A0001296DC93CE9311972C9121502C93A689E3
:1031B000209107032A1710F4A0930703D9E0AD9FCD
:1031C000D0011124AD01435C5C4FDA011196CD9121
:1031D000DC91D583C4832C813D81378326832C8168
:1031E0003D81D90113969C938E9312979D838C8376
:1031F00053874287EA0188818F5F8883A091FA0212
:10320000B091FB02868956969C91981730F581E023
:1032100080930303DF91CF910895A0911F03B09194
:103220002003B787A68714962D913C911597318B73
:10323000208B1496CD91DC9115979B838A831596EC
:103240009C938E9314978EE193E0958B848B809161
:103250001E038F5F80931E03D1CF80E0DBCFCF931F
:10326000DF93DC01706811967C936E931696ED9156
:10327000FC91179718964D915C91199712962D9184
:103280003C91139714968D919C911597E9019D831C
:103290008C8314968D919C911597EC013B832A8326
:1032A000EA0129813A812A173B0711F49A8389831D
:1032B00019961C921E921897DA018C9181508C936A
:1032C000A285B3858481958126813781EC013D8378
:1032D0002C83C681D7819B838A839F012E5F3F4FBA
:1032E00011968D919C9112978217930721F4129653
:1032F000DC93CE9311978C9181508C938689909119
:103300000703981710F480930703D9E08D9FD0012D
:103310001124BD01635C7C4FDB011196CD91DC91E2
:10332000D583C4834C815D81578346834C815D8105
:10333000DA0113963C932E9312973D832C83738767
:103340006287EB0198819F5F9883E091FA02F09188
:10335000FB029689981718F481E080930303DF91AC
:10336000CF910895FC010FB6F8940F92809102035B
:1033700080838091080390910903928381830F9049
:103380000FBE0895FC0180910203808380910803A1
:1033900090910903928381830895FC01DB010FB6AC
:1033A000F8940F9240910803509109038D919C91DC
:1033B00011978F3F9807F9F02181328160910203C4
:1033C0007081761749F04217530730F01D921C9216
:1033D00081E00F900FBE0895BA01621B730B68174E
:1033E0007907A0F7841B950B820F931F8D939C93F5
:1033F000CF010E94C21980E0ECCF81E080930303EB
:103400000895FC01892B21F4E091FA02F091FB026E
:103410000788F08DE02D80E090E02191253A09F0B9
:1034200008950196FACF8091FA029091FB020895D7
:10343000811105C08091FA029091FB02089580E00D
:1034400090E0089580910603811539F09091FC0277
:1034500081E0911180E0880F089581E008950F9335
:103460001F93CF93DF93EC01892B09F46EC08E89F3
:10347000E091FA02F091FB029689891708F05CC08E
:103480002C853D8537FD0BC0E091FA02F091FB02DF
:10349000968924E030E0291B31093D872C8729E0FB
:1034A000829FC0011124835C9C4F2A853B8528178D
:1034B0003907D9F58E010E5F1F4FC8010E94F10533
:1034C000E091FA02F091FB02E689EE8B809107030E
:1034D0008E1710F4E093070389E0E89FF0011124B0
:1034E0009F01235C3C4FF901A181B281BD83AC8374
:1034F00014968D919C9115979F838E8314968D9130
:103500009C911597FC011383028315961C930E93CF
:1035100014973B872A87F90180818F5F808381E040
:10352000DF91CF911F910F910895E091FA02F091F0
:10353000FB0286898E8BF3CFE091FA02F091FB02B9
:1035400081E029A59689291758F380E0E9CF0F93E8
:103550001F93CF93DF93EC01892B31F480E0DF914F
:10356000CF911F910F9108958AA581508AA72E8926
:1035700099A5291799F38111F1CF8E010E5F1F4F85
:10358000C8010E94F105E9A5EE8B84E090E08E1B56
:1035900091099D878C87809107038E1710F4E09323
:1035A000070389E0E89FF00111249F01235C3C4F51
:1035B000F901A181B281BD83AC8314968D919C9158
:1035C00015979F838E8314968D919C911597FC017E
:1035D0001383028315961C930E9314973B872A87B7
:1035E000F90180818F5F808381E0B9CF0F931F93B2
:1035F000CF93DF93EC01892B09F452C099A596175C
:1036000008F4962F8E89891709F44AC02AA521301B
:1036100009F046C09E8B2C853D8537FD06C024E011
:1036200030E0291B31093D872C8729E0829FC001AA
:103630001124835C9C4F2A853B852817390781F527
:103640008E010E5F1F4FC8010E94F105EE89809127
:1036500007038E1710F4E093070389E0E89FF00159
:1036600011249F01235C3C4FF901A181B281BD83EC
:10367000AC8314968D919C9115979F838E8314969D
:103680008D919C911597FC011383028315961C93D1
:103690000E9314973B872A87F90180818F5F80837F
:1036A000DF91CF911F910F910895E091FA02F0916F
:1036B000FB0284859585A091FA02B091FB02E0910E
:1036C000FA02F091FB0256964C9124E030E0241B64
:1036D00031093587248708958091FA029091FB0281
:1036E000009721F0FC0122A52F5F22A70895CF9219
:1036F000DF92EF92FF920F931F93CF93DF93C82F28
:10370000062F6A010E942B150FB6F8940F92E091D4
:10371000FA02F091FB02EC2EF12C84E0C89FE0014C
:103720001124EC0FFD1F83A594A5A5A5B6A5892B93
:103730008A2B8B2B61F4E091FA02F091FB02EE0DE3
:10374000FF1D81E087A711E0C114D10409F410E046
:103750000F900FBE113021F461E0C6010E940111EB
:103760000E944116113021F4811102C00E942E06E0
:103770000FB6F8940F92E091FA02F091FB02EC0F71
:10378000FD1F63A574A585A596A561157105810525
:10379000910561F0E091FA02F091FB02EC0FFD1F40
:1037A0000115B1F013A614A615A616A6E091FA020B
:1037B000F091FB02EE0DFF1D17A60F900FBEDF91DB
:1037C000CF911F910F91FF90EF90DF90CF900895D0
:1037D0008B019C01015011092109310903A714A78C
:1037E00025A736A7E3CF2F923F924F925F926F9219
:1037F0007F928F929F92AF92BF92CF92DF92EF9281
:10380000FF920F931F93CF93DF9300D00F92CDB70A
:10381000DEB789832A013B01480159011701CA8299
:10382000DB820E942B150FB6F8940F92E091FA02FA
:10383000F091FB028981082F10E0E80FF11D87A5A8
:10384000823049F1E091FA02F091FB02C801880F41
:10385000991F880F991FE80FF91F83A594A5A5A5A7
:10386000B6A5409450946094709484219521A6212B
:10387000B72183A794A7A5A7B6A7E091FA02F09174
:10388000FB02E00FF11F81E087A777247394EA81A0
:10389000FB81EF2B09F4712C0F900FBEF1E07F122A
:1038A00005C061E08A819B810E9401110E9441163E
:1038B00091E0791204C0811102C00E942E060FB659
:1038C000F8940F9221143104A1F0E091FA02F091E2
:1038D000FB02C801880F991F880F991FE80FF91F75
:1038E00083A594A5A5A5B6A5F10180839183A283A4
:1038F000B383E091FA02F091FB02E00FF11F87A57C
:10390000823009F03BC0E091FA02F091FB02C8015D
:10391000880F991F880F991FE80FF91F83A594A599
:10392000A5A5B6A580949094A094B09488219921DF
:10393000AA21BB2183A794A7A5A7B6A781E0E09100
:10394000FA02F091FB02E00FF11F17A60F900FBED5
:103950000F900F900F90DF91CF911F910F91FF90DB
:10396000EF90DF90CF90BF90AF909F908F907F901F
:103970006F905F904F903F902F90089580E0DFCF41
:103980008F929F92AF92BF92CF92DF92EF92FF926F
:103990000F931F93CF93DF93DC0149015A01F80184
:1039A0000FB6F8940F9270E0E114F10489F0CB01A6
:1039B000880F991F880F991F8A0F9B1FEC010BA579
:1039C0001CA52DA53EA5E701088319832A833B8307
:1039D000ED01C60FD71F8FA592E09FA7E330F10539
:1039E00009F478C008F071C0E130F10509F47EC037
:1039F000329709F48FC0813009F057C01A96ED91C3
:103A0000FC911B9714968D919C91159716962D916C
:103A10003C911797EC013D832C831696CD91DC9158
:103A200017979B838A839D012E5F3F4F81819281EF
:103A30008217930711F4D283C183808181508083E0
:103A400056968C91569790910703981710F480938F
:103A50000703D9E08D9FF0011124BF01635C7C4F07
:103A6000FB01C181D2811596DC93CE9314974C81D2
:103A70005D8117965C934E9316974C815D81FA0198
:103A8000338322833D832C831B967C936E931A97FA
:103A9000EB0198819F5F9883E091FA02F091FB021D
:103AA0009689981710F40E942E0681E00F900FBEA1
:103AB000DF91CF911F910F91FF90EF90DF90CF900A
:103AC000BF90AF909F908F900895349709F093CF57
:103AD000823081F1660F771F660F771FFD01E60FB9
:103AE000F71F83A694A6A5A6B6A685CF660F771F57
:103AF000660F771FFD01E60FF71F43A554A565A5C7
:103B000076A5482959296A297B2943A754A765A77F
:103B100076A771CF660F771F660F771FFD01E60F3F
:103B2000F71F43A554A565A576A54F5F5F4F6F4F5F
:103B30007F4FEBCF80E0BACF4F925F926F927F9230
:103B40008F929F92AF92BF92CF92DF92EF92FF92AD
:103B50000F931F93CF93DF93FC0129013A01D80102
:103B6000460170E0E114F10489F0CB01880F991F40
:103B7000880F991F8E0F9F1FEC010BA51CA52DA56B
:103B80003EA5E701088319832A833B839F01260F03
:103B9000371FE9018FA592E09FA7A330B10509F473
:103BA0007EC008F076C0A130B10509F486C0129736
:103BB00009F49BC0813009F05AC08091FC02811148
:103BC000A6C0A285B3852481358186819781E901CC
:103BD0009D838C8386819781EC013B832A839F019F
:103BE0002E5F3F4F11964D915C91129742175307EC
:103BF00021F412969C938E9311978C9181508C9303
:103C0000A689809107038A1710F4A0930703D9E0CF
:103C1000AD9FD0011124A35CBC4F11968D919C9156
:103C2000129795838483EC014C815D815783468391
:103C30004C815D81EA013B832A83EC013D832C8327
:103C4000B387A2878C918F5F8C93A091FA02B09179
:103C5000FB02868956969C91981748F4811491042A
:103C600019F081E0F401808381E08093030381E017
:103C7000DF91CF911F910F91FF90EF90DF90CF9048
:103C8000BF90AF909F908F907F906F905F904F907C
:103C90000895149709F08ECF823009F45BC0660F47
:103CA000771F660F771FDF01A60FB71F9B964D92F8
:103CB0005D926D927C929E977DCF660F771F660F07
:103CC000771FDF01A60FB71F9B964D915D916D91F8
:103CD0007C919E9744295529662977299B964D9377
:103CE0005D936D937C939E9765CF660F771F660FEC
:103CF000771FDF01A60FB71F9B964D915D916D91C8
:103D00007C919E974F5F5F4F6F4F7F4FE7CFA091A2
:103D10001F03B0912003B787A68714968D919C91BD
:103D20001597918B808B14962D913C911597CF010F
:103D30000C96E9019B838A8315969C938E93149726
:103D40008EE193E0958B848B80911E038F5F80932F
:103D50001E037BCF80E08CCF0F931F93CF93DF9315
:103D6000FC018A01DC01A60FB11D9F968C919F97E3
:103D700092E09F969C9394E0699FD0011124AE0F2E
:103D8000BF1F9B964D915D916D917C919E974F5F6A
:103D90005F4F6F4F7F4F9B964D935D936D937C93D9
:103DA0009E97813009F05AC08091FC0281115BC05E
:103DB000A285B3852481358186819781E9019D8320
:103DC0008C8386819781EC013B832A839F012E5F40
:103DD0003F4F11964D915C9112974217530721F472
:103DE00012969C938E9311978C9181508C93A689F7
:103DF000809107038A1710F4A0930703D9E0AD9FC1
:103E0000D0011124A35CBC4F11968D919C91129707
:103E100095838483EC014C815D81578346834C817B
:103E20005D81EA013B832A83EC013D832C83B387C8
:103E3000A2878C918F5F8C93A091FA02B091FB02C4
:103E4000868956969C91981748F40115110519F02A
:103E500081E0F801808381E080930303DF91CF91BB
:103E60001F910F910895A0911F03B0912003B78770
:103E7000A68714968D919C911597918B808B1496A3
:103E80002D913C911597CF010C96E9019B838A8374
:103E900015969C938E9314978EE193E0958B848B6B
:103EA00080911E038F5F80931E03C6CFFC01892B78
:103EB00021F4E091FA02F091FB020FB6F8940F9210
:103EC000E60FF11D87A5823029F417A681E00F9037
:103ED0000FBE089580E0FBCFCF92DF92EF92FF926A
:103EE0000F931F93FC0169017A01892B21F4E09162
:103EF000FA02F091FB020FB6F8940F9284E0689FEB
:103F0000B0011124E60FF71F63A574A585A596A53A
:103F100003A514A525A536A5C094D094E094F094EB
:103F2000C022D122E222F322C3A6D4A6E5A6F6A699
:103F30000F900FBE1F910F91FF90EF90DF90CF90E9
:103F400008951092FB021092FA021092140310923C
:103F50000A031092090310920803109207031092AB
:103F600006031092050310920403109203031092AB
:103F7000020310920103109200031092FF021092AC
:103F8000FC0208950F931F93CF93DF93FC01DA0196
:103F9000738362839187808746175707B0F0A21B0F
:103FA000B30B84859585A817B907E8F4BF016E5F48
:103FB0007F4F80916703909168030E94C20580E063
:103FC000DF91CF911F910F9108954217530718F475
:103FD0006217730740F4BF016E5F7F4F80916903E2
:103FE00090916A03EACF81E0EBCFEF92FF920F93BB
:103FF0001F93CF93DF93EC018B017A016C857D8554
:10400000600F711F9801A701CE010E94C21F81118C
:1040100007C0DF91CF911F910F91FF90EF9008950E
:104020008C859D85080F191FE889F989CE010995AE
:10403000E5CFEF92FF920F931F93CF93DF938C0105
:104040007B01E0916903F0916A030580F681E02D20
:10405000C681D781CE0102960E94F1052A8922FFEE
:104060000FC0A701B801CE010E94F51FE889F989A8
:10407000CE01DF91CF911F910F91FF90EF900994A6
:104080002E7F2A8BF3CFE0916903F0916A03808140
:1040900081110DC0809167039091680390936A032A
:1040A00080936903F0936803E093670308950580A4
:1040B000F681E02D6FEF7FEF808191810E941920C2
:1040C000E2CF0FB6F8940F9280916503909166034A
:1040D000892BE9F484E793E00E9490058BE693E056
:1040E0000E94900584E793E090936A0380936903AC
:1040F0008BE693E0909368038093670340E065E06C
:104100008AE00E946E0890936603809365030F9087
:104110000FBE0895EF92FF920F930E94612080914D
:10412000650390916603892B99F083E6E82E83E07E
:10413000F82E03E020E030E04CE550E06DEE72E058
:104140008FEE92E00E94E7110F91FF90EF9008959B
:1041500080E0FACF9F92AF92BF92CF92DF92EF9220
:10416000FF920F931F93CF93DF93982EA92EB62E15
:10417000C72EF42ED22EE32E83E190E00E946C0530
:10418000EC01892BA1F01A8A0E9461209882A982F1
:10419000BC86CD86DE86EF86088B198BCE01029613
:1041A0000E949E05F11419F08A8984608A8BCE01E1
:1041B000DF91CF911F910F91FF90EF90DF90CF9003
:1041C000BF90AF909F9008950F931F93CF93DF936D
:1041D00000D000D00F92CDB7DEB7209165033091AB
:1041E0006603232B59F480E00F900F900F900F90EF
:1041F0000F90DF91CF911F910F91089569834A83AA
:104200005B838C839D83663074F70E94221A282F6B
:104210008091650390916603223041F420E0A8016B
:10422000BE016F5F7F4F0E94AA08DECF20E040E012
:1042300050E0F6CFCF93DF9300D000D00F92CDB7F0
:10424000DEB7F42FE52FA901A0916503B0916603B5
:10425000109749F480E00F900F900F900F900F90FF
:10426000DF91CF9108956983FA83EB838C839D83DB
:10427000663084F320E0BE016F5F7F4FCD010E9466
:104280007D09E9CF80916303909164030895FC0157
:10429000848595850895FC010FB6F8940F92828964
:1042A000611529F08460828B0F900FBE08958B7F7B
:1042B000FACFFC010FB6F8940F92828982FB88270F
:1042C00080F90F900FBE08950C945921FC01828152
:1042D00093810895FC01808191810895FC010FB6BE
:1042E000F8940F92828981700F900FBE0895FC019F
:1042F0000FB6F8940F92868597850F900FBE08959C
:10430000FC010FB6F8940F92668777870F900FBE67
:104310000895109266031092650310926403109240
:104320006303089597FB072E16F4009407D077FDDA
:1043300009D00E94AC2107FC05D03EF490958195F0
:104340009F4F0895709561957F4F0895EE0FFF1F61
:104350000590F491E02D0994AA1BBB1B51E107C005
:10436000AA1FBB1FA617B70710F0A61BB70B881F05
:10437000991F5A95A9F780959095BC01CD01089594
:104380000F931F93CF93DF939C01029710F422E0C9
:1043900030E0E0917D03F0917E0380E090E0A0E0CA
:1043A000B0E0309791F4009709F448C0821B930B5A
:1043B00084309105D0F58A819B816115710581F169
:1043C000FB0193838283FE0111C0408151810281F0
:1043D000138142175307D8F04217530799F41097E7
:1043E00061F012960C93129713961C933296CF019C
:1043F000DF91CF911F910F91089500937D0310934A
:104400007E03F4CF009751F04817590738F0AC01FC
:10441000DB01CA01BD01DF01F801C3CFEF01F9CF14
:1044200090937E0380937D03CECFFE01E80FF91FAA
:1044300021933193029799838883D9CF40917F0349
:10444000509180034115510541F440910201509172
:1044500003015093800340937F038091000190916A
:104460000101009741F48DB79EB7609104017091EE
:104470000501861B970B4817590708F0B8CF841B16
:10448000950B8217930708F4B2CFB9016E5F7F4F87
:104490008617970708F4ABCF640F751F70938003DE
:1044A00060937F03FA0121933193A1CFCF93DF93E0
:1044B0009C010097E9F0FC01329713821282C091AF
:1044C0007D03D0917E03DE0180E090E02097A1F48F
:1044D00080819181280F391F80917F039091800303
:1044E0008217930709F068C0F0938003E0937F037D
:1044F000DF91CF910895DA01AE17BF0708F042C0EF
:1045000012964D915C911397CD014115510599F784
:10451000DC011396FC93EE9312974D915D919D01F2
:10452000240F351FE217F30781F4208131812E5FBC
:104530003F4F240F351FDC0111963C932E932281AF
:10454000338113963C932E931297E0E0F0E08A813A
:104550009B810097B1F5DE018D919D918A0F9B1F84
:1045600020917F03309180032817390709F630978F
:1045700059F510927E0310927D03D0938003C0936F
:104580007F03B6CFB383A28340815181240F351FAF
:10459000A217B30771F44E5F5F4F2D913C911197B5
:1045A000240F351F3183208312962D913C91338344
:1045B0002283009709F0ACCFF0937E03E0937D0354
:1045C00097CFFE01EC01C3CF13821282D6CFFB013D
:1045D000DC0102C001900D9241505040D8F708957F
:1045E000DC0101C06D9341505040E0F70895BB27B6
:1045F0004A3031F4992322F4BDE2909581959F4F82
:104600000C940323BB27FB015527AA27880F991F6A
:10461000AA1FA41710F0A41B83955051B9F7A05DF1
:10462000AA3308F0A95DA193009779F7B111B1936E
:104630001192CB010C941C23DC01FC01672F7191BA
:104640007723E1F7329704C07C916D937083629178
:10465000AE17BF07C8F30895F894FFCF8703870309
:0E466000CB03B303C50387038703CB03B30368
:10466E00000081032000034552524F3A204D505511
:10467E0036303530206E616F20656E636F6E7472EA
:10468E0061646F210D0A0056657269666971756500
:10469E0020617320636F6E65786F657320493243B6
:1046AE0020285344412F53434C290D0A004C4544B6
:1046BE002070697363616E646F20726170696461EA
:1046CE006D656E74652E2E2E0D0A004D50553630CA
:1046DE00353020636F6E65637461646F20636F6D38
:1046EE00207375636573736F210D0A00436F6E66D9
:1046FE006967757261636F65733A0D0A002D20410B
:10470E0063656C65726F6D6574726F3A202B2F2D19
:10471E002032670D0A002D204769726F73636F7028
:10472E00696F3A202B2F2D2032353020677261753C
:10473E00732F730D0A002D2054617861206465205B
:10474E00616D6F7374726167656D3A2034487A0DCE
:10475E000A003D3D3D3D3D3D3D3D3D3D3D3D3D3DEB
:10476E003D3D3D3D3D3D3D3D3D3D3D3D3D3D3D3D6B
:10477E003D3D3D3D3D3D3D3D3D3D0D0A00496E6992
:10478E006369616E646F206C656974757261732EF6
:10479E002E2E0D0A0D0A002D2D2D20416D6F7374D6
:1047AE007261202300202D2D2D0D0A004163656CB2
:1047BE0065726F6D6574726F3A0D0A002020583A5B
:1047CE0020002072617720280067290D0A00202022
:1047DE00593A200020205A3A20004769726F7363BD
:1047EE006F70696F3A0D0A00206465672F73290D8B
:1047FE000A0054656D70657261747572613A2000BD
:10480E0020C2B043290D0A002020202053495354C2
:10481E00454D41204D505536303530202B204672B7
:10482E00656552544F530D0A00496E696369616C98
:10483E00697A616E646F2E2E2E0D0A006C6564000F
:10484E006D7075363035300049444C4500546D72EC
:06485E0020537663000008
:00000001FF
