:100000000C9434000C9451000C9451000C94510049
:100010000C9474000C9451000C9451000C945100F9
:100020000C9451000C9451000C9451000C9451000C
:100030000C9451000C9451000C9451000C945100FC
:100040000C9451000C9451000C9451000C945100EC
:100050000C9451000C9451000C9451000C945100DC
:100060000C9451000C94510011241FBECFEFD8E026
:10007000DEBFCDBF11E0A0E0B1E0EAEFF0E102C0E9
:1000800005900D92A037B107D9F722E0A0E7B1E0C3
:1000900001C01D92A731B207E1F70E94F5050C944B
:1000A0007B080C94000080E480937C0087E88093B8
:1000B0007A0038984098089590917C008F70907FD6
:1000C000892B80937C0080917A00806480937A00F1
:1000D00080917A0086FDFCCF809178009091790024
:1000E000089580E00C945C001F921FB61F921124AB
:1000F0002F938F939F9386B1982F927086958170DE
:1001000020910201211529F0911103C091E09093F3
:1001100072018093020186B1982F947082FB882728
:1001200080F920910101211529F0911103C091E07E
:10013000909371018093010186B1982F987083FB91
:10014000882780F920910001211529F0911103C021
:1001500091E090937001809300019F918F912F9176
:100160001F901FBE1F90189587B1817F87B988B1F6
:100170008E6088B9089526B130E0A90102C0559576
:1001800047958A95E2F7CA01809590958170089508
:100190009C01F999FECF32BD21BD60BDFA9AF99A52
:1001A00008959C01F999FECF32BD21BDF89A80B522
:1001B0000895EF92FF920F931F93CF93DF938C01DB
:1001C000E62EF12CC0E0D0E0CE15DF0519F0C031ED
:1001D000D10539F4DF91CF911F910F91FF90EF90EE
:1001E0000895F80161918F01CE010E94C800219607
:1001F000EBCFEF92FF920F931F93CF93DF938C017E
:10020000E62EF12CC0E0D0E0CE15DF0519F0C031AC
:10021000D10539F4DF91CF911F910F91FF90EF90AD
:100220000895CE010E94D100F80181938F0121969B
:10023000EBCF803118F490E00C94C8000895803121
:1002400018F490E00C94D10080E008954F925F92F2
:100250006F927F928F929F92AF92BF92CF92DF92D6
:10026000EF92FF920F931F93E3E7F1E080E2DF014B
:100270001D928A95E9F78CEB94E7A3E1BCE380A398
:1002800091A3A2A3B3A384EF9DEFA4E5BCE384A351
:1002900095A3A6A3B7A38BE19FE2ADEDBCE380A736
:1002A00091A7A2A7B3A742E153E860E47DE344A786
:1002B00055A766A777A703E718E621E93DE300AB5A
:1002C00011AB22AB33AB0F2EFCE5CF2EFFE8DF2EB8
:1002D000F2ECEF2EFDE3FF2EF02DC4AAD5AAE6AA7C
:1002E000F7AA0F2EF5ED8F2EF8E79F2EF9EEAF2E21
:1002F000FDE3BF2EF02D80AE91AEA2AEB3AE0F2EB9
:10030000F6EB4F2EF3EF5F2EFDEF6F2EFDE37F2E0A
:10031000F02D44AE55AE66AE77AE4092B30150922A
:10032000B4016092B5017092B6018092B7019092CB
:10033000B801A092B901B092BA01C092BB01D092AB
:10034000BC01E092BD01F092BE010093BF01109389
:10035000C0012093C1013093C2014093C301509367
:10036000C4016093C5017093C6018093C701909347
:10037000C801A093C901B093CA0184EF9DEFA4E521
:10038000BCE38093CB019093CC01A093CD01B093BB
:10039000CE018CEB94E7A3E1BCE38093CF01909373
:1003A000D001A093D101B093D2011092D30187B1B3
:1003B000806387B984B18F6384B988B18F7C88B931
:1003C00085B1807C85B91F910F91FF90EF90DF90F0
:1003D000CF90BF90AF909F908F907F906F905F90E5
:1003E0004F900895FC01A3E9B1E0805C9F4F4191DB
:1003F0005191619171914D935D936D937D93E81748
:10040000F907A9F708952F923F924F925F926F924A
:100410007F928F929F92AF92BF92CF92DF92EF9294
:10042000FF920F931F93CF93DF93CDB7DEB7A297C1
:100430000FB6F894DEBF0FBECDBF2090D301E22DE2
:10044000F0E0EE0FFF1FED58FE4F9183808333E9FC
:10045000E32E31E0F32E43EDC42E41E0D42E322CB6
:1004600000E010E01AA219A2F70181909190A190EA
:10047000B1907F01E32DF0E0EE0FFF1FED58FE4F2E
:100480006081718180E090E00E945707A50194018E
:1004900069837A838B839C8369817A818B819C8138
:1004A0000E940E082B013C01A30192010D831E83C3
:1004B000FAA1FF8389A188876D817E818F819885CC
:1004C0000E943E068B018AA399A3311409F488C0C7
:1004D0003A94CE14DF0441F681E0820D803108F0B9
:1004E00080E08093D30120E030E04FE753E40987B8
:1004F0001A87EAA1EB87F9A1FC8769857A858B8544
:100500009C850E940E0820E030EC4FE754E46D8794
:100510007E878F87988B6D857E858F8598890E94D1
:10052000AF068B018D83998320E030E04FE753E4E1
:100530009D818981698B1A8B9B8B8C8B69897A89C8
:100540008B899C890E94090818160CF44CC020E085
:1005500030E0A9019D8189810D8B1E8B9F8B888F37
:100560006D897E898F89988D0E94AA0687FF04C0B5
:1005700000E010E01D82198220E030E040E05FE3FF
:100580009D818981098F1A8F9B8F8C8F698D7A8DC0
:100590008B8D9C8D0E943E066D8F7E8F8F8F98A3D2
:1005A0006D8D7E8D8F8D98A10E942807862FA29633
:1005B0000FB6F894DEBF0FBECDBFDF91CF911F9174
:1005C0000F91FF90EF90DF90CF90BF90AF909F90F2
:1005D0008F907F906F905F904F903F902F900895F5
:1005E0008FE0382E76CF00E010E08FE78D83E3E4D4
:1005F000E983C2CF982F9695969595B98295807389
:1006000088B908959BB19F709BB99BB18295807FFB
:10061000892B8BB95B9A85E08A95F1F700005B988E
:100620008FE891E00197F1F700C000000895CF93A3
:10063000C82F611591F05A9A8C2F82958F700E9465
:1006400002038C2F8F700E94020387EC90E00197C9
:10065000F1F700C00000CF9108955A98EDCF8AB10C
:100660008C6F8AB92FEF83EF91E02150804090404A
:10067000E1F700C000008BB183708BB983E00E946A
:1006800002038FE19EE40197F1F700C0000083E0D0
:100690000E94020387E592E00197F1F700C0000095
:1006A00083E00E94020382E00E94020360E088E28D
:1006B0000E94170360E08CE00E94170360E086E070
:1006C0000E94170360E081E00E9417038FE39FE11F
:1006D0000197F1F700C00000089560E081E00E94FA
:1006E00017038FE39FE10197F1F700C00000089521
:1006F00091E0811101C090E0892F8295880F880FC9
:10070000807C860F60E080680C941703CF93DF93A2
:10071000EC018991811103C0DF91CF91089561E0CF
:100720000E941703F6CFEF92FF920F931F93CF9380
:10073000DF9300D000D0CDB7DEB7282F81110EC0D7
:1007400061E080E30F900F900F900F90DF91CF91B9
:100750001F910F91FF90EF900C941703CE0101961B
:100760007C01FC0140E050E03AE08A014F5F5F4FBE
:10077000822F632F0E940906905D9193922F282F5C
:100780009A3028F04330510581F702E010E00F5F06
:100790001F4F0E0D1F1D06C061E0F80182918F01F1
:1007A0000E9417030E151F05B9F70F900F900F90B9
:1007B0000F90DF91CF911F910F91FF90EF900895CF
:1007C000E8E6F0E0808182608083ECE6F0E0808102
:1007D0008E60808388B18E6088B9089584ED91E041
:1007E0000C94F2014F925F926F927F928F929F9240
:1007F000AF92BF92CF92DF92EF92FF920F931F932F
:10080000E4EDF1E08CEB94E7A3E1BCE3808391831A
:10081000A283B38384EF9DEFA4E5BCE38483958337
:10082000A683B7838BE19FE2ADEDBCE38087918720
:10083000A287B38742E153E860E47DE344875587AC
:100840006687778703E718E621E93DE3008B118B84
:10085000228B338B0F2EFCE5CF2EFFE8DF2EF2EC40
:10086000EF2EFDE3FF2EF02DC48AD58AE68AF78AA3
:100870000F2EF5ED8F2EF8E79F2EF9EEAF2EFDE34C
:10088000BF2EF02D808E918EA28EB38E0F2EF6EBA2
:100890004F2EF3EF5F2EFDEF6F2EFDE37F2EF02D39
:1008A000448E558E668E778E40A251A262A273A2AC
:1008B00084A295A2A6A2B7A2C0A6D1A6E2A6F3A63C
:1008C00004A715A726A737A740AB51AB62AB73AB04
:1008D00084AB95ABA6ABB7AB84EF9DEFA4E5BCE3CF
:1008E00080AF91AFA2AFB3AF8CEB94E7A3E1BCE3D1
:1008F00084AF95AFA6AFB7AF1F910F91FF90EF9068
:10090000DF90CF90BF90AF909F908F907F906F902F
:100910005F904F900C94EE03109216021092150205
:10092000109214020C94F20308950C94F2038F9227
:100930009F92AF92BF92CF92DF92EF92FF920F936E
:100940001F93CF93DF93809115029091160281300F
:10095000910509F44AC08230910509F496C0892BAB
:1009600009F053C00E946D0364E080E00E947803A8
:1009700083E091E00E94860361E081E00E947803B9
:100980008CE091E00E9486038091150290911602FE
:10099000892BD9F580917001811559F082E090E0A2
:1009A0009093160280931502109214021092700117
:1009B00012C080917201811104C080917101811572
:1009C00049F381E090E09093160280931502109213
:1009D0007201109271012FEF85EA9EE02150804054
:1009E0009040E1F700C0000010C00E946D0361E07C
:1009F00080E00E9478038BE191E00E948603809161
:100A0000150290911602019769F0DF91CF911F9125
:100A10000F91FF90EF90DF90CF90BF90AF909F909D
:100A20008F900895809172018115C1F060E081E09E
:100A30000E9478038AE291E00E948603109272017C
:100A40002FEF83EC99E0215080409040E1F700C007
:100A5000000080917001811591F2A0CF8091710109
:100A600060E0811551F081E00E9478038AE391E013
:100A70000E94860310927101E3CF81E00E94780307
:100A80008AE491E00E948603E4CF0E946D0362E055
:100A900080E00E9478038AE591E00E94860360E08E
:100AA00081E00E94780385E691E00E9486038091B0
:100AB00014028A3020F487E691E00E948603809138
:100AC00014020E94930389E691E00E948603E0915C
:100AD000140224E0E29FF0011124EC52FE4F20E0CA
:100AE00030E04AE754E460817181828193810E9401
:100AF0000E084B015C01C501B4010E9421076B0186
:100B0000EB0177FF08C08CE691E00E948603CC27BA
:100B1000DD27CC19DD09CE0168EE73E00E941506D1
:100B20007C01862F0E9493038EE691E00E9486034B
:100B300004E610E0C701B8010E941506862F0E9446
:100B40009303CE01B8010E9415060AE010E0B80137
:100B50000E941506862F0E949303CE01B8010E94C1
:100B600015060E9493038091150290911602029738
:100B700009F04BCF809170018115B9F0809114027A
:100B80008F5F80931402803130F010921602109221
:100B9000150210921402109270018FEF95EA2EE068
:100BA000815090402040E1F71DCF8091720181116A
:100BB00004C0809171018115B1F2109272011092FE
:100BC00071018FEF92E527E0815090402040E1F7DE
:100BD00000C00000C8CF80911502909116020895C0
:100BE000909316028093150208950E942F030E948D
:100BF000B4000E9453000E9426010E948C040E94AF
:100C0000E00378940E9471000E9403020E94FA029D
:100C1000F9CF992778E0880F991F961708F0961B4F
:100C2000881F7A95C9F78095089597FB072E16F4CB
:100C3000009407D077FD09D00E94290607FC05D053
:100C40003EF4909581959F4F0895709561957F4FE3
:100C50000895AA1BBB1B51E107C0AA1FBB1FA61703
:100C6000B70710F0A61BB70B881F991F5A95A9F755
:100C700080959095BC01CD0108955058BB27AA27B7
:100C80000E9455060C94CF070E94C10738F00E94BD
:100C9000C80720F039F49F3F19F426F40C94BE07DE
:100CA0000EF4E095E7FB0C94B807E92F0E94E007EB
:100CB00058F3BA17620773078407950720F079F491
:100CC000A6F50C9402080EF4E0950B2EBA2FA02D79
:100CD0000B01B90190010C01CA01A0011124FF27E9
:100CE000591B99F0593F50F4503E68F11A16F040E4
:100CF000A22F232F342F4427585FF3CF46953795E3
:100D00002795A795F0405395C9F77EF41F16BA0BA7
:100D1000620B730B840BBAF09150A1F0FF0FBB1F55
:100D2000661F771F881FC2F70EC0BA0F621F731F9E
:100D3000841F48F4879577956795B795F7959E3FFB
:100D400008F0B0CF9395880F08F09927EE0F97958C
:100D5000879508950E94940708F481E008950E9401
:100D6000C3060C94CF070E94C80758F00E94C10721
:100D700040F029F45F3F29F00C94B80751110C940E
:100D800003080C94BE070E94E00768F39923B1F3AF
:100D9000552391F3951B550BBB27AA2762177307A1
:100DA000840738F09F5F5F4F220F331F441FAA1F35
:100DB000A9F335D00E2E3AF0E0E832D091505040F1
:100DC000E695001CCAF72BD0FE2F29D0660F771F9F
:100DD000881FBB1F261737074807AB07B0E809F085
:100DE000BB0B802DBF01FF2793585F4F3AF09E3F0A
:100DF000510578F00C94B8070C9403085F3FE4F3B6
:100E0000983ED4F3869577956795B795F7959F5F4C
:100E1000C9F7880F911D9695879597F90895E1E098
:100E2000660F771F881FBB1F621773078407BA07F7
:100E300020F0621B730B840BBA0BEE1F88F7E09552
:100E400008950E9428076894B1110C94030808952E
:100E50000E94E80788F09F5798F0B92F9927B7515B
:100E6000B0F0E1F0660F771F881F991F1AF0BA954E
:100E7000C9F714C0B13091F00E940208B1E00895A2
:100E80000C940208672F782F8827B85F39F0B93F94
:100E9000CCF3869577956795B395D9F73EF4909501
:100EA0008095709561957F4F8F4F9F4F0895E8947F
:100EB00009C097FB3EF490958095709561957F4FA2
:100EC0008F4F9F4F9923A9F0F92F96E9BB27939550
:100ED000F695879577956795B795F111F8CFFAF460
:100EE000BB0F11F460FF1BC06F5F7F4F8F4F9F4F91
:100EF00016C0882311F096E911C0772321F09EE8EF
:100F0000872F762F05C0662371F096E8862F70E054
:100F100060E02AF09A95660F771F881FDAF7880F2E
:100F20009695879597F90895990F0008550FAA0B84
:100F3000E0E8FEEF16161706E807F907C0F01216EC
:100F40001306E407F50798F0621B730B840B950BEF
:100F500039F40A2661F0232B242B252B21F4089544
:100F60000A2609F4A140A6958FEF811D811D0895E1
:100F700097F99F6780E870E060E008959FEF80EC4C
:100F8000089500240A9416161706180609060895EF
:100F900000240A9412161306140605060895092E55
:100FA0000394000C11F4882352F0BB0F40F4BF2BC4
:100FB00011F460FF04C06F5F7F4F8F4F9F4F089504
:100FC00057FD9058440F551F59F05F3F71F04795FA
:100FD000880F97FB991F61F09F3F79F087950895DF
:100FE000121613061406551FF2CF4695F1DF08C0FE
:100FF000161617061806991FF1CF8695710561051B
:1010000008940895E894BB2766277727CB0197F9C2
:1010100008950E94940708F48FEF08950E94210814
:101020000C94CF070E94C10738F00E94C80720F037
:10103000952311F00C94B8070C94BE0711240C945E
:1010400003080E94E00770F3959FC1F3950F50E0ED
:10105000551F629FF001729FBB27F00DB11D639F6A
:10106000AA27F00DB11DAA1F649F6627B00DA11D10
:10107000661F829F2227B00DA11D621F739FB00DB6
:10108000A11D621F839FA00D611D221F749F332726
:10109000A00D611D231F849F600D211D822F762FBF
:1010A0006A2F11249F5750409AF0F1F088234AF09C
:1010B000EE0FFF1FBB1F661F771F881F9150504008
:1010C000A9F79E3F510580F00C94B8070C940308D3
:1010D0005F3FE4F3983ED4F3869577956795B7958F
:1010E000F795E7959F5FC1F7FE2B880F911D9695A9
:0A10F000879597F90895F894FFCF53
:1010FA00010101454C452D333731370046494C54DF
:10110A00524F204649522032487A00507265737312
:10111A0020627574746F6E733A0053312070726571
:10112A00737365642020202020005332207072657A
:10113A007373656420202020200020202020202096
:10114A0020202020202020202000436F6566204692
:10115A006C6F617400430030003A20002D002E00AD
:00000001FF
